:020000040800F2
:10000000100D00209D010008D71C0008CF1A000821
:10001000D51C00082908000805320008000000006F
:10002000000000000000000000000000DB1C0008D1
:100030002B08000800000000D91C0008091D00085A
:10004000B7010008B7010008B7010008B7010008B0
:10005000B7010008B7010008F9080008B701000857
:10006000B7010008B7010008B7010008B701000890
:10007000B7010008B7010008B7010008B701000880
:10008000B7010008B7010008B7010008B701000870
:10009000B7010008B7010008B7010008B701000860
:1000A000B7010008B7010008B7010008B701000850
:1000B000B7010008B7010008B7010008B701000840
:1000C000B7010008B7010008B7010008B701000830
:1000D000B7010008B7010008B7010008B701000820
:1000E000B7010008B7010008B7010008B701000810
:1000F000B7010008B7010008B7010008B701000800
:10010000B7010008B7010008B7010008B7010008EF
:10011000B7010008B7010008C11D000899280008B0
:10012000B7010008B7010008B7010008B7010008CF
:10013000B7010008B7010008B7010008B7010008BF
:10014000B7010008B7010008B7010008B7010008AF
:10015000B7010008B7010008B7010008B70100089F
:10016000B7010008B7010008B7010008B70100088F
:10017000B7010008B7010008B7010008000000003F
:10018000B7010008B7010008DFF80CD000F03AFB17
:100190000048004769410008100D002006488047CC
:1001A00006480047FEE7FEE7FEE7FEE7FEE7FEE75C
:1001B000FEE7FEE7FEE7FEE7A51D0008890100084F
:1001C0002DE9F05F0546002092469B46884606468C
:1001D000814640241BE0284641464746224600F01F
:1001E00036FA53465A46C01A914110D31146184662
:1001F000224600F01DFA2D1A67EB01084F462246F1
:100200000120002100F014FA17EB00094E41201ED6
:10021000A4F10104DFDC484631462A464346BDE8E6
:10022000F09FD2B201E000F8012B491EFBD27047CB
:100230000022F6E710B513460A4604461946FFF7B2
:10024000F0FF204610BD2DE9FE4F804681EA0300F5
:10025000C00F0C46009021F0004123F00045B8EBA0
:100260000200A94105D24046214690461C460B4655
:10027000024623F00040104347D0270DC7F30A0081
:10028000C3F30A510290401A019040286BDAC3F37D
:10029000130040F4801B0098924620B10023D2EB5B
:1002A000030A63EB0B0B01985946C0F1400250461C
:1002B00000F0BEF906460D4650465946019A00F038
:1002C000D6F910EB08006141002487EA115284EA54
:1002D000E7731A4340D0009A62B3019A012A4FEAA9
:1002E000075215DC001B61EB02014FF0004202EAED
:1002F0000752CDE90042001C41F5801132462B46E1
:1003000000F0D6F903B0BDE8F08F40462146F9E78A
:10031000001B61EB0201001C41F5801300185B41DA
:100320002018A2F5001747EB030140EAD570B61973
:100330006D4111E06D084FEA360645EAC0754FEA97
:100340000752001B61EB0201001C41F580114908B6
:100350004FEA30000019514132462B4603B0BDE848
:10036000F04F00F096B90098012240000023D0EB36
:10037000020263EBE073009821464FEAE074B8EBA9
:10038000000061EB0401E9E783F000435BE781F0E3
:10039000004158E72DE9FE4F81EA030404F00044D0
:1003A00021F0004100944FF0000B23F0004350EA8D
:1003B00001045ED052EA03045BD0C3F30A54C1F3D4
:1003C0000A552C44A4F2F3340194A0FB0254C1F367
:1003D000130141F48011C3F3130343F4801301FBB1
:1003E000024400FB034E840A970A44EA815447EA18
:1003F0008357A4FB076802958D0A05FB07854FEA22
:10040000932C04FB0C542705029D4FEA065847EA3B
:100410001637B5EB08056EEB070C870E920E47EA10
:10042000811742EA8312A7FB0201B6EB0B0164EBD2
:1004300000042B0D43EA0C335E1844EB1C50DA46E3
:100440005146E7FB0201C5F313044FEA0B3343EABD
:1004500014534FEA0432019C43EA0603A4F10C044E
:100460000294009CCDE900B400F022F903B0BDE88D
:10047000F08F00200146F9E72DE9F04D81EA0304F1
:1004800004F0004B21F0004514464FF0000A23F021
:10049000004150EA050220D054EA01021DD0C5F304
:1004A0000A570246C5F31303C1F31300C1F30A56FA
:1004B00040F4801543F48013A7EB0608101BD646C2
:1004C00008F2FD3873EB050002D308F1010801E0E2
:1004D00092185B41B8F1000F03DA00200146BDE835
:1004E000F08D00204FF48011064684460EE0171B65
:1004F00073EB050705D3121B63EB050306434CEAB8
:10050000010C49084FEA300092185B4150EA01079C
:10051000EDD152EA030012D082EA040083EA050119
:10052000084305D0101BAB4106D20122002306E090
:1005300000224FF0004302E06FF0010253101AEB6B
:1005400006004CEB085110EB0A0041EB0B01BDE833
:10055000F04D00F09EB80EB540F2334102910021FB
:10056000CDE900110A460B4600F0A2F803B000BD29
:10057000C1F30A5210B5C1F3130140F2FF3341F445
:1005800080119A4201DA002010BD40F233439A42B2
:10059000A2F2334203DC524200F059F810BD904001
:1005A00010BD000030B5041E71F1000404DB4FF0F3
:1005B0000044404264EB0101141E73F1000405DBAA
:1005C0001C464FF00043524263EB04038B4208BFCA
:1005D000824230BD30B5041E71F1000404DB4FF0DF
:1005E0000044404264EB0101141E73F1000405DB7A
:1005F0001C464FF00043524263EB0403994208BF8C
:10060000904230BD30B50B46014600202022012427
:1006100009E021FA02F59D4205D303FA02F5491BD0
:1006200004FA02F52844151EA2F10102F1DC30BDE6
:10063000202A04DB203A00FA02F1002070479140A2
:10064000C2F1200320FA03F3194390407047202A97
:1006500004DB203A21FA02F00021704721FA02F36C
:10066000D040C2F120029140084319467047202A29
:1006700006DBCB17203A41FA02F043EAE07306E0CA
:1006800041FA02F3D040C2F12002914008431946DA
:10069000704710B5141E73F1000408DA401C41F1D4
:1006A000000192185B411A4301D120F0010010BDF6
:1006B0002DE9F04D92469B4611B1B1FA81F202E06C
:1006C000B0FA80F220329046FFF7B2FF04460F46A0
:1006D00040EA0A0041EA0B0153465A46084313D048
:1006E000114653EA010019D0C8F140025046FFF705
:1006F000AEFF05460E46504659464246FFF798FF64
:10070000084305D0012004E020463946BDE8F08DBD
:100710000020054346EAE0762C4337430A986305F8
:10072000E40AA0EB08000022FD0A44EA47540A301C
:1007300002D500200146E9E7010510196941DDE90C
:10074000084500196941BDE8F04DA2E72DE9FE4FCB
:10075000C3F30A5701F000450024C1F30A56C3F35E
:100760001303C1F3130143F4801312EB020AA646EC
:1007700041F48011009543EB030CA7F1010B16E047
:10078000B0EB0A0061EB0C01071E71F1000707DAFC
:100790004FF00008D0EB080085F0004568EB010140
:1007A000171A73EB0107EBD3761E001849415E451B
:1007B000F6DA50EA010209D0CDE900E5002213463D
:1007C0000296FFF775FF03B0BDE8F08F2046009951
:1007D000F9E7C1F30A52C1F3130140F2FF3341F4C8
:1007E00080119A4202DA00200146704740F23343FA
:1007F0009A42A2F2334202DC5242FFF728BFFFF7CF
:1008000017BF0000064C074D06E0E06840F001030A
:1008100094E8070098471034AC42F6D3FFF7B8FCD1
:100820002044000840440008FEE7704770B5274C9C
:100830009FED270B284D94F8CF00012640B194F886
:10084000D000012809D002280DD0032802D110E0E1
:1008500084F8CF6084F8D06010E0022084F8D000E3
:100860009FED1E0B0AE0032084F8D0009FED1D0BC6
:1008700004E004209FED1D0B84F8D00085ED2A0BC9
:100880004FF480411B4800F077F994F9B50030B17E
:10089000012802D094F8B60020B1002003E084F8CB
:1008A000B46002E0012084F8B40094F8B40095ED3F
:1008B0002A0B10B184ED0A0B01E084ED080B14F84B
:1008C000B40FA070FF20207070BD0000B80200209F
:1008D0000000000000C06240E001002000000000B5
:1008E00000C072400000000000207C4000000000BA
:1008F00000C08240000C0240012000F055B800000A
:100900000021B0F5807F37D010DC10282CD006DC19
:10091000022823D0042823D008283CD122E0202814
:1009200024D0402824D0802835D123E0B0F5805F42
:100930002AD009DCB0F5007F20D0B0F5806F1FD041
:10094000B0F5006F27D11DE0B0F5005F1ED0B0F507
:10095000804F1DD0B0F5004F1DD11BE001211AE0E2
:10096000022118E0032116E0042114E0052112E021
:10097000062110E007210EE008210CE009210AE021
:100980000A2108E00B2106E00C2104E00D2102E021
:100990000E2100E00F21034850F82100002800D06C
:1009A000004770479C030020044910B50A680242C2
:1009B00002D00860FFF7A4FF10BD0000143C014006
:1009C0002DE9F84F00224FF0010803254FF00F0EDC
:1009D0000B6808FA02F42340A3426ED14E68012E40
:1009E00005D0022E03D0112E01D0122E12D186680E
:1009F0004FEA420C05FA0CF7BE43CF6807FA0CF732
:100A0000374387604668A6430C79C4F300149440CA
:100A100034434460C668570005FA07FC8C6826EA30
:100A20000C06BC403443C4604C68022C01D0122C2C
:100A300013D1D40800EB8404A346D4F820905407C3
:100A40004FEAD46A0EFA0AF629EA06090E6906FA8E
:100A50000AF646EA0906CBF8206006680C7926EA11
:100A60000C0604F00304BC40344304604C68E4000A
:100A700065D5364C266846F480462660246822F008
:100A8000030604F480440094314C3444A446D4F862
:100A900008489607370F0EFA07F6B4432D4EB042BA
:100AA00001D1002624E02C4EB04201D101261FE0E6
:100AB0002A4EB04202D102261AE040E0284EB0424F
:100AC00001D1032614E0274EB04201D104260FE0E5
:100AD000254EB04201D105260AE0244EB04201D194
:100AE000062605E0224EB04201D1072600E0082686
:100AF000BE402643CCF808681E4E34684F689C43BD
:100B0000FF0300D51C4334601A4C241D26684F682F
:100B10009E43BF0300D51E432660164E0836346838
:100B20004F689C43FF0200D51C433460114E0C36C5
:100B300034684F689C43BF0200D51C433460521C8C
:100B4000102AFFF445AFBDE8F88F0000443802409A
:100B50000030014000000240000402400008024052
:100B6000000C024000100240001402400018024035
:100B7000001C0240003C0140426931EA020200D1FF
:100B80000904816170470AB1816170470904FBE77C
:100B900001488068704700000C000020024881680E
:100BA00002781144816070470C0000200B4810B59A
:100BB000016841F400710160016841F480610160E5
:100BC000016841F480710160032000F071F8002099
:100BD00000F006F800F024F8002010BD003C0240B0
:100BE00070B50D4D04464FF47A712878B1FBF0F0E2
:100BF0000A490968B1FBF0F000F004FB48B9102C79
:100C000007D200222146501E00F032F800206C600E
:100C100070BD012070BD00000C00002018000020F5
:100C20000B4882B0016841F480410160006800F423
:100C3000804000900648001F016841F0805101602B
:100C4000006800F080500090072002B000F030B83B
:100C500044380240002809DB00F01F0201219140C6
:100C60004009800000F1E020C0F80011704700004A
:100C7000F0B40E4B1B680C46C3F30223C3F1070507
:100C8000042D00D90425191D072901D2002300E0F5
:100C9000DB1E012606FA05F1491E214099409E40BF
:100CA000761E16403143F0BC02F0C6BA0CED00E0EF
:100CB000064900F0070208684FF6FF03184040EAB3
:100CC0000220034A10430860704700000CED00E06A
:100CD0000000FA052DE9F0470E46050065D0DFF863
:100CE0001481D8F80000F7B200F00F00B04207D22C
:100CF00088F80070D8F8000000F00F00B04254D11E
:100D000028683D4C810712D5400703D5206840F480
:100D1000E05020602878000703D5206840F4604048
:100D200020602068A96820F0F0000843206028783F
:100D3000C0072DD0304968680839012812D0022830
:100D400013D0032811D00968890700292DDA2168FA
:100D500021F0030101432160FFF71AFF814641F2B0
:100D6000883A0EE009688903EFE709688901ECE732
:100D7000FFF70EFFA0EB0901514502D90320BDE8A2
:100D8000F0872068696800F00C00B0EB810FEFD1AC
:100D9000D8F80010404601F00F01B14207D90770A2
:100DA000006800F00F00B04201D00120E7E728788A
:100DB000400705D52068E96820F4E050084320602A
:100DC0002878000706D52068296920F4604040EAA9
:100DD000C100206000F038F82168084AC1F303110F
:100DE000515CC8400649086006480068FFF7F8FEF5
:100DF0000020C4E7003C024008380240CC43000811
:100E00001800002010000020044805490068096807
:100E1000044AC1F38221515CC84070471800002089
:100E200008380240DC4300080448054900680968A6
:100E3000044AC1F34231515CC84070471800002099
:100E400008380240DC430008154810B5006810F06F
:100E50000C02144813D04110042A0FD0082A0ED1D6
:100E60000F4C241F2268236802F03F025B0207D563
:100E70002068C0F38810A0FB010106E0084610BD01
:100E80002168C1F38811A1FB00010023FFF798F945
:100E90002168C1F30141491C4900B0FBF1F010BDCC
:100EA000083802400024F4002DE9F84F04006ED009
:100EB0002078DFF83C93C007A9F104054AD009F176
:100EC00004000168C1F38101012908D00068C0F362
:100ED000810002280AD1D9F80000400206D528680E
:100EE000800337D560680028E1D033E06068B0F552
:100EF000803F10D0B0F5A02F286810D020F48030AB
:100F00002860286820F4802028606068A8B1FFF776
:100F10003FFE06460DE0286840F48030F4E740F4D8
:100F200080202860F7E700BFFFF732FE801B6428AF
:100F300073D828688003F7D50CE0FFF729FE064632
:100F400005E000BFFFF724FE801B6428F0D8286866
:100F50008003F7D42078DFF89C8280074FF0000AE6
:100F60003ED5A348001D016811F00C0F08D00068A1
:100F7000C0F3810002280BD1D9F80000400207D449
:100F80002868800716D5E068012800D112E02BE11F
:100F9000E068B8B10120C8F80000FFF7F9FD064687
:100FA00005E000BFFFF7F4FD801B0228C0D82868C9
:100FB0008007F7D52868216920F0F80040EAC100D1
:100FC00028600DE0C8F800A0FFF7E2FD064604E047
:100FD000FFF7DEFD801B02281FD828688007F7D4A2
:100FE0002078000722D5824E83486169703671B13E
:100FF00001210160FFF7CCFD074604E0FFF7C8FDC3
:10100000C01B022809D830688007F7D50EE0C0F869
:1010100000A0FFF7BDFD074605E082E0FFF7B8FD41
:10102000C01B02287DD830688007F7D4207840079D
:1010300068D5DFF8BCB100270BF13C0BDBF80000F2
:10104000C0000BD4DBF8001041F08051CBF8001049
:10105000DBF80000012700F080500090674E3068F8
:10106000C00510D4306840F480703060FFF790FD08
:10107000009005E0FFF78CFD0099401A022850D837
:101080003068C005F6D55A4EA0686C3601280FD0DE
:101090000528306810D020F001003060306820F062
:1010A00004003060A068B8B1FFF772FD00900FE057
:1010B000306840F00100F4E740F004003060F7E7EA
:1010C000FFF766FD0099411A41F28830814266D8E7
:1010D00030688007F4D50EE0FFF75AFD009007E076
:1010E000FFF756FD0099411A41F28830814256D8E7
:1010F00030688007F4D42FB1DBF8001021F0805164
:10110000CBF80010A069C8B33949091D0968C1F3BB
:10111000810102294AD00228504607D0C8F8600051
:1011200000E03CE0FFF734FD04463BE04746C8F8EA
:101130006000FFF72DFD064605E000BFFFF728FD24
:10114000801B02282BD828688001F7D4D4E9070136
:101150000843A16A2A4A490802EB0141626A41EA4E
:101160008211084394F82C1040EA0161C9F800107C
:1011700001203866FFF70CFD044606E036E000BFAC
:10118000FFF706FD001B022809D828688001F7D563
:101190002CE000BFFFF7FCFC001B022802D9032053
:1011A000BDE8F88F28688001F4D41FE00128F7D04B
:1011B000D9F80000E26900F48001914214D1226A5A
:1011C00000F03F0191420FD147F6C071626A0140C1
:1011D000914209D1A26A00F44031914204D1E16AFE
:1011E00000F07060884201D00120D9E70020D7E7E5
:1011F0000438024000004742800E47420070004021
:101200000000FFFF10B5401EB0F1807F01D3012028
:1012100010BD4FF0E02460610F21601702F00CF860
:101220000020A06107202061002010BD704770479A
:1012300070B590F83C20012A32D0012480F83C405F
:10124000022280F83D2003685A689D6822F07006EB
:101250000A6832435A60134B02689A4214D0B2F1C2
:10126000804F11D0104B9A420ED0104B9A420BD0A7
:101270000F4B9A4208D00F4B9A4205D00E4B9A4220
:1012800002D00E4B9A4204D1496825F080031943DD
:10129000916080F83D40002180F83C10084670BD08
:1012A000022070BD00000140000400400008004022
:1012B000000C0040000401400040014000180040C4
:1012C00010B5040003D094F83D0010B107E00120F0
:1012D00010BD002084F83C00204600F00DF80220EC
:1012E00084F83D00211D206801F014FC012084F8E1
:1012F0003D00002010BD000070B586B004461421EA
:101300006846FEF795FF344B2468324E0021324880
:10131000103B40250222B44217D1046844F0020475
:101320000460006800F002000590186840F00400B6
:1013300018601868009500F004000590CDE90121BF
:10134000CDE903126946254819E0254EB4421AD169
:10135000046844F004040460006800F00400059090
:10136000186840F0020018601868009500F002004C
:101370000590CDE90121CDE9031269461948FFF72F
:101380001FFB06B070BD18498C420ED1016841F0B8
:10139000100101600068002200F010000590114665
:1013A0003620FFF765FC362010E010498C42E8D16A
:1013B000016841F0200101600068002200F0200077
:1013C000059011463720FFF753FC3720FFF742FC0A
:1013D000D7E7000000040040403802400008024007
:1013E00000080040000402400010004000140040CB
:1013F0000168CA6842F00102CA600068816801F0B1
:101400000701062903D0016841F0010101600020B5
:10141000704790F83C20012A0CD0012200F83C2FA4
:101420000223437050F83C3C596142700021017026
:101430000846704702207047704700002DE9F041D0
:10144000044690F83C000D4601283DD0012684F862
:101450003C60022084F83D00AAB3042A46D02068EC
:10146000082A55D0D5E90027E968036A23F4805398
:101470000362D0F81CC0036A2CF4407C4CEA0727B6
:101480004FF6FF7C27F470470CEA013139434FF4E3
:10149000204723F4204307EA02321A43C161026263
:1014A0002068C16921F44061C1612068C169AA68EE
:1014B00041EA0221C0F81C1084F83D60002084F845
:1014C0003C00BDE8F08101E00220FAE7D5E9001216
:1014D000EB68206801F0CEFC2068816921F00C01E6
:1014E000816120688169AA6811430FE0D5E9001283
:1014F000EB68206801F010FD2068816921F44061EB
:10150000816120688169AA6841EA02218161D3E78B
:10151000D5E9002C2F7B016A21F480710162C16939
:10152000036A21F0030141EA0C0121F0F00C3907B4
:101530004FF420674CEA116123F4206307EA02228A
:101540001A43C16102622068C16921F00C01C161C6
:101550002068C169AA681143ACE710B5040003D044
:1015600094F83D0010B107E0012010BD002084F880
:101570003C00204600F00CF8022084F83D00211DBC
:10158000206801F0C7FA012084F83D00002010BD5A
:10159000704710B504460068012201F01FFB206867
:1015A000816801F00701062903D0016841F00101BB
:1015B0000160002010BD70B50446006801694FF05D
:1015C0000005C943890715D4C168C943890711D4E7
:1015D000E91E01610120207720688069800720468C
:1015E00002D0FFF729FF04E000F0C2F8204600F027
:1015F00057F9257720680169C943490717D4C1689D
:10160000C943490713D46FF0040101610220207718
:101610002068806910F4407F204602D0FFF70CFF5D
:1016200004E000F0A5F8204600F03AF9257720689C
:101630000169C943090716D4C168C943090712D40F
:101640006FF008010161042020772068C0698007DD
:10165000204602D0FFF7F0FE04E000F089F82046B3
:1016600000F01EF9257720680169C943C90617D41F
:10167000C168C943C90613D46FF010010161082085
:1016800020772068C06910F4407F204602D0FFF721
:10169000D3FE04E000F06CF8204600F001F9257755
:1016A00020680169C943C90708D1C168C943C9078E
:1016B00004D1891E0161204600F016F920680169F5
:1016C000C943090609D4C168C943090605D46FF0A6
:1016D000800101612046FFF7A9FD20680169C94327
:1016E000490609D4C168C943490605D46FF04001D1
:1016F0000161204600F025F920680169C943890687
:101700000BD4C168C943890607D46FF02001016179
:101710002046BDE87040FFF78ABD70BD10B586B0A9
:10172000044614216846FEF783FD0E49206888426E
:1017300015D10D480021026842F0100202600068D5
:1017400000F010000590602000900220CDE901011A
:101750000320CDE9031069460448FFF731F906B0CC
:1017600010BD00000040014030380240001002402F
:10177000704770B5044690F83C000D4601280DD026
:10178000012684F83C60022084F83D0042B1042A1E
:1017900018D0082A2AD00C2A4DD139E0022070BD79
:1017A000206801F033FA2068816941F00801816105
:1017B0002068816921F004018161206881692A69BA
:1017C000114311E0206801F051FA2068816941F469
:1017D000006181612068816921F4806181612068F4
:1017E00081692A6941EA0221816124E0206801F0CF
:1017F00073FA2068C16941F00801C1612068C169BC
:1018000021F00401C1612068C1692A69114311E016
:10181000206801F095FA2068C16941F40061C16156
:101820002068C16921F48061C1612068C1692A69A9
:1018300041EA0221C16184F83D60002084F83C0047
:1018400070BD10B5040003D094F83D0010B107E05E
:10185000012010BD002084F83C00204600F00CF868
:10186000022084F83D00211D206801F053F9012079
:1018700084F83D00002010BD08B500680649884284
:1018800008D10648016841F480310160006800F425
:101890008030009008BD0000004001404438024004
:1018A0007047000010B504460068012201F096F967
:1018B0000B492068884202D00A49884203D1416C12
:1018C00041F4004141642068816801F00701062964
:1018D00003D0016841F001010160002010BD00004B
:1018E000000001400004014001F052BA70B5044606
:1018F00090F83C00012812D0012584F83C500220C9
:1019000084F83D00204601F061FA01004FF000002C
:1019100007D084F83D5084F83C00012070BD0220BF
:1019200070BD2168CA6822F04002CA602168CA6896
:1019300022F48042CA6084F83D5084F83C000020C4
:1019400070BD704770B5040004D094F839000025CC
:1019500010B106E0012070BD84F83850204600F038
:1019600023F8242084F839002068C16821F400514C
:10197000C160204601F020FB2068016921F49041FC
:1019800001612068416921F02A0141612068C16834
:1019900041F40051C160E563202084F8390084F8E7
:1019A0003A00002070BD000010B586B00446142136
:1019B0006846FEF73DFC14492068884221D113484F
:1019C0000021026842F480220260006800F4802056
:1019D00005900E481038026842F008020260006864
:1019E00000F0080005904FF4407000900220CDE90F
:1019F0000101032003900720049069460448FEF784
:101A0000DFFF06B010BD0000004800404038024033
:101A1000000C02402DE9F843044690F839001F46B7
:101A200016460D46202850D1B5B1AEB194F8380015
:101A300001284AD0012084F838004FF00008C4F88B
:101A40003C80212084F83900FFF7A2F8A684814663
:101A5000E68484F8388026E00120BDE8F883E08C35
:101A6000401EE084A0684B46B0F5805F4FF0000256
:101A70004FF080012046009703D001F031FBE8B918
:101A80000DE001F02DFBC8B928882168C0F30800DB
:101A90004860206908B16D1C05E0AD1C03E02168B9
:101AA00015F8010B4860E08C0028D8D14B46002285
:101AB00040212046009701F013FB08B10320CCE73A
:101AC000202084F839000020C7E70220C5E7FEE7A0
:101AD000F0B587B014216846FEF7AAFB2A48002417
:101AE000016841F010010160016801F010010591E9
:101AF000016841F080010160016801F080010591F9
:101B0000016841F001010160016801F001010591E6
:101B1000016841F008010160016801F008010591C8
:101B2000016841F004010160016801F004010591C0
:101B3000016841F0020101600068144F00F00200EA
:101B40004FF470460590002231463846FFF71BF8E7
:101B500001250F480095CDE9010469460D48FEF7BF
:101B60002FFF0096CDE90154694638460394FEF7ED
:101B700027FF002211460620FFF77AF80620FFF71C
:101B800069F807B0F0BD000030380240000C024098
:101B9000000011100000024010B58CB0142104A800
:101BA000FEF746FB002418480A9409940094019417
:101BB000029414490394C0E900148460C460046171
:101BC0008461FFF77DFB1048FFF7C7FC04200490F9
:101BD0005020CDE9050404A90B480894FFF786FEC0
:101BE000099409A908480A94FFF722FB0120CDE9CE
:101BF000004002940022694603480394FFF71EFC4C
:101C00000CB010BD000400405C00002010B58CB08A
:101C1000142104A8FEF70CFB002418480A94099428
:101C200000940194029414490394C0E90014846060
:101C3000C46004618461FFF743FB1048FFF78DFC2B
:101C4000042004905020CDE9050404A90B48089411
:101C5000FFF74CFE099409A908480A94FFF7E8FA2F
:101C60000120CDE900400294002269460348039414
:101C7000FFF7E4FB0CB010BD000800409C00002002
:101C800010B588B01C216846FEF7D2FA10480F49FB
:101C90000024C0E900148460C46004618461FFF71B
:101CA000D0FD6020CDE90004029400226946084876
:101CB0000494FFF75EFD042269460548FFF759FDCD
:101CC0000348FFF72BFD08B010BD000000400140A5
:101CD0005C010020FEE7704770477047401EB0F17E
:101CE000807F01D3012070474FF0E0214861054A11
:101CF000F02082F8140D0020886107200861002080
:101D0000704700000FE000E00348016811B101686E
:101D1000491E0160FEF742BF0800002030B593B0B5
:101D200030216846FEF784FA14210CA8FEF780FAE9
:101D30001A480025016841F080510160006800F0F8
:101D4000805011901648016841F48041016000689C
:101D5000022400F4804011900120009000040190C2
:101D60008001CDE90640082008904FF4A870CDE925
:101D7000090407200B906846FFF796F80CA90F207E
:101D800081E831004FF4A0500F90E002109005213F
:101D90000CA8FEF79FFF13B030BD00004038024092
:101DA000007000400548016841F47001016003497A
:101DB0004FF00060803908607047000088ED00E057
:101DC0000148FFF7F8BB0000DC0000202DE9F04FD0
:101DD000FD4F2DED108B83B097F9B400012500263F
:101DE000B8B1012818D097F8B60087F8B50000BF41
:101DF00097F8B5109FEDF5DB9FEDF6FBDFF8DC8380
:101E00009FEDF78BF84C4FF0FF3041B197ED0A0B87
:101E100007E087F8B550EBE787F8B560E8E797ED9E
:101E2000080B814684ED000B87F8B500EF49086880
:101E300009684068886057F8B01FA0EB010B47F8AD
:101E40001809EB480068FEF786FBC4E91201FEF7AB
:101E5000DBFFFEF780FB41EC190BE5480C30006816
:101E6000FEF779FB41EC1C0B53EC1D2B84ED14CBDE
:101E700051EC190BFEF78EFA009194ED120B82468D
:101E800041EC190B53EC182B51EC100BFEF7DBF95E
:101E900041EC100B51EC180B53EC102BFEF7ECFA45
:101EA00053EC192BFEF776FA53EC1C2BFEF7E4FAF1
:101EB00041EC100B84ED160B94ED001B53EC102B32
:101EC00051EC110BFEF760FA41EC190B53EC1F2B90
:101ED00084ED189BFEF75EFA17ED241B53EC112BD3
:101EE000FEF752FA9FEDC31B53EC112BFEF752FA8B
:101EF00041EC1E0B9FEDC10B51EC190B53EC102B59
:101F0000FEF748FA17ED261B983F53EC112BFEF70E
:101F10009AF953EC1E2BFEF796F941EC1A0B9FED44
:101F2000B99B53EC192BFEF755FB02D284ED1A9B9B
:101F30000DE09FEDB6BB51EC1A0B53EC1B2BFEF7DB
:101F400031FB02D284ED1ABB01E084ED1AAB94EDB3
:101F50001A0B9FEDB01B51EC100B53EC112BFEF73D
:101F600019FA9FEDAE1B53EC112BFEF70DFA41EC65
:101F7000100B84ED1C0BFEF7FBFAC8F83400A948DF
:101F80000068FEF7E8FA41EC1D0BA64884ED1EDB65
:101F90000C300068FEF7DFFA41EC1C0B53EC182BF9
:101FA00084ED20CB009941EC1BAB51EC1D0BFEF7EF
:101FB0004AF941EC100B51EC180B53EC102BFEF7C7
:101FC0005BFA53EC1B2BFEF7E5F953EC1C2BFEF7E9
:101FD00053FA41EC100B84ED220B94ED001B53ECF3
:101FE000102B51EC110BFEF7CFF941EC1B0B53EC0E
:101FF0001F2B84ED24BBFEF7CDF997ED061BBA46E7
:1020000053EC112BFEF7C0F99FED7A1B53EC112B0B
:10201000FEF7C0F941EC100B8DED000B9FED770B37
:1020200051EC1B0B53EC102BFEF7B4F997ED041B8E
:1020300053EC112BFEF707F99DED000B53EC102B21
:10204000FEF701F941EC1D0B53EC192BFEF7C2FA18
:1020500002D284ED269B0DE09FED73BB51EC1D0B6E
:1020600053EC1B2BFEF79EFA02D284ED26BB01E057
:1020700084ED26DB94ED260B9FED6D1B51EC100BD0
:1020800053EC112BFEF786F99FED6B1B53EC112BD4
:10209000FEF77AF941EC100B84ED280BFEF768FA95
:1020A000C8F8380094ED140B01F0D6F8B0EE40BA41
:1020B000F0EE60BA02F056F9614F9FED62FB30B965
:1020C000B0EE4B0AF0EE6B0A02F02AF920B1B0EE46
:1020D0004FBAF0EE6FBA0BE09FED5C1BB0EE4B0A0F
:1020E000F0EE6B0A01F044F9B0EE40BAF0EE60BADF
:1020F00053EC1F2B51EC1B0BFEF754FA51EC1B0B4E
:1021000005D281F00041FEF733FA404201E0FEF7CC
:102110002FFA9FED3C0BC4F8CC00A046B0EE4FCA9E
:10212000F0EE6FCA53EC102B51EC1A0BFEF752FA7B
:1021300004D29FED340B53EC102B0FE09FED339B3B
:1021400051EC1A0B53EC192BFEF744FA04D8B0EEFD
:102150004F9AF0EE6F9A07E053EC192B51EC1A0BE3
:10216000FEF712F941EC190B51EC1C0B53EC192B37
:10217000FEF718FA01D0012400E0002453EC1F2BD5
:1021800051EC190BFEF70EFA02D29FED329B67E07D
:10219000B0EE4FAAF0EE6FAA53EC1A2B51EC190BCC
:1021A000FEF718FA04D2B0EE489AF0EE689A57E0BB
:1021B00053EC1A2B51EC190BFEF7F4F94ED1B0EE9B
:1021C0004A9AF0EE6A9A4BE0B80200200000000044
:1021D00000000040000000000000444000400140BA
:1021E000000000000000F03FE0010020E443000890
:1021F00028040040000000000000594000000000DA
:10220000000024400000000000E0854000000000C5
:10221000001071401240E8E9AF9DCB3F53AC70987D
:1022200028734D4028080040000000000040744022
:10223000910669900669D03F4FECC44EECC45440FF
:10224000500000200000000000000000000000001E
:102250000000F041000000000000F0BF97ED009B7F
:10226000B0EE490AF0EE690A02F07CF820B1B0EE57
:102270004FAAF0EE6FAA0BE09FEDF81BB0EE490AF3
:10228000F0EE690A01F074F8B0EE40AAF0EE60AA30
:1022900098ED180B9FEDF31B51EC100B53EC112B29
:1022A000FEF778F8B0EE4F9AF0EE6F9A41EC1B0B08
:1022B00053EC192BFEF776F902D21FED1AFB18E04A
:1022C00053EC192B51EC1B0BFEF784F904D2B0EE42
:1022D00048FAF0EE68FA0CE0B0EE49FAF0EE69FA6E
:1022E00053EC1F2B51EC1B0BFEF75CF901D097ED63
:1022F00000FBB0EE4F0AF0EE6F0A02F033F820B1A7
:10230000B0EE49FAF0EE69FA0BE09FEDD41BB0EEA7
:102310004F0AF0EE6F0A01F02BF8B0EE40FAF0EE43
:1023200060FA6CB353EC192B51EC1A0BFEF73AF927
:1023300051EC1A0B05D281F00041FEF719F9404229
:1023400001E0FEF715F944B2B0EE49AAF0EE69AA31
:1023500053EC1A2B51EC1F0BFEF724F951EC1F0B19
:1023600005D281F00041FEF703F9404201E0FEF79B
:10237000FFF840B2844203D1B0EE4ABAF0EE6ABA36
:10238000444698ED200B00F067FFB0EE40AAF0EE57
:1023900060AA01F0E7FF30B9B0EE4A0AF0EE6A0A2F
:1023A00001F0BEFF20B1B0EE49FAF0EE69FA0BE0A1
:1023B0001FED5A1BB0EE4A0AF0EE6A0A00F0D8FF91
:1023C000B0EE40FAF0EE60FA53EC192B51EC1F0B13
:1023D000FEF7E8F851EC1F0B05D281F00041FEF743
:1023E000C7F8404201E0FEF7C3F81FED7AABC4F82E
:1023F000D00053EC1A2B51EC1D0BFEF7EBF80DD36C
:102400001FED77AB51EC1D0B53EC1A2BFEF7E2F8E6
:1024100004D8B0EE49AAF0EE69AA07E053EC1A2BF3
:1024200051EC1D0BFDF7B0FF41EC1A0B51EC1C0BEE
:1024300053EC1A2BFEF7B6F801D0012000E0002083
:10244000804653EC192B51EC1A0BFEF7ABF802D275
:102450001FED80CB18E053EC192B51EC1A0BFEF753
:10246000B9F804D2B0EE48CAF0EE68CA0CE0B0EE9B
:1024700049CAF0EE69CA53EC1C2B51EC1A0BFEF75B
:1024800091F801D097ED00CB94ED240B9FED751BD7
:1024900051EC100B53EC112BFDF77CFF41EC1A0BA8
:1024A000B0EE4C0AF0EE6C0A01F05CFF20B1B0EE29
:1024B00049CAF0EE69CA0BE09FED681BB0EE4C0A0A
:1024C000F0EE6C0A00F054FFB0EE40CAF0EE60CAC5
:1024D00053EC192B51EC1A0BFEF764F802D21FEDE6
:1024E000A38B18E053EC192B51EC1A0BFEF772F882
:1024F00011D3B0EE49DAF0EE69DA53EC1D2B51EC52
:102500001A0BFEF74FF804D1B0EE4D8AF0EE6D8A4B
:1025100001E097ED008BB0EE480AF0EE680A01F09A
:1025200021FF20B1B0EE498AF0EE698A0BE09FED01
:102530004B1BB0EE480AF0EE680A00F019FFB0EE4F
:10254000408AF0EE608A4FF400514848FEF714FBD1
:102550005846FEF700F89FED461B53EC112BFDF794
:1025600019FF41EC1D0B53EC1B2BFDF713FF9AEDEC
:10257000001B574653EC112BFDF765FEC7E9000120
:1025800053EC1E2B51EC1D0BFDF704FF97ED021BC6
:1025900053EC112BFDF757FEC7E90201B8F1000F0C
:1025A00029D053EC192B51EC1C0BFDF7FBFF51EC20
:1025B0001C0B05D281F00041FDF7DAFF404201E03B
:1025C000FDF7D6FF47B253EC192B51EC180BFDF772
:1025D000E9FF51EC180B05D281F00041FDF7C8FF6F
:1025E000404201E0FDF7C4FF40B2874203D1B0EEA4
:1025F00049AAF0EE69AA53EC1A2B51EC1D0BFDF71A
:10260000C9FE9AED041B574653EC112BFDF71BFE38
:10261000C7E904019DED000B51EC1D0B53EC102B91
:10262000FDF7B8FE97ED061B53EC112BFDF70BFEE3
:10263000C7E9060197F9B800F0B101281FD097F853
:10264000B900F8B15FF0000087F8B70097F8B7005D
:1026500094ED160BC0B187ED0E0B17E000000000E3
:10266000000070400000000000000840000C024024
:102670009A9999999999C93F87F8B750E6E787F8E9
:10268000B760E3E70120DFE787ED0C0B97F8B700B1
:1026900087F8B900484687F8B79097F9BB1079B129
:1026A000012910D097F8BC1081B1002187F8BA1029
:1026B00097F8BA1094ED280B51B187ED120B09E091
:1026C00087F8BA50F4E787F8BA60F1E70121EDE73F
:1026D00087ED100B97F8BA1087F8BC1087F8BA008E
:1026E00097F9BE1081B1012911D097F8BF1089B1B7
:1026F0005FF0000187F8BD1097F8BD1094ED1A0B3C
:1027000051B187ED160B09E087F8BD50F4E787F863
:10271000BD60F1E70121EDE787ED140B97F8BD10DF
:1027200087F8BF1087F8BD0097F9C11081B1012962
:1027300011D097F8C21089B15FF0000187F8C0107E
:1027400097F8C01094ED180B51B187ED1A0B09E002
:1027500087F8C050F4E787F8C060F1E70121EDE7A2
:1027600087ED180B97F8C01087F8C21087F8C000E3
:1027700097F9C41081B1012911D097F8C51089B11A
:102780005FF0000187F8C31097F8C31094ED1C0B9D
:1027900051B187ED1E0B09E087F8C350F4E787F8C5
:1027A000C360F1E70121EDE787ED1C0B97F8C3103B
:1027B00087F8C51087F8C30097F9C71081B10129C0
:1027C00011D097F8C81089B15FF0000187F8C610E2
:1027D00097F8C61094ED220B51B187ED220B09E05A
:1027E00087F8C650F4E787F8C660F1E70121EDE706
:1027F00087ED200B97F8C61087F8C81087F8C60039
:1028000097F9CA1081B1012911D097F8CB1089B17D
:102810005FF0000187F8C91097F8C91094ED260BF6
:1028200051B187ED260B09E087F8C950F4E787F826
:10283000C960F1E70121EDE787ED240B97F8C91096
:1028400087F8CB1087F8C90097F9CD1081B101291D
:1028500011D097F8CE1089B15FF0000187F8CC1045
:1028600097F8CC1094ED240B51B187ED2A0B09E0B9
:1028700087F8CC50F4E787F8CC60F1E70121EDE769
:1028800087ED280B17F8CC1FB970387003B0BDEC7A
:10289000108BBDE8F08F00000148FEF78CBE0000F1
:1028A0001C01002070B59748ACB090F9C31001220C
:1028B000002561B101290DD090F8C51080F8C41031
:1028C00090F8C410904C41B190ED1E0B07E080F8D9
:1028D000C420F5E780F8C450F2E790ED1C0B4FF0F0
:1028E000FF3184ED020B80F8C41090F9C0305BB169
:1028F000012B0CD090F8C23080F8C13090F8C13074
:1029000043B190ED1A0B07E080F8C120F6E780F89C
:10291000C150F3E790ED180B84ED040B80F8C11063
:1029200090F9BD3063B1012B0DD090F8BF3080F825
:10293000BE3000BF90F8BE3043B190ED160B07E0FB
:1029400080F8BE20F6E780F8BE50F3E790ED140B58
:1029500084ED060B80F8BE1090F9B73063B1012BFF
:102960000DD090F8B93080F8B83000BF90F8B8308A
:1029700043B190ED0E0B07E080F8B820F6E780F841
:10298000B850F3E790ED0C0B84ED080B80F8B8100D
:10299000D4F8CC30C4F8C03090F9BA6066B1012EDA
:1029A0000DD090F8BC6080F8BB6000BF90F8BB60B1
:1029B00046B190ED120B07E080F8BB20F6E780F8F7
:1029C000BB50F3E790ED100B84ED0A0B80F8BB10C1
:1029D00090F9CC6066B1012E0DD090F8CE6080F8F1
:1029E000CD6000BF90F8CD6046B190ED2A0B07E0B6
:1029F00080F8CD20F6E780F8CD50F3E790ED280B76
:102A000084ED0C0B80F8CD1090F9C96066B1012EF1
:102A10000DD090F8CB6080F8CA6000BF90F8CA6013
:102A200046B190ED260B07E080F8CA20F6E780F863
:102A3000CA50F3E790ED240B84ED0E0B80F8CA101A
:102A400090F9C6601EB1012E04D090F8C82080F81D
:102A5000C72001E080F8C75090F8C72012B190ED70
:102A6000220B01E090ED200B84ED100B80F8C710D5
:102A7000D4F8D000C4F8C40094ED0A0B234A8DEDBD
:102A8000100B94ED100B64218DED0E0B94ED0E0BDD
:102A90008DED0C0B94ED0C0B8DED0A0B089094ED65
:102AA000020B12A88DED060B94ED080B8DED040BB7
:102AB00094ED060B8DED020B94ED040B98348DED27
:102AC000000B00F0A1FB12A801F04CFB2063462292
:102AD0000146E2870E48983C00F039FA0C4E3088E7
:102AE00020B1A4F8D450304600F02CFB96F820001A
:102AF00010B17088A4F8D400022086F820002CB011
:102B000070BD0000B8020020E0010020E84300088A
:102B1000E8080020F0B50268254C264D264E274FC8
:102B2000274B4FF0804CA04209D0604507D0A84207
:102B300005D0B04203D0B84201D0984204D122F06F
:102B4000700E4A6842EA0E02A0421BD0604519D0BE
:102B5000A84217D0B04215D0B84213D0984211D035
:102B6000184DA8420ED0184DA8420BD0174DA842C0
:102B700008D0174DA84205D0164DA84202D0164DD8
:102B8000A84203D122F44075CA682A434D6922F055
:102B900080022A4302608A68C2620A688262A04296
:102BA00001D0984201D10969016301214161F0BD61
:102BB000000001400004004000080040000C0040FC
:102BC0000004014000400140004401400048014031
:102BD00000180040001C00400020004010B501F02B
:102BE0001F030121046A99408C430462016A9A40E0
:102BF0001143016210BD10B5846842EA032224F437
:102C00007F440A432243826010BD0000F0B5026A8F
:102C100022F001020262036A42688469124E24F0C3
:102C200073050C682C4323F002058B682B430D4D74
:102C3000A84201D0B04205D123F00807CB683B433E
:102C400023F00403A84201D0B04205D14D6922F41B
:102C5000407215438A692A4342608461496841632E
:102C60000362F0BD0000014000040140F0B5026ABB
:102C700022F010020262026A436884690D6824F43B
:102C8000E64444EA05248D6822F0200242EA051257
:102C90000F4D104EA84201D0B04206D1CF6822F0AD
:102CA000800242EA071222F04002A84201D0B0425C
:102CB00007D14D6923F4406343EA85038D6943EAF4
:102CC000850343608461496881630262F0BD00004E
:102CD0000000014000040140F0B5026A22F4807255
:102CE0000262026A4368C46922F4007224F0730528
:102CF0000C68124E2C438D6842EA05220E4DA84204
:102D000001D0B04206D1CF6822F4006242EA072225
:102D100022F48062A84201D0B04207D14D6923F469
:102D2000405343EA05138D6943EA05134360C461C8
:102D30004968C1630262F0BD000001400004014027
:102D400030B5026A22F480520262046A4268C369A2
:102D50000D6823F4E64343EA05238D6824F4005408
:102D600044EA0534084DA84202D0084DA84204D1D7
:102D70004D6922F4804242EA85124260C36149688B
:102D80000164046230BD0000000001400004014005
:102D900030B40D4C002104F11405236855F82120AE
:102DA000824202D154F8213003E0491C89B205293E
:102DB000F4D3824205D1D3F88000002801D030BC82
:102DC000004730BC70470000DC03002010B50368EA
:102DD0009A6822F070044A68224322F007040A68C5
:102DE00022439A604A6812F00F0F30D11211082A5C
:102DF0002DD2DFE802F02C2C2C2C0B2127040B69A0
:102E0000D1E902210068FFF7F6FE20E00A68052AF2
:102E100010D00268136A146A24F001041462026874
:102E20009469096924F0F00444EA01119161006891
:102E300003620CE0012010BD0A698968006800F097
:102E400008F804E00A698968006800F053F8002077
:102E500010BD10B5036A046A24F001040462846999
:102E600024F0F00444EA021423F00A020A438461C5
:102E7000026210BD70B5046A24F001040462846922
:102E8000056A154EB04214D0B0F1804F11D0134EE8
:102E9000B0420ED0124EB0420BD0124EB04208D00B
:102EA000114EB04205D0114EB04202D0104EB04289
:102EB00003D124F00304144301E044F001041A0791
:102EC00024F0F00444EA126225F00A0301F00A013A
:102ED00019438261016270BD00000140000400409E
:102EE00000080040000C0040000401400040014088
:102EF0000018004010B5036A23F0100303628369D1
:102F0000046A23F4704343EA023224F0A00343EA44
:102F100001118261016210BD30B5046A24F0100411
:102F200004628469056A24F4407444EA022222F4AB
:102F300070444FF6FF7202EA03322243A02425F0C8
:102F4000A00304EA011119438261016230BDF0B5AA
:102F500000231C4617E0D0E90456B54201D106888B
:102F60009EB911F8017B6E1C06612F70D0E90456E2
:102F70005B1C9BB2B54208D0C668B54201D18568DA
:102F80000561641CA4B29442E5D3012180F82110AC
:102F90000188194489B2018090F82140022C02D1A5
:102FA0004488091B0180002180F82110934202D23D
:102FB0008188491C8180F0BD2DE9F04104460068FC
:102FC0000169E26821F44051114301612169A0685F
:102FD000E26908436169114308432168CA6849F2FC
:102FE0000C639A430243CA6020684169A26921F4D4
:102FF000407111434161E069192764253226B0F51B
:10300000004F354A354920684FF0000806D0884205
:1030100001D0904236D1FDF707FF35E0884201D05C
:10302000904202D1FDF700FF01E0FDF7EDFE61687F
:103030004A18A0FB070148EB0803FDF7C1F8014659
:10304000B0FBF5F00201B1FBF5F06FF01803584347
:1030500001EB800006EBC000B0FBF5F000F0F800DB
:1030600002EB4002B1FBF5F0584301EB800006EBA8
:10307000C000B0FBF5F000F0070021681044886044
:10308000BDE8F081FDF7C0FE61688B0F8A00A0FBF0
:103090000701FDF795F80146B0FBF5F06FF0180257
:1030A000504301EB800006EB0010B0FBF5F000F0A0
:1030B000F002B1FBF5F002EB0012B1FBF5F06FF09E
:1030C0001803584301EB800006EB0010B0FBF5F04D
:1030D00000F00F00D1E70000001401400010014093
:1030E0002DE9F041984617460E460446069D1DE020
:1030F000681C1BD02DB1FDF74BFDA0EB0800A842CA
:1031000014D92068C16821F4D071C1602068416978
:1031100021F001014161202084F8390084F83A004F
:10312000002084F838000320BDE8F08120680068A2
:1031300036EA000004D00020B842D9D00020F3E7DE
:103140000120F9E770B5044690F82000002825D04A
:103150002088002822D0002184F82010A2896169EB
:103160000F4B521A92B20125904206D860805B68DC
:10317000024604E0A16861610DE062805B68094875
:10318000FEF748FC84F82050608861690144616161
:10319000E2689142EED22188081A208070BD0000BA
:1031A000200000209C010020114800214FF40072F3
:1031B000018041808180C280A0F500720346C0E991
:1031C0000223026142610B4A82610B4AC261022200
:1031D00080F8202080F82110084AA2F1080109880F
:1031E00042F82100121D064842F8210070470000F5
:1031F000E80800204F2F0008453100082800002073
:103200009C010020FEE700000FB41CB50246002020
:1032100007AC00290BD0491ECDE90021054B6A46B9
:103220002146069800F010FA009A002111701CBC8B
:103230005DF814FB773D00080907090E002804DB40
:1032400000F1E02080F80014704700F00F0000F15A
:10325000E02080F8141D70472DE9F0412DED020BA0
:103260009FED3D0B2DED028B9FED3D8BDDE9025473
:10327000C4F30A50A0F2FF36142E37DA002E18DA03
:1032800053EC102B9DED020B51EC100BFCF7DBFF08
:1032900053EC182BFDF79EF957D2002CA4BF002445
:1032A000254652DA24F00040284318BF2E4C4CD05B
:1032B0001AE02E4820FA06F704EA070028431FD038
:1032C00053EC102B9DED020B51EC100BFCF7BBFFE8
:1032D00053EC182BFDF77EF937D2002C03DA4FF4AC
:1032E0008010F0400444BC4300252EE0332E07DC60
:1032F000A6F114004FF0FF3121FA00F73D4206D14C
:103300009DED020BBDEC028B02B0BDE8F08153ECE9
:10331000102B9DED020B51EC100BFDF738F853EC20
:10332000182BFDF757F910D2002C0DDA142E08BF18
:10333000641C09D0C6F13400012101FA00F02844D0
:10334000A84238BF641C0546BD43CDE902549DED3B
:10335000020BD7E7000000009C7500883CE4377E34
:1033600000000000000000000000F0BFFFFF0F00A1
:1033700010B52DED040B86B09DED060B10EE100A76
:1033800010EE901A8DED000B002818BF01200843A5
:1033900020F00040C0F17F6000F1E040C00F21D17B
:1033A0009DED080B10EE101A10EE900A8DED000B3B
:1033B000002918BF0121084320F00040C0F17F60C0
:1033C00000F1E040C00F0DD129490798B1EB400F43
:1033D00004BF0698002842D00998400004BF08980E
:1033E00000283CD09DED080B53EC102B9DED060BF7
:1033F00051EC100BFDF7AAF9CDE902019DED020B8E
:1034000040F2FF7110EE900A8DED000B31EA105082
:1034100021D00798039900F0004001F00041884254
:1034200019D09DED080B8DED040B9DED020B8DED7C
:10343000000B10EE900A059961F31E0005909DEDBA
:10344000041B9DED020B51EC110B53EC102BFCF700
:103450009EFFCDE902019DED020B0AB010BD0120D7
:1034600000F02AF80AB0BDE8104000F005B80000EE
:103470000000E0FF000000009FED050B10B553ECCD
:10348000102B51EC100BFCF7F7FF41EC100B10BDAB
:10349000000000000000000002E008C8121F08C180
:1034A000002AFAD170477047002001E001C1121FC5
:1034B000002AFBD1704700000149086070470000F6
:1034C000580000202DE9FF5F82B00021DDE90430C3
:1034D000020DDDF840B0034318D044F61050A2F2BC
:1034E000FF3242431514119801281FD0A5EB0B00A1
:1034F000401C5FEA000A4FF000064E4FDFF838919B
:10350000B046504615D5CAF1000413E011980124C5
:103510004AA3012801D16FEA0B010298119AC0E970
:103520000031C0E9024206B0BDE8F09FCBF10000D7
:10353000DFE704460021404A491842EB0450CDE938
:10354000001012E0E00707D032463B4640464946AD
:10355000FCF720FF8046894632463B461046194616
:10356000FCF718FF06460F466410002CEAD1DDE98F
:103570000401DDE90023BAF1000F06DAFCF70AFFC7
:1035800042464B46FCF706FF05E0FCF775FF424656
:103590004B46FCF771FF04460E460022284BFDF710
:1035A00019F803D84FF0FF30014607E00022254B01
:1035B00020463146FCF747FEFDF70BF9102409E0E1
:1035C000002C0ADB0A220023FCF7FAFD039B3032B1
:1035D0001A55641E50EA0102F2D1641C039AC4F128
:1035E00011031444119A012A03D0012208430DD17A
:1035F0000AE0084304D000204FF0110B119072E74D
:10360000A3EB0B056D1E0DE05B4504DD4FF00002E2
:1036100005F1010504E003DA4FF00002A5F1010510
:10362000002AECD002981199C0E90231C0E90045A6
:1036300079E70000000014400000F03F3000000077
:103640000000F0430000E03F2DE9FF4F95B09B469E
:103650008946064600250FE2252877D10024274613
:10366000F84A0121059400E0044316F8013F203B8D
:1036700001FA03F01042F7D130782A2811D06FF008
:103680002F033078A0F13002092A16D8059A44F0A9
:10369000020402EB820203EB42021044761C059006
:1036A000EFE759F8042B0592002A03DA504244F45C
:1036B0000054059044F00204761C30782E2816D170
:1036C00016F8010F44F004042A280DD06FF02F02E1
:1036D0003078A0F13003092B09D807EB870302EB00
:1036E0004303C718761CF3E759F8047B761C30783F
:1036F0006C280FD006DC4C2817D068280DD06A281B
:1037000014D104E0742810D07A280FD10DE044F4CD
:1037100000140AE044F4801401E044F44014727888
:10372000824202D104F58014761C761C307866281B
:103730000BD013DC582877D009DC002875D0452839
:10374000F6D04628F4D047281AD19DE118E0632826
:1037500035D0642879D0652812D195E1702873D0CE
:1037600008DC6728F1D069286FD06E280DD06F284B
:1037700006D1B5E073282CD0752875D0782874D080
:103780005A46179990476D1C75E1C4F30250022800
:1037900009D003280DD0D9F8001004280DD00D60F1
:1037A00009F1040967E1D9F80010EA17C1E90052EC
:1037B000F6E7D9F800100D80F2E70D70F0E719F880
:1037C000041B8DF8001000208DF80100EA4601204E
:1037D00003E059F804AB4FF0FF3061074FF00001F0
:1037E00002D40DE008F101018846B9420FDA8045A4
:1037F000F8DB1AF808100029F4D108E008F10101FB
:1038000088468142FADB1AF808100029F6D105989B
:103810005B46A0EB080721463846179A00F094FA59
:10382000284400EB080507E04DE029E10DE01AF817
:10383000010B5A4617999047B8F10108F7D25B4639
:1038400021463846179A13E142E00A220092C4F357
:1038500002524FF0000A022A08D059F804CB032A7A
:103860004FEAEC710AD00DE029E02AE009F10701E6
:1038700021F00702F2E802C1914609E00FFA8CFC40
:103880004FEAEC71042A03D14FFA8CFC4FEAEC7139
:10389000002907DA0A460021DCF1000C61EB020185
:1038A0002D2202E0220504D52B228DF804200122CE
:1038B00003E0E20701D02022F7E7904659E00A2111
:1038C00002E010220DE010214FF0000A00910BE001
:1038D00010224FF0000A44F004040827009203E08D
:1038E00008224FF0000A0092C4F30252022A05D0C7
:1038F00059F804CB0021032A08D009E009F1070197
:1039000021F00702F2E802C1914605E01FFA8CFCA3
:10391000042A01D10CF0FF0C4FF00008220728D533
:10392000702806D0009B83F0100353EA0A0305D0E9
:103930000EE040228DF80420012208E05CEA01023A
:1039400006D030228DF804208DF805000222904622
:10395000009B83F0080353EA0A030AD15CEA0102E0
:1039600001D1620705D530228DF804204FF00108FF
:103970007F1E582804D034A003900EA802900DE0BA
:1039800036A0F9E753466046009AFCF719FC8446D6
:103990000398825C0298401E029002705CEA01006B
:1039A000F0D1029806A9081A00F1200A600702D592
:1039B00024F4803400E00127574502DDA7EB0A001C
:1039C00000E0002000EB0A01009005984144401AF5
:1039D0000590E00306D45B462146179A059800F04F
:1039E000B3F90544002706E001A85A46C05D1799BF
:1039F00090476D1C7F1C4745F6DBE0030CD55B460A
:103A00002146179A059800F09FF9054404E03020FC
:103A10005A46179990476D1C0099481E009000293E
:103A2000F5DC08E0029802995A460078491C029198
:103A3000179990476D1CBAF10001AAF1010AF1DC57
:103A400065E1000009280100303132333435363762
:103A500038396162636465660000000030313233DA
:103A6000343536373839414243444546000000007A
:103A700000F058F90544761C307800287FF4ECAD4E
:103A800019B02846BDE8F08F620700D4062709F177
:103A9000070222F0070CFCE80223E14603F000488D
:103AA0005FEA080C02D00FF2702C0DE05FEA045CB4
:103AB00002D50FF2682C07E05FEAC47C02D00FF257
:103AC000602C01E0AFF2700C4FF0FF3823F00043A0
:103AD000CDF850C065280CD006DC452809D0462812
:103AE0001DD047283DD13DE0662818D067287ED1FB
:103AF00038E00021112F01DB112000E0781CCDE916
:103B0000000106A90EA8FFF7DDFCDDE90F010E9A02
:103B100003910021009207F1010A04914DE04FF05A
:103B200000400097CDE9011006A90EA8FFF7CAFCD6
:103B3000DDE90F0203920E9B11990022DDF80CA023
:103B40000093049211B9791C00EB010AB7EB0A004B
:103B500004D4C0F1FF3007F1010A0490AAEB07007A
:103B6000019044E0012F00DA01270021112F01DD2F
:103B7000112000E03846CDE9000106A90EA8FFF7A4
:103B8000A1FCDDE90F010E9A03910021049100923E
:103B9000BA4621070CD40399514500DA8A46BAF196
:103BA000010F05DD009AAAF10101515C302908D00E
:103BB000B84202DA10F1040F06DA0121CDE9011052
:103BC00015E0AAF10101E9E7002805DC04990144A8
:103BD0000491AAEB000102E0411C514500DD8A4638
:103BE0000499401A401C01904FF0004002902007B9
:103BF00004D40198504501DBCDF8048000208DF8F5
:103C00004F0002980DF14F07B0F1004F25D02B2047
:103C10000E9002984FF0020800280CDA4042029001
:103C20002D200E9007E00A210298FCF7EBFC3031C2
:103C3000029007F8011DB8F10001A8F10108F2DCBB
:103C400002980028EFD1791E0E980870307800F0A5
:103C5000200040F0450007F8020D12A8C01B00F13B
:103C600007081498007800B1012000EB0A010198C0
:103C700001EBE07105984144401A401E0590E003B5
:103C800006D45B462146179A059800F05DF8054476
:103C90001498007818B15A46179990476D1CE003A4
:103CA00024D55B462146179A059800F04DF8054447
:103CB0001CE00498002807DBDDE90301884203DDEE
:103CC0000098405C179901E0179930205A469047B8
:103CD000049805F10105401C04900198401E0190D4
:103CE00004D12E205A46179990476D1CBAF1000155
:103CF000AAF1010ADDDC05E017F8010B5A46179915
:103D000090476D1CB8F10001A8F10108F4DC5B4696
:103D10002146179A0598ABE62D0000002B00000005
:103D2000200000002DE9F041044600251E461746FC
:103D3000880404D405E039462020B0476D1C641E79
:103D4000F9D52846BDE8F0812DE9F041044600256B
:103D50001E469046C80301D5302700E0202788047E
:103D600004D505E041463846B0476D1C641EF9D5C0
:103D70002846BDE8F0814A68002A06D00A68531C2C
:103D80000B6010704868401E486070472DE9F05F76
:103D9000082000F0FDFAD9480024D821006804600A
:103DA00044608460D648FCF743FAD548D821D8301F
:103DB000FCF73EFAD54EDFF85093DFF85883318890
:103DC000D048D34B49F8210048F82130491C3180B4
:103DD000DFF844B342F2CF01C0E9001B092542F2EB
:103DE0001071C0E902518461C46104624FF47A71B8
:103DF00044620161057545758575C575C0F88440D7
:103E0000C0F88840C0F88C40C449C0F89040C0F861
:103E10008010194642F2CF0009688862184600688F
:103E2000C56218460121C560FDF7F3FA3188BC4828
:103E3000BC4A49F8210048F82120491C318040F251
:103E4000473740F2E7310760C0E901B1B649C160C8
:103E50008461C46104626421446201610575457531
:103E60008575C575C0F88440C0F88840C0F88C409E
:103E7000AE49C0F89040C0F88010106887621168A1
:103E800040F2E730C862D06001211046FDF7C1FA68
:103E90003288A748A74949F8220048F82210521C46
:103EA000328040F2CF720760C0E901B29E4AC26020
:103EB0008461C4610462322244620261A0F85C4001
:103EC000A0F85E40A0F86040A0F86240012280F8AF
:103ED0007C20C46204634463A0F86440A0F8664098
:103EE000A0F86840A0F86A4080F87D208463C4632D
:103EF00005220464027542758575C575C0F8804059
:103F0000C0F88440C0F88840C0F88C40C0F89040A9
:103F1000086887620A684FF6FF7AC2F82CA0C1F8D9
:103F20000CA00868026822F4407202600868026807
:103F300002600C6101217F48FDF76BFA31887E4AEF
:103F40007E4849F8212048F82100491C318011465B
:103F50000F6040F2CF71C2F804B091607249D16035
:103F60003221116111468C61CC610C624C62A1F866
:103F70005C40A1F85E40A1F86040A1F862400121D8
:103F800082F87C101146CC620C634C6305211175DC
:103F900011464D758D75CD75C1F88040C1F88440CE
:103FA000C1F88840C1F88C40C1F8904001688F6228
:103FB0000268C2F82CA0C0F80CA001680A6822F4BC
:103FC00040720A6001680A680A6001210461FDF715
:103FD00020FA32885A485B4949F8220048F82210F2
:103FE000521C328040F61F5202604FEA4B02426080
:103FF000632282604CF25032C2608461C461046208
:104000004FF4FA72446202610122027542758575AD
:10401000C575C0F88040C0F88440C0F88840C0F83A
:104020008C40C0F890400A6840F61F5090620A68C1
:104030006320D062C8600A683120506309688863D1
:1040400001214048FDF7E5F9FFF7AEF83F493E484A
:1040500008602F48FDF7CCF92D48FDF7C9F9314824
:10406000FDF7C6F92F48FDF7C3F9324890F83D1027
:104070000229FBD000212F48FDF78BFA2F4800BF03
:1040800090F83D100229FBD000212C48FDF781FA61
:104090002C4C00BF94F83D000228FBD00021294899
:1040A000FDF700FC94F83D000228FBD004212548D0
:1040B000FDF7F8FB12484FF0FF31D83000F8B41F7D
:1040C0004170C17001718171C1714172817201735E
:1040D0004173C17301748174C17441758175017636
:1040E00041760021054AC176017711681268496856
:1040F000916040F8041CBDE8F09F0000E443000814
:10410000E001002004040020DC0300201C0000204B
:10411000DC000020F003002000BD0105CD1D0008DB
:10412000980400201C010020A0860100A52800089A
:104130002C0500205C000020C00500209C00002011
:10414000540600205C0100202D0800089C0300207C
:104150000348016800684968491C416070470000D5
:10416000E4430008704700002DED028B82B0FCF79D
:104170001DFDFDF7D3FDFDF7ABFCFDF70DFDFDF7D4
:1041800045FD00244448009442490194C0E90014CC
:104190008460C4608461FDF793F8009469463E48EA
:1041A0000194FDF745F83C483C49803001604FF4EC
:1041B000E131C0E901140C21C460C0E9044184610B
:1041C000C461FDF7BFFB3448009440383449019482
:1041D000C0E900148460C4608461FDF771F82E4862
:1041E0000094694640380194FDF722F8FDF748FD38
:1041F0002C4E3068FCF7AFF99FED2B8B53EC182B4E
:10420000FCF73AF9FCF7B4F9FDF768FD284D0127F2
:1042100040B36F604FF080783068FCF79CF98946B6
:1042200006466868401C686049EC106B53EC182B1C
:1042300051EC100BFCF720F9FCF79AF96968B0FB18
:10424000F1F04045EDD249EC106B53EC182B51ECDA
:10425000100BFCF711F9FCF78BF96968B0FBF1F072
:10426000FDF73CFD6868A860114E3470FFF78EFDC5
:10427000DFF84080A8680028FCD16868A860307822
:1042800018B1D8F800000CA101603770FFF760FF8B
:104290003470EFE7001400401C010020004800408B
:1042A00000100040180000200000000000408F4077
:1042B00000000020E44300084F76657272756E00BE
:1042C0001CB503480190002000909DED000B1CBD23
:1042D0000000F07F4FF0FF4000EE100A7047000032
:1042E0001CB503480190002000909DED000B1CBD03
:1042F0000000F0FF014800EE100A7047000080FF48
:104300001CB503480190002000909DED000B1CBDE2
:104310000000F8FF014800EE100A70470000C0FFDF
:1043200010B50F4C2DED028BB0EE408AF0EE608A96
:1043300094ED040B51EC180B53EC102BFCF732F9F5
:1043400008D094ED060B51EC180B53EC102BFCF736
:1043500029F903D10120BDEC028B10BD0020FAE742
:10436000300000201CB510EE900A8DED000BC0F35C
:104370000A50A0F5E061FF3908D110EE900A000361
:1043800002D110EE100A08B101201CBD00201CBD96
:1043900010B5FFF7B5FF0C4C84ED080BFFF7BAFF23
:1043A00084ED020AFFF78CFF84ED040BFFF792FF08
:1043B00084ED000AFFF794FF84ED060BFFF79AFFE8
:1043C00084ED010A10BD0000300000200000000054
:1043D00000000000010203040607080900000000B5
:1043E000010203049003002025752C25352E32662A
:1043F0002C25352E32662C25352E32662C25352E71
:1044000032662C25752C25352E32662C25352E321C
:10441000662C25352E32662C25352E32660D0A0087
:1044200040440008000000205C00000098340008B0
:104430009C4400085C000020B40C0000A834000874
:104440000000000001000000010000000100000069
:1044500010000000000000000024F4000000000034
:10446000000000000A000000000000000000000042
:10447000000000000000000000000000000000003C
:10448000000000000000000000000000000000002C
:0C44900000000000000000000000000020
:040000050800018965
:00000001FF
