:020000040800F2
:10000000580500209D010008A5010008A70100086F
:100010001D140008C9040008711800080000000041
:100020000000000000000000000000003D14000877
:10003000CB040008000000001F1400086D14000825
:10004000B7010008B7010008B7010008B7010008B0
:10005000B7010008B70100084D050008B701000806
:10006000B7010008B7010008B7010008B701000890
:10007000B7010008B7010008B7010008B701000880
:10008000B7010008B7010008B7010008B701000870
:10009000B7010008B7010008B7010008B701000860
:1000A000B7010008B7010008B7010008B701000850
:1000B000B7010008B7010008B7010008B701000840
:1000C000B7010008B7010008B701000821140008B3
:1000D000B7010008B7010008B7010008D9170008E8
:1000E000B7010008B7010008B7010008B701000810
:1000F000B7010008B7010008B7010008B701000800
:10010000B7010008B7010008B7010008B7010008EF
:10011000B7010008B7010008B7010008B7010008DF
:10012000B7010008B7010008B7010008B7010008CF
:10013000B7010008B7010008B7010008B7010008BF
:10014000B7010008B7010008B7010008B7010008AF
:10015000B7010008B7010008B7010008B70100089F
:10016000B7010008B7010008B7010008B70100088F
:10017000B7010008B7010008B7010008000000003F
:10018000B7010008B7010008DFF80CD000F08AF9C9
:1001900000480047BD1C000858050020064880475D
:1001A00006480047FEE7FEE7FEE7FEE7FEE7FEE75C
:1001B000FEE7FEE7FEE7FEE70515000889010008F7
:1001C0002DE9F05F0546002092469B46884606468C
:1001D000814640241BE0284641464746224600F01F
:1001E000F3F853465A46C01A914110D311461846A7
:1001F000224600F0DAF82D1A67EB01084F46224636
:100200000120002100F0D1F817EB00094E41201E1B
:10021000A4F10104DFDC484631462A464346BDE8E6
:10022000F09FD2B201E000F8012B491EFBD27047CB
:100230000022F6E710B513460A4604461946FFF7B2
:10024000F0FF204610BD421C10F8011B0029FBD115
:10025000801A70472DE9F04D81EA030404F0004B49
:1002600021F0004514464FF0000A23F0004150EA07
:10027000050220D054EA01021DD0C5F30A570246F8
:10028000C5F31303C1F31300C1F30A5640F48015FC
:1002900043F48013A7EB0608101BD64608F2FD387E
:1002A00073EB050002D308F1010801E092185B41ED
:1002B000B8F1000F03DA00200146BDE8F08D002000
:1002C0004FF48011064684460EE0171B73EB0507BA
:1002D00005D3121B63EB050306434CEA010C4908E6
:1002E0004FEA300092185B4150EA0107EDD152EA23
:1002F000030012D082EA040083EA0501084305D016
:10030000101BAB4106D20122002306E000224FF071
:10031000004302E06FF0010253101AEB06004CEBB1
:10032000085110EB0A0041EB0B01BDE8F04D00F065
:100330005BB80EB540F2334102910021CDE90011C6
:100340000A460B4600F05FF803B000BDC1F30A5245
:1003500010B5C1F3130140F2FF3341F480119A420A
:1003600001DA002010BD40F233439A42A2F2334238
:1003700003DC524200F028F810BD904010BD30B5AB
:100380000B46014600202022012409E021FA02F553
:100390009D4205D303FA02F5491B04FA02F52844ED
:1003A000151EA2F10102F1DC30BD202A04DB203A47
:1003B00000FA02F1002070479140C2F1200320FAB8
:1003C00003F3194390407047202A04DB203A21FAB6
:1003D00002F00021704721FA02F3D040C2F120025E
:1003E000914008431946704710B5141E73F100047C
:1003F00008DA401C41F1000192185B411A4301D117
:1004000020F0010010BD2DE9F04D92469B4611B140
:10041000B1FA81F202E0B0FA80F220329046FFF7A2
:10042000C4FF04460F4640EA0A0041EA0B01534666
:100430005A46084313D0114653EA010019D0C8F1B7
:1004400040025046FFF7C0FF05460E46504659464B
:100450004246FFF7AAFF084305D0012004E02046EA
:100460003946BDE8F08D0020054346EAE0762C438E
:1004700037430A986305E40AA0EB08000022FD0A4E
:1004800044EA47540A3002D500200146E9E7010555
:1004900010196941DDE9084500196941BDE8F04DD1
:1004A000A2E70000064C074D06E0E06840F00103BB
:1004B00094E8070098471034AC42F6D3FFF768FE83
:1004C000441F0008641F0008FEE7704730B589B07C
:1004D00001F08AFC01F0D2FB044601F0D9FB05468D
:1004E00001F0E0FBCDE900502346144A172102A891
:1004F00001F0C0F902A801F0DFFB114C206002A856
:10050000FFF7A1FE0204120CE28003D00D4821681F
:1005100001F006F80B4D288820B10020A080284665
:1005200001F060F995F8200008B16888A0804FF4C8
:100530008051054800F05CF909B030BD341F000857
:100540002400002030010020000C0240012000F0B7
:1005500067B890F83510022903D080214165012049
:100560007047052180F835100068016821F001010D
:1005700001600020704700000021B0F5807F37D077
:1005800010DC10282CD006DC022823D0042823D02D
:1005900008283CD122E0202824D0402824D08028DC
:1005A00035D123E0B0F5805F2AD009DCB0F5007FBB
:1005B00020D0B0F5806F1FD0B0F5006F27D11DE0BF
:1005C000B0F5005F1ED0B0F5804F1DD0B0F5004FE4
:1005D0001DD11BE001211AE0022118E0032116E0E1
:1005E000042114E0052112E0062110E007210EE0AD
:1005F00008210CE009210AE00A2108E00B2106E0AD
:100600000C2104E00D2102E00E2100E00F2103483F
:1006100050F82100002800D000477047D800002083
:10062000044910B50A68024202D00860FFF7A4FF2F
:1006300010BD0000143C01402DE9F84F00224FF09E
:10064000010803254FF00F0E0B6808FA02F423404F
:10065000A3426ED14E68012E05D0022E03D0112E7A
:1006600001D0122E12D186684FEA420C05FA0CF71F
:10067000BE43CF6807FA0CF7374387604668A64346
:100680000C79C4F30014944034434460C6685700A6
:1006900005FA07FC8C6826EA0C06BC403443C460AB
:1006A0004C68022C01D0122C13D1D40800EB840426
:1006B000A346D4F8209054074FEAD46A0EFA0AF6FB
:1006C00029EA06090E6906FA0AF646EA0906CBF88F
:1006D000206006680C7926EA0C0604F00304BC408E
:1006E000344304604C68E40065D5364C266846F413
:1006F00080462660246822F0030604F480440094B7
:10070000314C3444A446D4F808489607370F0EFA03
:1007100007F6B4432D4EB04201D1002624E02C4E02
:10072000B04201D101261FE02A4EB04202D102267A
:100730001AE040E0284EB04201D1032614E0274ED3
:10074000B04201D104260FE0254EB04201D105266A
:100750000AE0244EB04201D1062605E0224EB04206
:1007600001D1072600E00826BE402643CCF80868E1
:100770001E4E34684F689C43FF0300D51C43346011
:100780001A4C241D26684F689E43BF0300D51E43A4
:100790002660164E083634684F689C43FF0200D529
:1007A0001C433460114E0C3634684F689C43BF02C2
:1007B00000D51C433460521C102AFFF445AFBDE83D
:1007C000F88F000044380240003001400000024031
:1007D0000004024000080240000C024000100240E9
:1007E0000014024000180240001C0240003C01407E
:1007F000426931EA020200D10904816170470AB1FD
:10080000816170470904FBE7014880687047000078
:100810000C00002002488168027811448160704712
:100820000C0000200B4810B5016841F40071016014
:10083000016841F480610160016841F480710160E8
:10084000032000F071F8002000F006F800F024F812
:10085000002010BD003C024070B50D4D04464FF421
:100860007A712878B1FBF0F00A490968B1FBF0F021
:1008700000F000FC48B9102C07D200222146501E7F
:1008800000F032F800206C6070BD012070BD0000E7
:100890000C000020180000200B4882B0016841F4D1
:1008A00080410160006800F4804000900648001F0D
:1008B000016841F080510160006800F080500090B4
:1008C000072002B000F030B844380240002809DBAD
:1008D00000F01F02012191404009800000F1E0205A
:1008E000C0F8001170470000F0B40E4B1B680C46B6
:1008F000C3F30223C3F10705042D00D90425191DF4
:10090000072901D2002300E0DB1E012606FA05F1CB
:10091000491E214099409E40761E16403143F0BC4E
:1009200000F0C0BF0CED00E0064900F007020868C7
:100930004FF6FF03184040EA0220034A10430860C4
:10094000704700000CED00E00000FA052DE9F047CB
:100950000E46050065D0DFF81481D8F80000F7B224
:1009600000F00F00B04207D288F80070D8F80000FD
:1009700000F00F00B04254D128683D4C810712D5D9
:10098000400703D5206840F4E05020602878000735
:1009900003D5206840F4604020602068A96820F0FA
:1009A000F000084320602878C0072DD030496868DF
:1009B0000839012812D0022813D0032811D0096861
:1009C000890700292DDA216821F003010143216004
:1009D000FFF71AFF814641F2883A0EE00968890361
:1009E000EFE709688901ECE7FFF70EFFA0EB0901CB
:1009F000514502D90320BDE8F0872068696800F0FE
:100A00000C00B0EB810FEFD1D8F80010404601F098
:100A10000F01B14207D90770006800F00F00B04223
:100A200001D00120E7E72878400705D52068E9686C
:100A300020F4E050084320602878000706D520689D
:100A4000296920F4604040EAC100206000F038F8D5
:100A50002168084AC1F30311515CC8400649086087
:100A600006480068FFF7F8FE0020C4E7003C02409B
:100A700008380240181F000818000020100000204D
:100A80000448054900680968044AC1F38221515CA1
:100A9000C84070471800002008380240281F00088E
:100AA0000448054900680968044AC1F34231515CB1
:100AB000C84070471800002008380240281F00086E
:100AC000154810B5006810F00C02144813D04110FE
:100AD000042A0FD0082A0ED10F4C241F2268236845
:100AE00002F03F025B0207D52068C0F38810A0FB2C
:100AF000010106E0084610BD2168C1F38811A1FB81
:100B000000010023FFF75CFB2168C1F30141491C90
:100B10004900B0FBF1F010BD083802400024F40099
:100B20002DE9F84F04006ED02078DFF83C93C00721
:100B3000A9F104054AD009F104000168C1F381015B
:100B4000012908D00068C0F3810002280AD1D9F831
:100B50000000400206D52868800337D56068002869
:100B6000E1D033E06068B0F5803F10D0B0F5A02F41
:100B7000286810D020F480302860286820F4802075
:100B800028606068A8B1FFF73FFE06460DE02868C0
:100B900040F48030F4E740F480202860F7E700BF9D
:100BA000FFF732FE801B642873D828688003F7D5CE
:100BB0000CE0FFF729FE064605E000BFFFF724FE24
:100BC000801B6428F0D828688003F7D42078DFF8E9
:100BD0009C8280074FF0000A3ED5A348001D0168A3
:100BE00011F00C0F08D00068C0F3810002280BD16F
:100BF000D9F80000400207D42868800716D5E068BD
:100C0000012800D112E02BE1E068B8B10120C8F85A
:100C10000000FFF7F9FD064605E000BFFFF7F4FD11
:100C2000801B0228C0D828688007F7D5286821696A
:100C300020F0F80040EAC10028600DE0C8F800A0EC
:100C4000FFF7E2FD064604E0FFF7DEFD801B022809
:100C50001FD828688007F7D42078000722D5824E55
:100C600083486169703671B101210160FFF7CCFDE5
:100C7000074604E0FFF7C8FDC01B022809D830680A
:100C80008007F7D50EE0C0F800A0FFF7BDFD0746CE
:100C900005E082E0FFF7B8FDC01B02287DD8306870
:100CA0008007F7D42078400768D5DFF8BCB100276B
:100CB0000BF13C0BDBF80000C0000BD4DBF800109C
:100CC00041F08051CBF80010DBF80000012700F064
:100CD00080500090674E3068C00510D4306840F4F2
:100CE00080703060FFF790FD009005E0FFF78CFD0D
:100CF0000099401A022850D83068C005F6D55A4EDF
:100D0000A0686C3601280FD00528306810D020F07C
:100D100001003060306820F004003060A068B8B195
:100D2000FFF772FD00900FE0306840F00100F4E73B
:100D300040F004003060F7E7FFF766FD0099411AC4
:100D400041F28830814266D830688007F4D50EE0E1
:100D5000FFF75AFD009007E0FFF756FD0099411A92
:100D600041F28830814256D830688007F4D42FB1E0
:100D7000DBF8001021F08051CBF80010A069C8B357
:100D80003949091D0968C1F3810102294AD00228A5
:100D9000504607D0C8F8600000E03CE0FFF734FDA3
:100DA00004463BE04746C8F86000FFF72DFD0646C5
:100DB00005E000BFFFF728FD801B02282BD828681C
:100DC0008001F7D4D4E907010843A16A2A4A4908F7
:100DD00002EB0141626A41EA8211084394F82C1047
:100DE00040EA0161C9F8001001203866FFF70CFDE8
:100DF000044606E036E000BFFFF706FD001B0228B0
:100E000009D828688001F7D52CE000BFFFF7FCFC6B
:100E1000001B022802D90320BDE8F88F2868800152
:100E2000F4D41FE00128F7D0D9F80000E26900F4FB
:100E30008001914214D1226A00F03F0191420FD10A
:100E400047F6C071626A0140914209D1A26A00F47A
:100E50004031914204D1E16A00F07060884201D0D3
:100E60000120D9E70020D7E70438024000004742BC
:100E7000800E4742007000400000FFFF70470000F6
:100E800038B5016804464A688868C043430606D5F9
:100E9000C30704D1D3435B0601D4216C05E083076B
:100EA00008D4D3431B0605D4616C01B02046BDE8CD
:100EB00030400847830603D5430601D5C30551D406
:100EC000D3439B064ED443060AD494F85130032BE7
:100ED00049D0636D43F004036365CB688B6800936E
:100EE000830609D4636D43F0010363658B68009347
:100EF0000B6823F040030B60C00506D4606D40F022
:100F000008006065206880680090606D002829D026
:100F10002068416821F0E0014160012084F851001F
:100F2000900701D4D00722D02068416821F0030146
:100F30004160114DE06C40B10565E06CFFF709FBC5
:100F400018B1606D40F040006065A06C002809D0C9
:100F50000565A06CFFF7FDFA002803D0606D40F036
:100F60004000606538BDC8688868009038BD20467C
:100F7000FFF784FF38BD00002D14000870B5040091
:100F800005D00025A56294F8510010B106E00120BB
:100F900070BD84F85050204600F030F8022084F8EC
:100FA00051002068016821F040010160D4E901018D
:100FB0000843D4E903121143084361690843218BB4
:100FC00001F400710843E1690843216A0843A16AFA
:100FD000084321680860A069042101EA1040616AA1
:100FE0000843216848602068C16921F40061C1613B
:100FF0006565012084F85100002070BD10B586B0F1
:10100000044614216846FFF713F9174920688842FF
:1010100028D116480021026842F48052026000681C
:1010200000F48050059011481438026842F0010223
:101030000260006800F001000590E02000900220AE
:10104000CDE901010320039005200490694608487A
:10105000FFF7F2FA002211462320FFF745FC232078
:10106000FFF734FC06B010BD0030014044380240A8
:101070000000024010B5401EB0F1807F01D3012076
:1010800010BD4FF0E02460610F21601700F00AFCF2
:101090000020A06107202061002010BD70470000E3
:1010A00070B5026804461068D168536910F00F0FDC
:1010B00052D003F0010501F490762E435FD0C207B1
:1010C00005D0CA0503D5E26B42F00102E263420794
:1010D00005D5DA0703D0E26B42F00202E263820731
:1010E00005D5DA0703D0E26B42F00402E26302079F
:1010F00007D501F020022A4303D0E26B42F0080238
:10110000E263E26B002A33D0800604D5880602D55C
:10111000204600F050FA20684069E16BC0F380106F
:10112000090700D428B3204600F037FA2068416947
:1011300049061AD5416921F040014161606BA0B1B7
:101140001B490165606BFFF704FA002810D0606B43
:10115000016DBDE870400847830610D58B060ED59B
:101160002046BDE8704000F026BA2046FFF796FF03
:1011700070BD2046FFF792FF0020E06370BD0306BC
:1011800006D50B0604D52046BDE8704000F0F2BA43
:101190004006F3D54806F1D5D168204621F040013C
:1011A000D160202184F8391000F094F870BD00005F
:1011B0008B15000870B5040004D094F839000025A0
:1011C00010B106E0012070BD84F83850204600F0D0
:1011D00023F8242084F839002068C16821F40051E4
:1011E000C160204600F032FA2068016921F4904184
:1011F00001612068416921F02A0141612068C168CC
:1012000041F40051C160E563202084F8390084F87E
:101210003A00002070BD000010B586B004461421CD
:101220006846FFF705F818492068884229D1174811
:101230000021026842F480220260006800F48020ED
:10124000059012481038026842F0080202600068F7
:1012500000F0080005904FF4407000900220CDE9A6
:101260000101032003900720049069460848FFF716
:10127000E3F9002211462720FFF736FB2720FFF76E
:1012800025FB06B010BD0000004800404038024079
:10129000000C0240704790F83930202B18D1A9B1CA
:1012A000A2B190F83830012B12D001628284C2843E
:1012B0000021C163212280F8392080F838100068AD
:1012C000C16841F08001C160002070470120704773
:1012D000022070470F4A0F49121D126809688242A6
:1012E00011D1012081F820004A88486910444861E2
:1012F000CA68904201D38868486191F8210018B10A
:10130000022081F82100704708884A88801A0880E6
:1013100070470000380000202DE9F04186B014210C
:101320006846FEF785FF2B480024016841F0100154
:101330000160016801F010010591016841F0800130
:101340000160016801F080010591016841F001012F
:101350000160016801F001010591016841F0080197
:1013600001600068DFF8708000F00800059001223D
:1013700008214046FFF743FA184F4FF47046002209
:1013800031463846FFF73BFA082000900125CDE9A9
:101390000154694640460394FFF74EF90096CDE9A3
:1013A0000154694638460394FFF746F90C48009506
:1013B000CDE9010469464046FFF73EF90022114697
:1013C0000620FFF791FA0620FFF780FA06B0BDE885
:1013D000F08100003038024000100240000C024052
:1013E000000011100C480B494FF4006201604FF4EB
:1013F000827141600021C0E9021292100161C0E9CE
:1014000005122022C0E90721416281620A21C162DE
:10141000FFF7B4BD0030014040000020FEE77047F8
:101420000148FFF72DBD00004000002010B5806B83
:101430000021C187C186FFF721FD10BD7047000064
:10144000401EB0F1807F01D3012070474FF0E021B2
:101450004861054AF02082F8140D002088610720B9
:1014600008610020704700000FE000E003480168B9
:1014700011B10168491E0160FFF7CCB908000020D6
:1014800030B593B030216846FEF7D2FE14210CA887
:10149000FEF7CEFE19480025016841F08051016039
:1014A000006800F0805011901548016841F48041B7
:1014B00001600068022400F4804011900120009037
:1014C000000401908001CDE9064004200890A82086
:1014D000CDE9090407200B906846FFF721FB0CA912
:1014E0000F2081E831004FF4A0500F90E0021090DF
:1014F00005210CA8FFF72AFA13B030BD403802408E
:10150000007000400548016841F470010160034922
:101510004FF00060803908607047000088ED00E0FF
:10152000F0B500231C4617E0D0E90456B54201D1BE
:1015300006889EB911F8017B6E1C06612F70D0E9F8
:1015400004565B1C9BB2B54208D0C668B54201D1B7
:1015500085680561641CA4B29442E5D3012180F83A
:1015600021100188194489B2018090F82140022C91
:1015700002D14488091B0180002180F82110934288
:1015800002D28188491C8180F0BD10B5806B00219A
:10159000C185C184FFF782FD10BD0168CA6822F4CD
:1015A0009072CA6001684A6922F001024A612021F2
:1015B00080F83A10704710B590F83A10222901D0FF
:1015C000022010BD8168B1F5805F11D0016900294A
:1015D00001681FD0496801F07F03816A4A1C82625A
:1015E0000B70C18D491E0904090CC18518D02BE070
:1015F0000269816A002A0268526805D0D2B20A8064
:10160000816A491C8162ECE7C2F308020A80816AA0
:10161000891CF7E74A68816A4B1C83620A70E0E71D
:101620000168CA6822F02002CA600168CA6822F410
:101630008072CA6001684A6922F001024A61202171
:1016400080F83A10FFF726FE002010BD2DE9F0418A
:10165000044600680169E26821F4405111430161C8
:101660002169A068E2690843616911430843216860
:10167000CA6849F20C639A430243CA602068416910
:10168000A26921F4407111434161E0691927642581
:101690003226B0F5004F354A354920684FF0000832
:1016A00006D0884201D0904236D1FFF7F9F935E0F3
:1016B000884201D0904202D1FFF7F2F901E0FFF732
:1016C000DFF961684A18A0FB070148EB0803FEF741
:1016D00077FD0146B0FBF5F00201B1FBF5F06FF0CC
:1016E0001803584301EB800006EBC000B0FBF5F097
:1016F00000F0F80002EB4002B1FBF5F0584301EBBB
:10170000800006EBC000B0FBF5F000F00700216898
:1017100010448860BDE8F081FFF7B2F961688B0F73
:101720008A00A0FB0701FEF74BFD0146B0FBF5F078
:101730006FF01802504301EB800006EB0010B0FB85
:10174000F5F000F0F002B1FBF5F002EB0012B1FB96
:10175000F5F06FF01803584301EB800006EB001022
:10176000B0FBF5F000F00F00D1E7000000140140DD
:101770000010014090F83910212901D00220704753
:101780008168B1F5805F016A0BD04A1C0262026871
:1017900009785160C18C491E0904090CC1840ED01E
:1017A00017E009880268C1F3080151600169002946
:1017B000016A02D0491C0162ECE7891CFBE7016861
:1017C000CA6822F08002CA600068C16841F0400126
:1017D000C1600020704700000148FFF761BC0000B5
:1017E0009800002090F82010002912D00388002BC8
:1017F0000FD0002180F8201082894169521A92B2DC
:10180000934202D843801A4600E042800148FFF725
:1018100042BD704798000020104800211622018028
:1018200041808180C280A0F11802831EC0E902239A
:10183000026142610A4A82610A4AC261022280F858
:10184000202080F82110084A111F098842F8210041
:10185000121D064842F821007047000030010020A8
:1018600021150008E5170008380000209800002026
:10187000FEE700000FB41CB50246002007AC0029AB
:101880000BD0491ECDE90021054B6A46214606983A
:1018900000F028F8009A002111701CBC5DF814FBC0
:1018A000271C00080907090E002804DB00F1E020CE
:1018B00080F80014704700F00F0000F1E02080F87D
:1018C000141D704702E008C8121F08C1002AFAD18F
:1018D00070477047002001E001C1121F002AFBD1B0
:1018E000704700002DE9FF4F8BB088460546002663
:1018F00006E025280BD0DDE90D1290476D1C761C03
:1019000028780028F5D10FB03046BDE8F08F0024CC
:10191000A146A2460122AE4900E0044315F8013F6A
:10192000203B02FA03F00842F7D128782A2810D089
:101930006FF02F022878A0F13001092915D809EBA2
:10194000890102EB410144F0020400EB01096D1C26
:10195000F0E758F8041B5FEA010903D544F400548A
:10196000C9F1000944F002046D1C28782E2817D113
:1019700015F8010F44F004042A280ED06FF02F024E
:101980002878A0F1300109290AD80AEB8A0102EB74
:10199000410100EB010A6D1CF2E758F804AB6D1C25
:1019A00028786C280FD006DC4C2817D068280DD07A
:1019B0006A2814D104E0742810D07A280FD10DE0E1
:1019C00044F400140AE044F4801401E044F44014A8
:1019D0006978814202D104F580146D1C6D1C287851
:1019E000692865D006DC00288DD0632827D06428BC
:1019F00006D15DE06E2808D073282AD0752877D0EC
:101A0000DDE90D129047761CE0E0C4F30250022895
:101A100009D003280DD0D8F8001004280DD00E608E
:101A200008F10408D2E0D8F80010F217C1E900620A
:101A3000F6E7D8F800100E80F2E70E70F0E718F81D
:101A4000041B8DF8001000208DF80100EB460120EA
:101A500003E058F804BB4FF0FF3061074FF0000778
:101A600001D40AE07F1C57450DDA8742FADB1BF8E8
:101A700007100029F6D106E07F1C8742FCDB1BF82B
:101A800007100029F8D1DDE90D23A9EB07008146F5
:101A9000214600F0B1F83044C61904E0DDE90D122A
:101AA0001BF8010B90477F1EF8D22146484688E07C
:101AB00058F8040BC4F302514FF00A0B032900D16C
:101AC00000B2042900D140B2002802DA40422D21A0
:101AD00002E0210505D52B218DF82410012104E019
:101AE00006E0E10710D02021F6E708AF089113E0E7
:101AF00058F8040BC4F302514FF00A0B032900D12C
:101B000080B2042900D1C0B20021EEE75946FEF7A9
:101B100036FC303107F8011D0028F7D1ADEB070086
:101B200000F1200B600702D524F4803401E04FF06F
:101B3000010ADA4502DDAAEB0B0000E00020824634
:101B400000EB0B0108980144A9EB01000A90E003A7
:101B500006D4DDE90D2321460A9800F04DF806442D
:101B60004FF0000908E009A911F80900DDE90D129C
:101B7000904709F10109761C08998945F3DBE003D8
:101B80000CD5DDE90D2321460A9800F035F806440E
:101B900004E0DDE90D1230209047761CBAF1000117
:101BA000AAF1010AF5DC05E0DDE90D1217F8010BD9
:101BB0009047761CBBF10001ABF1010BF4DC0A98F5
:101BC0002146DDE90D2300F005F806446D1C97E67B
:101BD000092801002DE9F041044600251E4617465C
:101BE000880404D405E039462020B0476D1C641EEB
:101BF000F9D52846BDE8F0812DE9F04104460025DD
:101C00001E469046C80301D5302700E020278804EF
:101C100004D505E041463846B0476D1C641EF9D531
:101C20002846BDE8F0814A68002A06D00A68531C9D
:101C30000B6010704868401E4860704710B50C4C2F
:101C40002078002813D10B48016841F04001016061
:101C50006721202000F00AF98821232000F006F9EE
:101C600005490220401C8842FCDB0120207010BD89
:101C70001C000020003001408096980003488178C5
:101C8000C07801EB002000B2704700001C0000206B
:101C900003480179407901EB002000B27047000051
:101CA0001C00002003488179C07901EB002000B2BC
:101CB000704700001C000020704700002DED028BD3
:101CC00082B0FEF7AFFDFFF7DBFBFFF725FBFFF769
:101CD00089FB3D483B49002501604FF41651C0E99E
:101CE00001150C21C560C0E904518561C561FFF78C
:101CF00061FA364C2068FEF71CFB9FED358B53ECE8
:101D0000182BFEF7A7FAFEF721FBFFF799FB324FDE
:101D1000012640B37E604FF080782068FEF709FB13
:101D2000894604467868401C786049EC104B53ECB7
:101D3000182B51EC100BFEF78DFAFEF707FB7968B4
:101D4000B0FBF1F04045EDD249EC104B53EC182BB1
:101D500051EC100BFEF77EFAFEF7F8FA7968B0FB4B
:101D6000F1F0FFF76DFB7868B8601B4C002025543C
:101D7000401C0228FBDB00F09FF8DFF86080B868A9
:101D80000028FCD17868B860207818B1D8F8000035
:101D900013A101602670684600F082F8002000F070
:101DA000A3F825709DF801000028E8D0607818B1EC
:101DB000D8F800000AA101603046667000F094F87F
:101DC0006570DCE700480040980000201800002003
:101DD0000000000000408F4000000020301F00087D
:101DE0004F76657272756E0000B5272000F020F8FE
:101DF0000E4B5870000717D5282000F019F898707E
:101E0000292000F015F8D8702A2000F011F8187178
:101E10002B2000F00DF858712C2000F009F8987173
:101E20002D2000F005F8D87100BD00001C00002036
:101E30000C494A6922F008024A61002242EA002065
:101E400040F400420848C26082689207FCD582686C
:101E5000D207FCD0C0684A69C0B242F008024A61A9
:101E60007047000000100240003001400A4A5369E8
:101E700023F00803536141EA00210848C1608168EA
:101E80008907FCD58168C907FCD0516941F0080178
:101E90005161C068704700000010024000300140EE
:101EA00004490968C98811B10021417070470121B6
:101EB000FBE70000301F0008074810B5016800204C
:101EC00008604860054908604860FFF7A5FC0549BF
:101ED0000348086010BD0000301F000824000020E7
:101EE000CD040008D800002018B1012803D1FFF765
:101EF000A5BE00F001B87047064801680268C988AD
:101F0000491C89B2D180B1F57A7F02D300680021E3
:101F1000C1807047301F0008000000000000000072
:101F2000010203040607080900000000010203047F
:101F30002C0000202536692C2536692C2536690DA4
:101F40000A000000641F000800000020400000009C
:101F5000C4180008A41F0008400000201805000055
:101F6000D41800080000000001000000010000007B
:101F70000100000010000000000000000024F40038
:101F80000000000000000000000000000000000051
:101F90000000000000000000000000000000000041
:041FA000000000003D
:040000050800018965
:00000001FF
