:020000040800F2
:10000000300E0020D9010008C3200008EB1E0008B4
:10001000C1200008E908000897310008000000002E
:10002000000000000000000000000000C7200008E1
:10003000EB08000800000000C5200008F5200008BB
:10004000F3010008F3010008F3010008F3010008C0
:10005000F3010008F3010008F3010008F3010008B0
:10006000F3010008F3010008F3010008F3010008A0
:10007000F3010008F3010008F3010008F301000890
:10008000F3010008F3010008F3010008F301000880
:10009000F3010008F3010008F3010008F301000870
:1000A000F3010008F3010008F3010008F301000860
:1000B000F3010008C1210008F3010008F301000862
:1000C000F3010008F3010008F3010008F301000840
:1000D000F3010008F3010008F3010008F301000830
:1000E000F3010008F3010008F3010008F301000820
:1000F000F3010008F3010008F3010008F301000810
:1001000000000000F3010008F3010008F3010008FB
:100110000000000000000000F30100087D26000838
:10012000F3010008F3010008F3010008F3010008DF
:10013000F3010008F3010008F3010008F3010008CF
:10014000F3010008F3010008F3010008F3010008BF
:10015000F3010008F3010008F3010008F3010008AF
:10016000F3010008F3010008000000000000000097
:10017000000000000000000000000000000000007F
:10018000F3010008F3010008000000000000000077
:10019000F3010008F3010008000000000000000067
:1001A000000000000000000000000000000000004F
:1001B000F30100080000000000000000F301000847
:1001C000F3010008DFF80CD000F07CFB004800478A
:1001D000213D0008300E00200648804706480047B1
:1001E000FEE7FEE7FEE7FEE7FEE7FEE7FEE7FEE7E7
:1001F000FEE7FEE7A5210008C50100082DE9F05F34
:100200000546002092469B46884606468146402485
:100210001BE0284641464746224600F078FA5346FE
:100220005A46C01A914110D311461846224600F092
:100230005FFA2D1A67EB01084F4622460120002184
:1002400000F056FA17EB00094E41201EA4F10104FC
:10025000DFDC484631462A464346BDE8F09F40EA87
:1002600001039B0703D009E008C9121F08C0042A34
:10027000FAD203E011F8013B00F8013B521EF9D21B
:100280007047D2B201E000F8012B491EFBD2704743
:100290000022F6E710B513460A4604461946FFF752
:1002A000F0FF204610BD2DE9FE4F804681EA030095
:1002B000C00F0C46009021F0004123F00045B8EB40
:1002C0000200A94105D24046214690461C460B46F5
:1002D000024623F00040104347D0270DC7F30A0021
:1002E000C3F30A510290401A019040286BDAC3F31D
:1002F000130040F4801B0098924620B10023D2EBFB
:10030000030A63EB0B0B01985946C0F140025046BB
:1003100000F0EEF906460D4650465946019A00F0A7
:1003200006FA10EB08006141002487EA115284EAC2
:10033000E7731A4340D0009A62B3019A012A4FEA48
:10034000075215DC001B61EB02014FF0004202EA8C
:100350000752CDE90042001C41F5801132462B4680
:1003600000F006FA03B0BDE8F08F40462146F9E7F9
:10037000001B61EB0201001C41F5801300185B417A
:100380002018A2F5001747EB030140EAD570B61913
:100390006D4111E06D084FEA360645EAC0754FEA37
:1003A0000752001B61EB0201001C41F58011490856
:1003B0004FEA30000019514132462B4603B0BDE8E8
:1003C000F04F00F0C6B90098012240000023D0EBA6
:1003D000020263EBE073009821464FEAE074B8EB49
:1003E000000061EB0401E9E783F000435BE781F083
:1003F000004158E72DE9FE4F81EA030404F0004470
:1004000021F0004100944FF0000B23F0004350EA2C
:1004100001045ED052EA03045BD0C3F30A54C1F373
:100420000A552C44A4F2F3340194A0FB0254C1F306
:10043000130141F48011C3F3130343F4801301FB50
:10044000024400FB034E840A970A44EA815447EAB7
:100450008357A4FB076802958D0A05FB07854FEAC1
:10046000932C04FB0C542705029D4FEA065847EADB
:100470001637B5EB08056EEB070C870E920E47EAB0
:10048000811742EA8312A7FB0201B6EB0B0164EB72
:1004900000042B0D43EA0C335E1844EB1C50DA4683
:1004A0005146E7FB0201C5F313044FEA0B3343EA5D
:1004B00014534FEA0432019C43EA0603A4F10C04EE
:1004C0000294009CCDE900B400F052F903B0BDE8FD
:1004D000F08F00200146F9E72DE9F04D81EA030491
:1004E00004F0004B21F0004514464FF0000A23F0C1
:1004F000004150EA050220D054EA01021DD0C5F3A4
:100500000A570246C5F31303C1F31300C1F30A5699
:1005100040F4801543F48013A7EB0608101BD64661
:1005200008F2FD3873EB050002D308F1010801E081
:1005300092185B41B8F1000F03DA00200146BDE8D4
:10054000F08D00204FF48011064684460EE0171B04
:1005500073EB050705D3121B63EB050306434CEA57
:10056000010C49084FEA300092185B4150EA01073C
:10057000EDD152EA030012D082EA040083EA0501B9
:10058000084305D0101BAB4106D20122002306E030
:1005900000224FF0004302E06FF0010253101AEB0B
:1005A00006004CEB085110EB0A0041EB0B01BDE8D3
:1005B000F04D00F0CEB80EB5C10F80EAE0700844EF
:1005C000CA07002140F233438DE80E000A460B466D
:1005D00000F0CEF803B000BD0EB540F233410291F9
:1005E0000021CDE900110A460B4600F0C1F803B026
:1005F00000BD70B5C1F30A5201F000450024C1F3FB
:10060000130140F2FF3341F480119A4201DA0020D5
:1006100070BD40F233439A42A2F2334203DC5242AD
:1006200000F075F800E090402C43F1D0404270BDDE
:10063000C1F30A5210B5C1F3130140F2FF3341F484
:1006400080119A4201DA002010BD40F233439A42F1
:10065000A2F2334203DC524200F059F810BD904040
:1006600010BD000030B5041E71F1000404DB4FF032
:100670000044404264EB0101141E73F1000405DBE9
:100680001C464FF00043524263EB04038B4208BF09
:10069000824230BD30B5041E71F1000404DB4FF01E
:1006A0000044404264EB0101141E73F1000405DBB9
:1006B0001C464FF00043524263EB0403994208BFCB
:1006C000904230BD30B50B46014600202022012467
:1006D00009E021FA02F59D4205D303FA02F5491B10
:1006E00004FA02F52844151EA2F10102F1DC30BD26
:1006F000202A04DB203A00FA02F1002070479140E2
:10070000C2F1200320FA03F3194390407047202AD6
:1007100004DB203A21FA02F00021704721FA02F3AB
:10072000D040C2F120029140084319467047202A68
:1007300006DBCB17203A41FA02F043EAE07306E009
:1007400041FA02F3D040C2F1200291400843194619
:10075000704710B5141E73F1000408DA401C41F113
:10076000000192185B411A4301D120F0010010BD35
:100770002DE9F04D92469B4611B1B1FA81F202E0AB
:10078000B0FA80F220329046FFF7B2FF04460F46DF
:1007900040EA0A0041EA0B0153465A46084313D087
:1007A000114653EA010019D0C8F140025046FFF744
:1007B000AEFF05460E46504659464246FFF798FFA3
:1007C000084305D0012004E020463946BDE8F08DFD
:1007D0000020054346EAE0762C4337430A98630538
:1007E000E40AA0EB08000022FD0A44EA47540A305C
:1007F00002D500200146E9E7010510196941DDE94C
:10080000084500196941BDE8F04DA2E72DE9FE4F0A
:10081000C3F30A5701F000450024C1F30A56C3F39D
:100820001303C1F3130143F4801312EB020AA6462B
:1008300041F48011009543EB030CA7F1010B16E086
:10084000B0EB0A0061EB0C01071E71F1000707DA3B
:100850004FF00008D0EB080085F0004568EB01017F
:10086000171A73EB0107EBD3761E001849415E455A
:10087000F6DA50EA010209D0CDE900E5002213467C
:100880000296FFF775FF03B0BDE8F08F2046009990
:10089000F9E7C1F30A52C1F3130140F2FF3341F407
:1008A00080119A4202DA00200146704740F2334339
:1008B0009A42A2F2334202DC5242FFF728BFFFF70E
:1008C00017BF0000064C074D06E0E06840F001034A
:1008D00094E8070098471034AC42F6D3FFF776FC53
:1008E0003043000850430008FEE7704770B50446E7
:1008F00000F0EEF80546601C02D00448007804447D
:1009000000F0E6F8401BA042FAD370BD0C000020B6
:100910002DE9F84F00224FF0010803254FF00F0E8C
:100920000B6808FA02F42340A3426ED14E68012EF0
:1009300005D0022E03D0112E01D0122E12D18668BE
:100940004FEA420C05FA0CF7BE43CF6807FA0CF7E2
:10095000374387604668A6430C79C4F3001494407B
:1009600034434460C668570005FA07FC8C6826EAE1
:100970000C06BC403443C4604C68022C01D0122CDD
:1009800013D1D40800EB8404A346D4F82090540774
:100990004FEAD46A0EFA0AF629EA06090E6906FA3F
:1009A0000AF646EA0906CBF8206006680C7926EAC2
:1009B0000C0604F00304BC40344304604C68E400BB
:1009C00060D5334C266846F480462660246822F0C1
:1009D000030604F4804400942E4C3444A446D4F816
:1009E00008489607370F0EFA07F6B4432A4EB0426E
:1009F00001D100261FE0294EB04201D101261AE0A4
:100A0000274EB04202D1022615E03BE0254EB0420F
:100A100001D103260FE0244EB04201D104260AE0A2
:100A2000224EB04201D1052605E0214EB04201D14F
:100A3000062600E00726BE402643CCF808681D4E77
:100A400034684F689C43FF0300D51C433460194E43
:100A5000361D34684F689C43BF0300D51C43346087
:100A6000144E083634684F689C43FF0200D51C437F
:100A70003460104E0C3634684F689C43BF0200D57A
:100A80001C433460521C102AFFF44AAFBDE8F88FB3
:100A9000443802400030014000000240000402409F
:100AA00000080240000C0240001002400014024006
:100AB00000180240003C0140426931EA020200D1C4
:100AC0000904816170470AB1816170470904FBE73D
:100AD00001488068704700000C00002002488168CF
:100AE00002781144816070470C0000200B4810B55B
:100AF000016841F400710160016841F480610160A6
:100B0000016841F480710160032000F06FF800205B
:100B100000F006F800F024F8002010BD003C024070
:100B200070B50D4D04464FF47A712878B1FBF0F0A2
:100B30000A490968B1FBF0F000F0E4FC48B9102C58
:100B400007D200222146501E00F030F800206C60D1
:100B500070BD012070BD00000C00002018000020B6
:100B60000A4808B5016841F480410160006800F45A
:100B7000804000900548001F016841F080510160ED
:100B8000006800F08050009008BD0000443802402A
:100B9000002809DB00F01F0201219140400980007C
:100BA00000F1E020C0F8001170470000F0B40E4BD7
:100BB0001B680C46C3F30223C3F10705042D00D9BB
:100BC0000425191D072901D2002300E0DB1E0126A0
:100BD00006FA05F1491E214099409E40761E1640B6
:100BE0003143F0BC02F0F0BA0CED00E0064900F031
:100BF000070208684FF6FF03184040EA0220034A44
:100C000010430860704700000CED00E00000FA059A
:100C100001220168C0F8FC23002280F8F4238869CF
:100C200040F000608861486D024A1043486500202A
:100C300070470000030000102DE9F0418AB0040065
:100C400005D094F8BD032668002520B108E00120F6
:100C50000AB0BDE8F08184F8BC53204600F064F887
:100C6000032084F8BD03F06BC00500D42561206823
:100C700002F052FA04F11001282288466846FFF774
:100C8000EEFA94E80F0002F02DF90226C8BB00210D
:100C9000206802F069FA002001270EE0C0EBC001D5
:100CA00004EB810181F83D7001F83C0FC880CD70E4
:100CB0008D60CD60401CC0B24D6161688142EDD84D
:100CC000002011E0C0EBC00104EB810181F8FD516F
:100CD00081F8FC0181F8FF51C1F80452C1F80852B3
:100CE000401CC0B2C1F8105261688142EAD8282283
:100CF00041466846FFF7B3FA94E80F0002F054F952
:100D000010B184F8BD63A2E784F8385084F8BD734D
:100D1000606A012802D12046FFF77AFF206802F0BE
:100D200037F9002094E7000030B587B0044614215D
:100D30006846FFF7ADFA2068B0F1A04F30D11948EE
:100D40000024016841F0010101600068164D00F0C7
:100D5000010005904FF4E85000900220CDE9010415
:100D6000032003900A20049069462846FFF7D0FD2F
:100D70006815CDE90004694628460294FFF7C8FDCE
:100D80000848001D016841F08001016005481430E9
:100D9000016841F480410160006800F480400590E2
:100DA00007B030BD30380240000002402DE9F84F56
:100DB0000446007800268D4DC00708D02868616978
:100DC00020F0C06008432860606900B901262078DF
:100DD000800708D52868A16920F0C0500843286022
:100DE000A06900B9012620784FF0000A00074FF0F3
:100DF000010B55D57D484C38016841F080510160A8
:100E00000068DFF8EC8100F080500090D8F8001006
:100E100041F48071C8F80010FFF75AFE074604E05D
:100E2000FFF756FEC01B02286FD8D8F80000C00597
:100E3000F6D56E4F1C3F386810F440701FD0A18B60
:100E400001F4407181421AD0386820F44071694839
:100E5000C0F800B0C0F800A039603868C0070ED0F4
:100E6000FFF736FE804641F2883905E0FFF730FE95
:100E7000A0EB0801494548D838688007F6D5E169F4
:100E80005A48C1F301228438032A36D0016821F47C
:100E9000F81101603868A18BC1F30B010843386079
:100EA0002078DFF85491400703D594F83810C9F83A
:100EB000E0112078C106514805D50168626A21F425
:100EC00040011143016021784FF00067890609D580
:100ED0000168A26A21F0006111430160A16AB94270
:100EE00000D101262178490605D50168226A21F042
:100EF00080511143016066B908E00268404B22F45A
:100F0000F81219400A430260C4E754E020688028C0
:100F100057D15046DFF8ECA0CAF86800FFF7D8FDBB
:100F2000324E80468C3E05E0FFF7D2FDA0EB080074
:100F3000022840D830680001F6D4616BC9F8D81097
:100F400020683149C20701D062697AB1820701D5B0
:100F5000A2695AB1820602D5A26ABA4206D04006F8
:100F60000FD5206A68B9A06AB8420AD1D4E9010253
:100F700040EA8210227B237C120642EA037210436D
:100F80000860207800060AD5D4E9010240EA821000
:100F9000227B237C120642EA037210430860CAF8DF
:100FA00068B0FFF795FD074608E000BFFFF790FD2A
:100FB000C01B022802D90320BDE8F88F3068000169
:100FC000F4D52088C00505D52868E16A20F00040E6
:100FD000084328602088800505D52868216B20F407
:100FE0000040084328600020E6E700008C380240FB
:100FF00000700040400E47420010474294380240C3
:10100000FFFCFF0F00004742843802402DE9F04703
:101010000E46050065D0DFF81481D8F80000F7B25D
:1010200000F00F00B04207D288F80070D8F8000036
:1010300000F00F00B04254D128683D4C810712D512
:10104000400703D5206840F4E0502060287800076E
:1010500003D5206840F4604020602068A96820F033
:10106000F000084320602878C0072DD03049686818
:101070000839012812D0022813D0032811D009689A
:10108000890700292DDA216821F00301014321603D
:10109000FFF71EFD814641F2883A0EE00968890398
:1010A000EFE709688901ECE7FFF712FDA0EB090102
:1010B000514502D90320BDE8F0872068696800F037
:1010C0000C00B0EB810FEFD1D8F80010404601F0D2
:1010D0000F01B14207D90770006800F00F00B0425D
:1010E00001D00120E7E72878400705D52068E968A6
:1010F00020F4E050084320602878000706D52068D7
:10110000296920F4604040EAC100206000F038F80E
:101110002168084AC1F30311515CC84006490860C0
:1011200006480068FFF7FCFC0020C4E7003C0240D2
:1011300008380240F4420008180000201000002087
:101140000448054900680968044AC1F38221515CDA
:10115000C8407047180000200838024004430008C7
:101160000448054900680968044AC1F34231515CEA
:10117000C8407047180000200838024004430008A7
:10118000154810B5006810F00C02144813D0411037
:10119000042A0FD0082A0ED10F4C241F226823687E
:1011A00002F03F025B0207D52068C0F38810A0FB65
:1011B000010106E0084610BD2168C1F38811A1FBBA
:1011C00000010023FFF71AF82168C1F30141491C0F
:1011D0004900B0FBF1F010BD083802400024F400D3
:1011E0002DE9F84F05460078DFF800B3C04CC00782
:1011F0004AD0DBF800105846C1F38101012908D01C
:101200000068C0F3810002280AD1201D0068400256
:1012100006D52068800337D56868002872D033E08F
:101220006868B0F5803F10D0B0F5A02F206810D0CE
:1012300020F480302060206820F4802020606868DE
:10124000A8B1FFF745FC06460DE0206840F4803069
:10125000F4E740F480202060F7E700BFFFF738FC98
:10126000801B64286FD820688003F7D50CE0FFF757
:101270002FFC064605E000BFFFF72AFC801B642810
:10128000F0D820688003F7D42878DFF868828007D8
:101290004FF0000940D5DBF80010584611F00C0F54
:1012A00009D00068C0F3810002280BD18F48001FCD
:1012B0000068400206D42068800715D5E868012838
:1012C00020D111E0E868B8B10120C8F80000FFF7AC
:1012D000FFFB064605E000BFFFF7FAFB801B022874
:1012E000C0D820688007F7D52068296920F0F80069
:1012F00040EAC10020600FE0C8F80090FFF7E8FB6B
:10130000064606E0EFE000BFFFF7E2FB801B022885
:1013100019D820688007F7D42878000722D5734EA3
:10132000754869696C3679B101210160FFF7D0FB1E
:10133000074604E0FFF7CCFBC01B022803D8306847
:101340008007F7D50EE089E0C0F80090FFF7C0FBFA
:10135000074604E0FFF7BCFBC01B02287ED83068BC
:101360008007F7D42878400768D5DFF880A10027E8
:101370000AF1380ADAF80000C0000BD4DAF80010DD
:1013800041F08051CAF80010DAF80000012700F09F
:1013900080500090594E3068C00510D4306840F439
:1013A00080703060FFF794FB009005E0FFF790FB42
:1013B0000099401A022851D83068C005F6D54B4E26
:1013C000A868683601280FD00528306810D020F0B2
:1013D00001003060306820F004003060A868B8B1C7
:1013E000FFF776FB00900FE0306840F00100F4E773
:1013F00040F004003060F7E7FFF76AFB0099411AFC
:1014000041F28830814266D830688007F4D50EE01A
:10141000FFF75EFB009007E0FFF75AFB0099411AC7
:1014200041F28830814256D830688007F4D42FB119
:10143000DAF8001021F08051CAF80010A869D0B382
:10144000DBF80010C1F3810102294CD00228484684
:1014500007D0C8F86000FFF73BFB00E03BE0054623
:101460003CE04746C8F86000FFF732FB064604E060
:10147000FFF72EFB801B02282DD820688001F7D4AF
:10148000F5E907010843E9681D4A490802EB0141F3
:10149000AA6841EA82110843297C40EA0160297D5B
:1014A00040EA01711148001F016001203866FFF712
:1014B0000FFB054605E014E0FFF70AFB401B02287E
:1014C00009D820688001F7D50BE000BFFFF700FBCB
:1014D000401B022802D90320BDE8F88F2068800154
:1014E000F4D40020F8E70120F6E7000008380240B5
:1014F0000038024000004742800E47420070004022
:101500000000FFFF10B5401EB0F1807F01D3012025
:1015100010BD4FF0E02460610F21601701F054FE10
:101520000020A06107202061002010BD7047704797
:1015300070B590F83C20012A32D0012480F83C405C
:10154000022280F83D2003685A689D6822F07006E8
:101550000A6832435A60134B02689A4214D0B2F1BF
:10156000804F11D0104B9A420ED0104B9A420BD0A4
:101570000F4B9A4208D00F4B9A4205D00E4B9A421D
:1015800002D00E4B9A4204D1496825F080031943DA
:10159000916080F83D40002180F83C10084670BD05
:1015A000022070BD0000014000040040000800401F
:1015B000000C0040000401400040014000180040C1
:1015C00010B5040003D094F83D0010B107E00120ED
:1015D00010BD002084F83C00204600F00DF80220E9
:1015E00084F83D00211D206801F004F9012084F8F1
:1015F0003D00002010BD000010B586B00446142147
:101600006846FEF745FE1F4B226800211E489A429D
:1016100023D1026842F002020260006800F002007A
:10162000059019481038026842F004020260006810
:1016300000F004000590402000900220CDE9010157
:10164000CDE9031069461148FFF762F900221146FF
:101650001D20FFF7ABFA1D2010E00D498A420FD183
:10166000016841F0200101600068002200F02000C4
:10167000059011463720FFF799FA3720FFF788FACF
:1016800006B010BD0004004040380240000802408F
:10169000001400400168CA6842F00102CA60006894
:1016A000816801F00701062903D0016841F00101BA
:1016B00001600020704790F83C20012A0CD00122E4
:1016C00000F83C2F0223437050F83C3C59614270B3
:1016D00000210170084670470220704770B5504CD9
:1016E000002204F10C05216855F82230834202D112
:1016F00054F8221003E0521C92B2032AF4D383421E
:101700007ED1027F03230124012A0CD10A7D052A00
:101710000DD0042A76D10268526BA1F85C200268D1
:10172000926BA1F85E20027F022A24D030E091F86B
:101730007C204FF6FF76012A0ED0032A62D1026880
:10174000526B92B2A1F8602081F87C40B1F85C50F5
:10175000AA420DD3521B09E00268526B92B2A1F863
:101760005C2081F87C30B1F86050F1E74A63DAE739
:10177000751B2A44FAE74A7D052A0DD0042A41D177
:101780000268526BA1F864200268926BA1F866208F
:10179000027F042A14D022E091F87D20012A08D08B
:1017A000032A2FD10268926BA1F8682081F87D404E
:1017B000EEE70268926BA1F8642081F87D30E7E7DC
:1017C0008A7D052A1ED191F87E20012A1BD0032A8A
:1017D00018D10268D26BA1F8702081F87E40027F98
:1017E000082A0FD1CA7D052A0CD191F87F20012A41
:1017F00010D0032A06D10068006C21F8780F00E0B1
:1018000000E0CC7170BD0268D26BA1F86C2081F849
:101810007E30E4E70068006C21F8740FCB7270BD75
:10182000380600202DE9F041044690F83C000D46B2
:1018300001283DD0012684F83C60022084F83D0058
:10184000AAB3042A46D02068082A55D0D5E9002733
:10185000E968036A23F480530362D0F81CC0036A6A
:101860002CF4407C4CEA07274FF6FF7C27F47047A6
:101870000CEA013139434FF4204723F4204307EAAF
:1018800002321A43C16102622068C16921F44061D9
:10189000C1612068C169AA6841EA0221C0F81C1030
:1018A00084F83D60002084F83C00BDE8F08101E050
:1018B0000220FAE7D5E90012EB68206801F04AF946
:1018C0002068816921F00C01816120688169AA6822
:1018D00011430FE0D5E90012EB68206801F08CF9A4
:1018E0002068816921F44061816120688169AA686A
:1018F00041EA02218161D3E7D5E9002C2F7B016AFF
:1019000021F480710162C169036A21F0030141EA97
:101910000C0121F0F00C39074FF420674CEA1161FB
:1019200023F4206307EA02221A43C161026220689D
:10193000C16921F00C01C1612068C169AA68114325
:10194000ACE710B5040003D094F83D0010B107E0F7
:10195000012010BD002084F83C00204600F00CF867
:10196000022084F83D00211D206800F043FF012083
:1019700084F83D00002010BD704710B50268044691
:1019800031B1042908D008291AD00C2908D11BE04C
:10199000D06840F0020002E0D06840F00400D0605F
:1019A0000122206800F08AFF2068816801F00701A9
:1019B000062903D0016841F001010160002010BD3B
:1019C000D06840F00800EAE7D06840F01000E6E791
:1019D00070B50446006801694FF00005C9438907E6
:1019E00015D4C168C943890711D4E91E01610120DA
:1019F0002077206880698007204602D0FFF76EFEBE
:101A000004E000F0C3F8204600F058F9257720687C
:101A10000169C943490717D4C168C943490713D4A9
:101A20006FF004010161022020772068806910F4C2
:101A3000407F204602D0FFF751FE04E000F0A6F8F8
:101A4000204600F03BF9257720680169C943090762
:101A500016D4C168C943090712D46FF008010161A7
:101A6000042020772068C0698007204602D0FFF755
:101A700035FE04E000F08AF8204600F01FF92577D3
:101A800020680169C943C90617D4C168C943C9069A
:101A900013D46FF010010161082020772068C0691D
:101AA00010F4407F204602D0FFF718FE04E000F05B
:101AB0006DF8204600F002F9257720680169C943D6
:101AC000C90708D1C168C943C90704D1891E01618A
:101AD000204600F017F920680169C943090609D4B6
:101AE000C168C943090605D46FF080010161204631
:101AF000FFF71CFD20680169C943490609D4C16884
:101B0000C943490605D46FF040010161204600F049
:101B100026F920680169C94389060BD4C168C94305
:101B2000890607D46FF0200101612046BDE87040AE
:101B3000FFF7FDBC70BD000010B586B0044614214F
:101B40006846FEF7A5FB0E492068884216D10D486D
:101B50000021026842F002020260006800F0020008
:101B600005904FF4804000900220CDE9010109204A
:101B7000CDE9031069460448FEF7CAFE06B010BD61
:101B8000001800403038024000040240704770B531
:101B9000044690F83C000D4601280DD0012684F83B
:101BA0003C60022084F83D0042B1042A18D0082A83
:101BB0002AD00C2A4DD139E0022070BD206800F0F7
:101BC00095FE2068816941F0080181612068816982
:101BD00021F004018161206881692A69114311E0C3
:101BE000206800F0B3FE2068816941F400618161E2
:101BF0002068816921F480618161206881692A6996
:101C000041EA0221816124E0206800F0D5FE2068CD
:101C1000C16941F00801C1612068C16921F0040176
:101C2000C1612068C1692A69114311E0206800F090
:101C3000F7FE2068C16941F40061C1612068C16993
:101C400021F48061C1612068C1692A6941EA0221E9
:101C5000C16184F83D60002084F83C0070BD10B57F
:101C6000040003D094F83D0010B107E0012010BD3E
:101C7000002084F83C00204600F00CF8022084F894
:101C80003D00211D206800F0B5FD012084F83D00D5
:101C9000002010BD08B500680649884208D10648F2
:101CA000016841F040010160006800F040000090D0
:101CB00008BD000000180040403802407047000096
:101CC00010B504460068012200F0F8FD0B492068B9
:101CD000884202D00A49884203D1416C41F4004154
:101CE00041642068816801F00701062903D001687A
:101CF00041F001010160002010BD00000000014022
:101D00000004014000F0B4BE70B5044690F83C00F9
:101D1000012812D0012584F83C50022084F83D00AF
:101D2000204600F0C3FE01004FF0000007D084F809
:101D30003D5084F83C00012070BD022070BD216838
:101D4000CA6822F04002CA602168CA6822F4804250
:101D5000CA6084F83D5084F83C00002070BD704794
:101D600070B5040004D094F83900002510B106E0E5
:101D7000012070BD84F83850204600F023F824205C
:101D800084F839002068C16821F40051C160204600
:101D900000F082FF2068016921F490410161206810
:101DA000416921F02A0141612068C16841F4005174
:101DB000C160E563202084F8390084F83A000020EF
:101DC00070BD000010B586B0044614216846FEF7C9
:101DD0005FFA14492068884221D113480021026823
:101DE00042F480220260006800F4802005900E48D2
:101DF0001038026842F008020260006800F0080033
:101E000005904FF4407000900220CDE901010320BD
:101E100003900720049069460448FEF779FD06B058
:101E200010BD00000048004040380240000C024055
:101E30002DE9F843044690F839001F4616460D4632
:101E4000202850D1B5B1AEB194F8380001284AD05D
:101E5000012084F838004FF00008C4F83C802120AD
:101E600084F83900FEF734FEA6848146E68484F8BF
:101E7000388026E00120BDE8F883E08C401EE08435
:101E8000A0684B46B0F5805F4FF000024FF0800134
:101E90002046009703D000F093FFE8B90DE000F072
:101EA0008FFFC8B928882168C0F3080048602069FE
:101EB00008B16D1C05E0AD1C03E0216815F8010BAD
:101EC0004860E08C0028D8D14B46002240212046B3
:101ED000009700F075FF08B10320CCE7202084F8BC
:101EE00039000020C7E70220C5E7FEE7F0B587B05C
:101EF00014216846FEF7CCF932480024016841F00D
:101F000004010160016801F004010591016841F0DC
:101F100080010160016801F080010591016841F0D4
:101F200002010160016801F002010591016841F0C0
:101F300008010160016801F008010591016841F0A4
:101F400040010160016801F040010591016841F024
:101F50000101016000681C4E00F0010005900022A4
:101F600081213046FEF7AFFD184F00224021384650
:101F7000FEF7A9FD4FF4005000901548CDE901048B
:101F800069461448FEF7C4FC812000900125CDE984
:101F90000154694630460394FEF7BAFC4020009095
:101FA000CDE90154694638460394FEF7B1FC802020
:101FB000CDE90004694638460294FEF7A9FC07B053
:101FC000F0BD00003038024000040240001802401A
:101FD000000011100008024010B588B01C216846AE
:101FE000FEF756F90D480C490024C0E9001484603E
:101FF000C46004618461FFF732FE7020CDE9000403
:1020000002940022694605480494FFF7C0FD034886
:10201000FFF792FD08B010BD00180040E40000205A
:1020200010B58CB0142104A8FEF732F9002418482A
:102030000A94099400940194029414490394C0E909
:1020400000148460C46004618461FFF7B9FA104829
:10205000FFF777FC042004905020CDE9050404A983
:102060000B480894FFF750FE099409A908480A9400
:10207000FFF75EFA0120CDE9004002940022694694
:1020800003480394FFF7CEFB0CB010BD00040040E2
:102090006400002009484FF0A0410222016006219F
:1020A00041600021C0E9032182610122C0E90721CA
:1020B000C0E90912C0E90B21FEF7BEBD6401002092
:1020C000FEE7704770477047401EB0F1807F01D334
:1020D000012070474FF0E0214861054AF02082F866
:1020E000140D00208861072008610020704700005F
:1020F0000FE000E00348016811B10168491E01606A
:10210000FEF7ECBC0800002030B5A3B034216846CF
:10211000FEF7BEF814211CA8FEF7BAF83C210DA862
:10212000FEF7B6F81D480024016841F080510160B7
:10213000006800F0805021901948016841F4404146
:1021400001600068022500F44040219001200090C9
:102150004FF4A02001906805CDE9065008204FF407
:10216000C071CDE908010421CDE90A100C9568463B
:10217000FFF736F80F20CDE91C05E802CDE91E4037
:1021800003211CA82094FEF741FF202017940D90F6
:102190000DA8FEF70BFE23B030BD00004038024012
:1021A000007000400548016841F470010160034976
:1021B0004FF00060803908607047000088ED00E053
:1021C0000148FFF705BC0000640000202DE9F04144
:1021D000FA4D2DED108B9FEDFAEB9FEDFBFB9FED84
:1021E000FCAB9FEDFD9BFE4CFE48296D00684068EE
:1021F0002865A0EB0108FC480068FEF7EDF9C4E98A
:102200000801FEF79DFFFEF7E7F941EC180BF648D1
:102210000C300068FEF7E0F941EC1C0B84ED0ACBB2
:102220009FEDF2BB51EC180B53EC1B2BFEF7E2F8C1
:1022300094ED080B41EC180B53EC1A2B51EC100BDE
:10224000FEF731F841EC100B51EC1A0B53EC102B4C
:10225000FEF742F953EC182BFEF7CCF853EC1C2B8D
:10226000FEF73AF941EC100B84ED0C0B53EC102BFC
:102270009FEDE00B51EC100BFEF7B6F841EC180B9C
:1022800084ED0E8B9FEDDD0B53EC102BFEF7B2F8B7
:1022900095ED021B53EC112BFEF7A6F853EC1E2B09
:1022A000FEF7A8F841EC1D0B53EC1B2B51EC180B5F
:1022B000FEF7A0F895ED001B53EC112BFDF7F3FF93
:1022C00053EC1D2BFDF7EFFF41EC180B53EC1F2BCC
:1022D000FEF7E0F902D284ED10FB0FE053EC192B6E
:1022E00051EC180BFEF7BEF906D2B0EE490AF0EE3B
:1022F000690A84ED100B01E084ED108B94ED100B56
:102300009FEDC01B51EC100B53EC112BFEF772F834
:10231000C4E9120194ED0A0B00F066FFB0EE40CA6A
:10232000F0EE60CA01F0B2FF9FEDB8BBB94F30B913
:10233000B0EE4C0AF0EE6C0A01F086FF20B1B0EE70
:1023400049CAF0EE69CA0BE09FEDB31BB0EE4C0A30
:10235000F0EE6C0A00F0D4FFB0EE40CAF0EE60CAB6
:1023600053EC192B51EC1C0BFEF77CF951EC1C0BB8
:1023700005D281F00041FEF75BF9404201E0FEF733
:1023800057F92066B0EE49CAF0EE69CA53EC1F2B2C
:1023900051EC180BFEF77EF908D253EC1F2B51ECD1
:1023A000180BFEF721F841EC180B0AE053EC192B3F
:1023B00051EC180BFEF76EF903D8B0EE498AF0EE37
:1023C000698A53EC182B51EC1C0BFEF74BF901D02A
:1023D000012600E0002653EC192B51EC180BFEF7F8
:1023E00041F904D2B0EE4B8AF0EE6B8A1DE053EC5B
:1023F000192B51EC180BFEF74DF904D2B0EE4A8AB6
:10240000F0EE6A8A11E0B0EE49FAF0EE69FA53ECA8
:102410001F2B51EC180BFEF725F904D1B0EE4F8AB3
:10242000F0EE6F8A01E097ED008BB0EE480AF0EE17
:10243000680A01F02BFF9FED7AFB68B9B0EE4F1AE6
:10244000F0EE6F1AB0EE480AF0EE680A00F058FF9E
:10245000B0EE40CAF0EE60CA94ED0E0B9FED721B19
:1024600051EC100B53EC112BFDF7C4FF41EC180B92
:1024700053EC192BFEF7F6F811D353EC192B51EC52
:10248000180BFEF707F911D3B0EE49BAF0EE69BAAE
:1024900053EC1B2B51EC180BFEF7E4F804D1B0EE13
:1024A0004BAAF0EE6BAA01E097ED00ABB0EE4A0A42
:1024B000F0EE6A0A01F0EAFE20B1B0EE49AAF0EEB1
:1024C00069AA0DE0B0EE4F1AF0EE6F1AB0EE4A0AAC
:1024D000F0EE6A0A00F014FFB0EE40AAF0EE60AA37
:1024E000534F6EB353EC192B51EC1C0BFEF7BAF89B
:1024F00051EC1C0B05D281F00041FEF799F84042E7
:1025000001E0FEF795F846B2B0EE49BAF0EE69BACE
:1025100053EC1B2B51EC1A0BFEF7A4F851EC1A0BE1
:1025200005D281F00041FEF783F8404201E0FEF75A
:102530007FF840B2864203D1B0EE4B8AF0EE6B8A50
:1025400080213C48FEF7B8FA4046FEF745F89FED7B
:102550003A1B53EC112BFDF74DFF41EC1A0B53ECDA
:10256000182BFDF747FF95ED001B53EC112BFDF7E2
:102570009AFEC5E9000153EC1D2B51EC1A0BFDF737
:1025800039FF95ED021B53EC112BFDF78CFEC5E9CD
:102590000201B869FEF70FF894ED121B53EC112BF2
:1025A000FEF760F863D094ED128B51EC180BFEF738
:1025B00020F853EC192BB86142E00000D805002048
:1025C00000000000000059400000000000408F4063
:1025D000000000000000F03F0000000000000000CC
:1025E000700500200C430008280400400000000093
:1025F000000000400000000000C087400000000014
:1026000000003E405BBF52A0D6AFB43F00000000C8
:102610000000F0BF58000020000000000000F04162
:1026200000000000000070409A9999999999E93F3B
:1026300050060020000402409A9999999999C93F3F
:1026400051EC180BFEF726F811D80B480568E86A1C
:10265000FDF7C2FF94ED121B53EC112BFDF7CAFEE0
:1026600053EC1E2BFDF738FFFDF7E2FF6863BDEC6E
:10267000108BBDE8F0810000E40000200148FFF766
:10268000A7B90000A400002070B5554896B090F995
:102690005D100122002561B101290DD090F85F1075
:1026A00080F85E1090F85E104E4C41B190ED120B28
:1026B00007E080F85E20F5E780F85E50F2E790EDE5
:1026C000100B4FF0FF3184ED000B80F85E1090F995
:1026D0005A305BB1012B0CD090F85C3080F85B3045
:1026E00090F85B3043B190ED0E0B07E080F85B2073
:1026F000F6E780F85B50F3E790ED0C0B84ED020BEE
:1027000080F85B1090F9573063B1012B0DD090F831
:10271000593080F8583000BF90F8583043B190EDF0
:102720000A0B07E080F85820F6E780F85850F3E7E6
:1027300090ED080B84ED040B80F8581090F954309C
:102740001BB1012B04D090F8562080F8552001E0F1
:1027500080F8555090F8552012B190ED060B01E02D
:1027600090ED040B84ED060B80F85510236EA365E5
:1027700094ED000B1C4A8DED060B94ED060B3221F7
:102780008DED040B94ED040B08A88DED020B94ED78
:10279000020B8DED000B00F0FFFC08A801F0BEFA63
:1027A000E06501462E22A4F86620104800F03FFAAA
:1027B0000E4E308820B1A4F86450304600F032FB51
:1027C00096F8200010B17088A4F86400022086F802
:1027D000200001210648FEF76FF916B070BD000019
:1027E000D805002070050020104300080C0A0020C6
:1027F00000040240F0B50268254C264D264E274FB6
:10280000274B4FF0804CA04209D0604507D0A8422A
:1028100005D0B04203D0B84201D0984204D122F092
:10282000700E4A6842EA0E02A0421BD0604519D0E1
:10283000A84217D0B04215D0B84213D0984211D058
:10284000184DA8420ED0184DA8420BD0174DA842E3
:1028500008D0174DA84205D0164DA84202D0164DFB
:10286000A84203D122F44075CA682A434D6922F078
:1028700080022A4302608A68C2620A688262A042B9
:1028800001D0984201D10969016301214161F0BD84
:10289000000001400004004000080040000C00401F
:1028A0000004014000400140004401400048014054
:1028B00000180040001C00400020004010B501F04E
:1028C0001F030121046A99408C430462016A9A4003
:1028D0001143016210BD10B5846842EA032224F45A
:1028E0007F440A432243826010BD0000F0B5026AB3
:1028F00022F001020262036A42688469124E24F0E7
:1029000073050C682C4323F002058B682B430D4D97
:10291000A84201D0B04205D123F00807CB683B4361
:1029200023F00403A84201D0B04205D14D6922F43E
:10293000407215438A692A43426084614968416351
:102940000362F0BD0000014000040140F0B5026ADE
:1029500022F010020262026A436884690D6824F45E
:10296000E64444EA05248D6822F0200242EA05127A
:102970000F4D104EA84201D0B04206D1CF6822F0D0
:10298000800242EA071222F04002A84201D0B0427F
:1029900007D14D6923F4406343EA85038D6943EA17
:1029A000850343608461496881630262F0BD000071
:1029B0000000014000040140F0B5026A22F4807278
:1029C0000262026A4368C46922F4007224F073054B
:1029D0000C68124E2C438D6842EA05220E4DA84227
:1029E00001D0B04206D1CF6822F4006242EA072249
:1029F00022F48062A84201D0B04207D14D6923F48D
:102A0000405343EA05138D6943EA05134360C461EB
:102A10004968C1630262F0BD00000140000401404A
:102A200030B5026A22F480520262046A4268C369C5
:102A30000D6823F4E64343EA05238D6824F400542B
:102A400044EA0534084DA84202D0084DA84204D1FA
:102A50004D6922F4804242EA85124260C3614968AE
:102A60000164046230BD0000000001400004014028
:102A700030B40D4C002104F10C05236855F82120D9
:102A8000824202D154F8213003E0491C89B2032963
:102A9000F4D3824205D1D3F88000002801D030BCA5
:102AA000004730BC704700003806002010B50368AE
:102AB0009A6822F070044A68224322F007040A68E8
:102AC00022439A604A6812F00F0F30D11211082A7F
:102AD0002DD2DFE802F02C2C2C2C0B2127040B69C3
:102AE000D1E902210068FFF7F6FE20E00A68052A16
:102AF00010D00268136A146A24F001041462026898
:102B00009469096924F0F00444EA011191610068B4
:102B100003620CE0012010BD0A698968006800F0BA
:102B200008F804E00A698968006800F053F800209A
:102B300010BD10B5036A046A24F0010404628469BC
:102B400024F0F00444EA021423F00A020A438461E8
:102B5000026210BD70B5046A24F001040462846945
:102B6000056A154EB04214D0B0F1804F11D0134E0B
:102B7000B0420ED0124EB0420BD0124EB04208D02E
:102B8000114EB04205D0114EB04202D0104EB042AC
:102B900003D124F00304144301E044F001041A07B4
:102BA00024F0F00444EA126225F00A0301F00A015D
:102BB00019438261016270BD0000014000040040C1
:102BC00000080040000C00400004014000400140AB
:102BD0000018004010B5036A23F0100303628369F4
:102BE000046A23F4704343EA023224F0A00343EA68
:102BF00001118261016210BD30B5046A24F0100435
:102C000004628469056A24F4407444EA022222F4CE
:102C100070444FF6FF7202EA03322243A02425F0EB
:102C2000A00304EA011119438261016230BDF0B5CD
:102C300000231C4617E0D0E90456B54201D10688AE
:102C40009EB911F8017B6E1C06612F70D0E9045605
:102C50005B1C9BB2B54208D0C668B54201D18568FD
:102C60000561641CA4B29442E5D3012180F82110CF
:102C70000188194489B2018090F82140022C02D1C8
:102C80004488091B0180002180F82110934202D260
:102C90008188491C8180F0BD2DE9F041044600681F
:102CA0000169E26821F44051114301612169A06882
:102CB000E26908436169114308432168CA6849F21F
:102CC0000C639A430243CA6020684169A26921F4F7
:102CD000407111434161E069192764253226B0F53E
:102CE000004F354A354920684FF0000806D0884229
:102CF00001D0904236D1FEF733FA35E0884201D058
:102D0000904202D1FEF72CFA01E0FEF719FA616851
:102D10004A18A0FB070148EB0803FDF76FFA0146CC
:102D2000B0FBF5F00201B1FBF5F06FF0180358436A
:102D300001EB800006EBC000B0FBF5F000F0F800FE
:102D400002EB4002B1FBF5F0584301EB800006EBCB
:102D5000C000B0FBF5F000F0070021681044886067
:102D6000BDE8F081FEF7ECF961688B0F8A00A0FBEB
:102D70000701FDF743FA0146B0FBF5F06FF01802CA
:102D8000504301EB800006EB0010B0FBF5F000F0C3
:102D9000F002B1FBF5F002EB0012B1FBF5F06FF0C1
:102DA0001803584301EB800006EB0010B0FBF5F070
:102DB00000F00F00D1E700000014014000100140B6
:102DC0002DE9F041984617460E460446069D1DE043
:102DD000681C1BD02DB1FDF77BFEA0EB0800A842BC
:102DE00014D92068C16821F4D071C160206841699C
:102DF00021F001014161202084F8390084F83A0073
:102E0000002084F838000320BDE8F08120680068C5
:102E100036EA000004D00020B842D9D00020F3E701
:102E20000120F9E770B5044690F82000002825D06D
:102E30002088002822D0002184F82010A28961690E
:102E40000F4B521A92B20125904206D860805B68FF
:102E5000024604E0A16861610DE062805B68094898
:102E6000FEF7E6FF84F820506088616901446161E3
:102E7000E2689142EED22188081A208070BD0000DD
:102E80002800002024010020114800214FF4007286
:102E9000018041808180C280A0F500720346C0E9B4
:102EA0000223026142610B4A82610B4AC261022223
:102EB00080F8202080F82110084AA2F10801098832
:102EC00042F82100121D064842F821007047000018
:102ED0000C0A00202F2C0008252E000830000020AE
:102EE0002401002070B5044606990A9E049D0D98A1
:102EF000012916D0E06840F04000E060204600F074
:102F00002BF8A16B1EB321F48031A163012D07D1F1
:102F1000A16841F00601A160A16841F02001A16013
:102F200070BDA16B21F48031A163E168094A1140B1
:102F3000E160E16821F44011E160012803D1E0681B
:102F400040F48010E060204600F006F8DEE741F42F
:102F50008031DAE7BFFFBDFF01220C4902E0521CBD
:102F60008A420BD80369002BF9DA026942F00102A8
:102F70000261012204E0521C8A4201D903207047F9
:102F80000369DB07F7D1002070470000400D030004
:102F900010B5D0F8041841F00201C0F8041803205D
:102FA000FDF7A4FC002010BD2DE9F04F00250E46D2
:102FB0000446DDF82CC0DDF824B0109F28462946D1
:102FC00004EB8002C2F80411401C0F28F8D32046FD
:102FD000A7B1806B40F40012A26308468846C4F88B
:102FE000000ED4F800182046C4F80018BCF1010FF8
:102FF00017D0D0F8001841F0030117E0D0F804080A
:1030000040F00202C4F80428A06B20F40012A2636E
:10301000206840F040022260206840F08002226078
:10302000DBE7D0F800180BB141F00101C0F800183F
:10303000102100F087F800B10125204600F072F859
:1030400000B101254046C4F81088C4F81488C4F8BB
:103050001C8800214FF000694FF0904A4FF67F33F3
:1030600015E000BF04EB4112D2F800C9BCF1000F1B
:1030700006DA11B1C2F800A904E0C4F8009901E031
:10308000C2F80009C2F81009C2F80839491C8E427A
:10309000E8D8002115E000BF04EB4112D2F800CBC4
:1030A000BCF1000F06DA11B1C2F800AB04E0C4F8BD
:1030B000009B01E0C2F8000BC2F8100BC2F8083BFD
:1030C000491C8E42E8D8D4F8101821F48072C4F854
:1030D0001028A0616FF080406061BBF1000F03D148
:1030E000A06940F01000A061A06909490843A061EF
:1030F0000C9818B1A06940F00800A061012F03D11D
:10310000A06904490843A0612846BDE8F08F00008B
:1031100000383C8004000040816821F0010181609A
:1031200000207047002110220261054A491C91428B
:1031300001D9032070470369DB06F7D400207047EC
:10314000400D03000022202343EA8111016105495B
:10315000521C8A4201D90320704703699B06F7D4A9
:1031600000207047400D030010B5C26822F0C04235
:10317000C260012902D029B1012010BDC16841F00F
:10318000005102E0C16841F08041C1603220FDF78A
:10319000ADFB002010BDFEE70FB41CB502460020B9
:1031A00007AC00290BD0491ECDE90021054B6A462A
:1031B0002146069800F010FA009A002111701CBCFC
:1031C0005DF814FB073D00080907090E002804DB21
:1031D00000F1E02080F80014704700F00F0000F1CB
:1031E000E02080F8141D70472DE9F0412DED020B11
:1031F0009FED3D0B2DED028B9FED3D8BDDE90254E4
:10320000C4F30A50A0F2FF36142E37DA002E18DA73
:1032100053EC102B9DED020B51EC100BFDF743F816
:1032200053EC182BFDF736FA57D2002CA4BF00241C
:10323000254652DA24F00040284318BF2E4C4CD0CB
:103240001AE02E4820FA06F704EA070028431FD0A8
:1032500053EC102B9DED020B51EC100BFDF723F8F6
:1032600053EC182BFDF716FA37D2002C03DA4FF483
:103270008010F0400444BC4300252EE0332E07DCD0
:10328000A6F114004FF0FF3121FA00F73D4206D1BC
:103290009DED020BBDEC028B02B0BDE8F08153EC5A
:1032A000102B9DED020B51EC100BFDF7A0F853EC29
:1032B000182BFDF7EFF910D2002C0DDA142E08BFF1
:1032C000641C09D0C6F13400012101FA00F0284441
:1032D000A84238BF641C0546BD43CDE902549DEDAC
:1032E000020BD7E7000000009C7500883CE4377EA5
:1032F00000000000000000000000F0BFFFFF0F0012
:1033000010B52DED040B86B09DED060B10EE100AE6
:1033100010EE901A8DED000B002818BF0120084315
:1033200020F00040C0F17F6000F1E040C00F21D1EB
:103330009DED080B10EE101A10EE900A8DED000BAB
:10334000002918BF0121084320F00040C0F17F6030
:1033500000F1E040C00F0DD129490798B1EB400FB3
:1033600004BF0698002842D00998400004BF08987E
:1033700000283CD09DED080B53EC102B9DED060B67
:1033800051EC100BFDF742FACDE902019DED020B65
:1033900040F2FF7110EE900A8DED000B31EA1050F3
:1033A00021D00798039900F0004001F000418842C5
:1033B00019D09DED080B8DED040B9DED020B8DEDED
:1033C000000B10EE900A059961F31E0005909DED2B
:1033D000041B9DED020B51EC110B53EC102BFDF770
:1033E00006F8CDE902019DED020B0AB010BD0120E7
:1033F00000F02AF80AB0BDE8104000F005B800005F
:103400000000E0FF000000009FED050B10B553EC3D
:10341000102B51EC100BFDF75FF841EC100B10BDB9
:10342000000000000000000002E008C8121F08C1F0
:10343000002AFAD170477047002001E001C1121F35
:10344000002AFBD170470000014908607047000066
:10345000600000202DE9FF5F82B00021DDE904302B
:10346000020DDDF840B0034318D044F61050A2F22C
:10347000FF3242431514119801281FD0A5EB0B0011
:10348000401C5FEA000A4FF000064E4FDFF838910B
:10349000B046504615D5CAF1000413E01198012436
:1034A0004AA3012801D16FEA0B010298119AC0E9E1
:1034B0000031C0E9024206B0BDE8F09FCBF1000048
:1034C000DFE704460021404A491842EB0450CDE9A9
:1034D000001012E0E00707D032463B46404649461E
:1034E000FCF788FF8046894632463B46104619461F
:1034F000FCF780FF06460F466410002CEAD1DDE998
:103500000401DDE90023BAF1000F06DAFCF772FFCF
:1035100042464B46FCF76EFF05E0FCF7DDFF4246F6
:103520004B46FCF7D9FF04460E460022284BFDF718
:10353000B1F803D84FF0FF30014607E00022254BD9
:1035400020463146FCF7AFFEFDF7A3F9102409E051
:10355000002C0ADB0A220023FCF750FE039B3032CA
:103560001A55641E50EA0102F2D1641C039AC4F198
:1035700011031444119A012A03D0012208430DD1EA
:103580000AE0084304D000204FF0110B119072E7BD
:10359000A3EB0B056D1E0DE05B4504DD4FF0000253
:1035A00005F1010504E003DA4FF00002A5F1010581
:1035B000002AECD002981199C0E90231C0E9004517
:1035C00079E70000000014400000F03F30000000E8
:1035D0000000F0430000E03F2DE9FF4F95B09B460F
:1035E0008946064600250FE2252877D10024274684
:1035F000F84A0121059400E0044316F8013F203BFE
:1036000001FA03F01042F7D130782A2811D06FF078
:103610002F033078A0F13002092A16D8059A44F019
:10362000020402EB820203EB42021044761C059076
:10363000EFE759F8042B0592002A03DA504244F4CC
:103640000054059044F00204761C30782E2816D1E0
:1036500016F8010F44F004042A280DD06FF02F0251
:103660003078A0F13003092B09D807EB870302EB70
:103670004303C718761CF3E759F8047B761C3078AF
:103680006C280FD006DC4C2817D068280DD06A288B
:1036900014D104E0742810D07A280FD10DE044F43E
:1036A00000140AE044F4801401E044F440147278F9
:1036B000824202D104F58014761C761C307866288C
:1036C0000BD013DC582877D009DC002875D04528AA
:1036D000F6D04628F4D047281AD19DE118E0632897
:1036E00035D0642879D0652812D195E1702873D03F
:1036F00008DC6728F1D069286FD06E280DD06F28BC
:1037000006D1B5E073282CD0752875D0782874D0F0
:103710005A46179990476D1C75E1C4F30250022870
:1037200009D003280DD0D9F8001004280DD00D6061
:1037300009F1040967E1D9F80010EA17C1E900525C
:10374000F6E7D9F800100D80F2E70D70F0E719F8F0
:10375000041B8DF8001000208DF80100EA460120BE
:1037600003E059F804AB4FF0FF3061074FF0000160
:1037700002D40DE008F101018846B9420FDA804514
:10378000F8DB1AF808100029F4D108E008F101016B
:1037900088468142FADB1AF808100029F6D105980C
:1037A0005B46A0EB080721463846179A00F094FACA
:1037B000284400EB080507E04DE029E10DE01AF888
:1037C000010B5A4617999047B8F10108F7D25B46AA
:1037D00021463846179A13E142E00A220092C4F3C8
:1037E00002524FF0000A022A08D059F804CB032AEB
:1037F0004FEAEC710AD00DE029E02AE009F1070157
:1038000021F00702F2E802C1914609E00FFA8CFCB0
:103810004FEAEC71042A03D14FFA8CFC4FEAEC71A9
:10382000002907DA0A460021DCF1000C61EB0201F5
:103830002D2202E0220504D52B228DF8042001223E
:1038400003E0E20701D02022F7E7904659E00A2181
:1038500002E010220DE010214FF0000A00910BE071
:1038600010224FF0000A44F004040827009203E0FD
:1038700008224FF0000A0092C4F30252022A05D037
:1038800059F804CB0021032A08D009E009F1070107
:1038900021F00702F2E802C1914605E01FFA8CFC14
:1038A000042A01D10CF0FF0C4FF00008220728D5A4
:1038B000702806D0009B83F0100353EA0A0305D05A
:1038C0000EE040228DF80420012208E05CEA0102AB
:1038D00006D030228DF804208DF805000222904693
:1038E000009B83F0080353EA0A030AD15CEA010251
:1038F00001D1620705D530228DF804204FF0010870
:103900007F1E582804D034A003900EA802900DE02A
:1039100036A0F9E753466046009AFCF76FFC8446F0
:103920000398825C0298401E029002705CEA0100DB
:10393000F0D1029806A9081A00F1200A600702D502
:1039400024F4803400E00127574502DDA7EB0A008C
:1039500000E0002000EB0A01009005984144401A65
:103960000590E00306D45B462146179A059800F0BF
:10397000B3F90544002706E001A85A46C05D17992F
:1039800090476D1C7F1C4745F6DBE0030CD55B467A
:103990002146179A059800F09FF9054404E030206D
:1039A0005A46179990476D1C0099481E00900029AF
:1039B000F5DC08E0029802995A460078491C029109
:1039C000179990476D1CBAF10001AAF1010AF1DCC8
:1039D00065E10000092801003031323334353637D3
:1039E000383961626364656600000000303132334B
:1039F00034353637383941424344454600000000EB
:103A000000F058F90544761C307800287FF4ECADBE
:103A100019B02846BDE8F08F620700D4062709F1E7
:103A2000070222F0070CFCE80223E14603F00048FD
:103A30005FEA080C02D00FF2702C0DE05FEA045C24
:103A400002D50FF2682C07E05FEAC47C02D00FF2C7
:103A5000602C01E0AFF2700C4FF0FF3823F0004310
:103A6000CDF850C065280CD006DC452809D0462882
:103A70001DD047283DD13DE0662818D067287ED16B
:103A800038E00021112F01DB112000E0781CCDE986
:103A9000000106A90EA8FFF7DDFCDDE90F010E9A73
:103AA00003910021009207F1010A04914DE04FF0CB
:103AB00000400097CDE9011006A90EA8FFF7CAFC47
:103AC000DDE90F0203920E9B11990022DDF80CA094
:103AD0000093049211B9791C00EB010AB7EB0A00BC
:103AE00004D4C0F1FF3007F1010A0490AAEB0700EB
:103AF000019044E0012F00DA01270021112F01DDA0
:103B0000112000E03846CDE9000106A90EA8FFF714
:103B1000A1FCDDE90F010E9A0391002104910092AE
:103B2000BA4621070CD40399514500DA8A46BAF106
:103B3000010F05DD009AAAF10101515C302908D07E
:103B4000B84202DA10F1040F06DA0121CDE90110C2
:103B500015E0AAF10101E9E7002805DC0499014418
:103B60000491AAEB000102E0411C514500DD8A46A8
:103B70000499401A401C01904FF000400290200729
:103B800004D40198504501DBCDF8048000208DF865
:103B90004F0002980DF14F07B0F1004F25D02B20B8
:103BA0000E9002984FF0020800280CDA4042029072
:103BB0002D200E9007E00A210298FCF783FD30319A
:103BC000029007F8011DB8F10001A8F10108F2DC2C
:103BD00002980028EFD1791E0E980870307800F016
:103BE000200040F0450007F8020D12A8C01B00F1AC
:103BF00007081498007800B1012000EB0A01019831
:103C000001EBE07105984144401A401E0590E00325
:103C100006D45B462146179A059800F05DF80544E6
:103C20001498007818B15A46179990476D1CE00314
:103C300024D55B462146179A059800F04DF80544B7
:103C40001CE00498002807DBDDE90301884203DD5E
:103C50000098405C179901E0179930205A46904728
:103C6000049805F10105401C04900198401E019044
:103C700004D12E205A46179990476D1CBAF10001C5
:103C8000AAF1010ADDDC05E017F8010B5A46179985
:103C900090476D1CB8F10001A8F10108F4DC5B4607
:103CA0002146179A0598ABE62D0000002B00000076
:103CB000200000002DE9F041044600251E4617466D
:103CC000880404D405E039462020B0476D1C641EEA
:103CD000F9D52846BDE8F0812DE9F04104460025DC
:103CE0001E469046C80301D5302700E020278804EF
:103CF00004D505E041463846B0476D1C641EF9D531
:103D00002846BDE8F0814A68002A06D00A68531C9C
:103D10000B6010704868401E486070477047000094
:103D20002DED028BFCF7E2FEFEF7EEF9FEF7DEF872
:103D3000FEF752F938483749002501604FF4E13168
:103D4000C0E901150C21C560C0E904518561C56158
:103D5000FEF706F8FEF79EF9FEF762F92E482F49A6
:103D60008038C0E900158560C5608561FDF728FCD5
:103D70002B4E3068FCF730FC9FED2A8B53EC182B50
:103D8000FCF7AAFBFCF754FCFEF79EF9274C012731
:103D900040B367604FF080783068FCF71DFC8946BF
:103DA00006466068401C606049EC106B53EC182BB1
:103DB00051EC100BFCF790FBFCF73AFC6168B0FB90
:103DC000F1F04045EDD249EC106B53EC182B51EC5F
:103DD000100BFCF781FBFCF72BFC6168B0FBF1F0EA
:103DE000FEF772F96068A060104E357000F026F89A
:103DF000DFF83C80A0680028FCD16068A0603078C3
:103E000018B1D8F800000BA10160377000F03AF942
:103E10003570EFE700480040240100200014004006
:103E2000180000200000000000408F40000000202B
:103E30000C4300084F76657272756E002DE9F05FD5
:103E4000082000F039FA80480024682100680460E6
:103E500044607E48FCF71CFA7C4860216830FCF71F
:103E600017FA7D4D7B4E7E4F298879487B4A46F86C
:103E7000210047F82120491C2980DFF8E88140F221
:103E80007F71E0E8021863214CF2503BE0E8021B2E
:103E90004FF4FA7940F8049B4FF0010A44608460C3
:103EA000C460046180F800A0092141708170C17074
:103EB000C4660467446784671146C467096840F2B2
:103EC0007F708862114663200968C8621146C86025
:103ED00009683120486301211046FDF7ECFB298871
:103EE0006148614A46F82100604847F82100491CB2
:103EF00029805F211346116040F2CF72C3F804801D
:103F00009A605B4ADA601A46C3F810909461D461F3
:103F100014625462A2F85C40A2F85E40A2F86040CD
:103F2000A2F8624083F87CA0D46214635463052233
:103F30001A7509225A759A75DA751A464D4BC2F8E8
:103F40008440C2F88840C2F88C40C2F89040C2F861
:103F500080300268916202684FF6FF71D162C160E1
:103F600001680A6822F440720A6001680A680A60FF
:103F700001210461FDF79FFB29883F483F4A46F82D
:103F8000210047F82120491C298040F27F71E0E898
:103F9000041840F2F31140F8081C8460C460046106
:103FA0006423446140E901B30923037143718371C0
:103FB000C37144678467C467314BC0F880400367AE
:103FC000136840F27F7098621068C162D16001216D
:103FD0001046FDF770FB214890F83D100229FBD0F8
:103FE00000211E48FDF76CFEFEF74EFF1F4800BF84
:103FF00090F83D100229FBD000211C48FDF7BDFCC4
:104000001A48FDF747FB1D48FDF744FB1B48FDF729
:1040100041FB0E484FF0FF31683080F8541080F8B3
:10402000551080F8571080F8581080F85A1080F812
:104030005B1080F85D1080F85E10034909684968DC
:104040000165BDE8F09F00000C43000870050020EA
:10405000500600203806002024000020E400002044
:104060004406002000D8B805E406002064000020C3
:1040700040420F00CD21000878070020A400002056
:104080008926000870B5554890F955100124002282
:1040900091B1012913D090F8561099B15FF0000149
:1040A00080F8541090F854104C4B683B93ED0C0B77
:1040B00051B180ED060B09E080F85440F2E780F83A
:1040C0005420EFE70121EBE780ED040B90F854104A
:1040D00080F856104FF0FF3180F8541090F9585086
:1040E00095B1012D13D090F859509DB15FF00005A6
:1040F00080F8575090F85750384E683E96ED100BA8
:1041000055B180ED0A0B09E080F85740F2E780F8DE
:104110005720EFE70125EBE780ED080B90F85750AB
:1041200080F8595080F8571090F95B5095B1012DE7
:1041300013D090F85C509DB15FF0000580F85A50A4
:1041400090F85A50254E683E96ED0E0B55B180ED15
:104150000E0B09E080F85A40F2E780F85A20EFE7AA
:104160000125EBE780ED0C0B90F85A5080F85C507D
:1041700080F85A1090F95E502DB1012D06D090F8BC
:104180005F407CB1002480F85D4001E080F85D2054
:1041900090F85D40114D683D95ED120B24B180ED16
:1041A000120B03E00124EEE780ED100B10F85D4FD9
:1041B000847001700A48C16A21B1C268B2FBF1F192
:1041C000016301E0114602631965406B58650548BB
:1041D000016800684968491C416070BDD80500202D
:1041E000E40600200C4300081CB5034801900020A1
:1041F00000909DED000B1CBD0000F07F4FF0FF40D4
:1042000000EE100A704700001CB503480190002022
:1042100000909DED000B1CBD0000F0FF014800EE7A
:10422000100A7047000080FF1CB503480190002071
:1042300000909DED000B1CBD0000F8FF014800EE52
:10424000100A70470000C0FF10B50F4C2DED028B17
:10425000B0EE408AF0EE608A94ED040B51EC180B3E
:1042600053EC102BFCF7FEF908D094ED060B51EC43
:10427000180B53EC102BFCF7F5F903D10120BDEC22
:10428000028B10BD0020FAE7380000201CB510EEAC
:10429000900A8DED000BC0F30A50A0F5E061FF39E4
:1042A00008D110EE900A000302D110EE100A08B1F6
:1042B00001201CBD00201CBD10B5FFF7B5FF0C4C44
:1042C00084ED080BFFF7BAFF84ED020AFFF78CFFBD
:1042D00084ED040BFFF792FF84ED000AFFF794FFD3
:1042E00084ED060BFFF79AFF84ED010A10BD000074
:1042F000380000200000000000000000010203045C
:104300000607080900000000010203041C00002049
:1043100025752C25352E32662C25352E32662C251A
:10432000352E32662C25352E32660D0A000000002F
:1043300050430008000000206400000028340008FA
:10434000B443000864000020CC0D0000383400089D
:10435000000000000100000001000000010000005A
:1043600010000000000000000024F4000000000025
:104370000000000000000000000000000A00000033
:10438000000000000000000000000000000000002D
:10439000000000000000000000000000000000001D
:1043A000000000000000000000000000000000000D
:0443B0000000000009
:04000005080001C529
:00000001FF
