:020000040800F2
:10000000200600209D010008A5010008A7010008A6
:10001000412900086D080008592E00080000000062
:10002000000000000000000000000000532900084C
:100030006F0800080000000051290008812900080D
:10004000B7010008B7010008B7010008B7010008B0
:10005000B7010008B7010008390A0008B701000815
:10006000B7010008B7010008B7010008B701000890
:10007000B7010008B7010008B7010008B701000880
:10008000B7010008B7010008B7010008B701000870
:10009000B7010008B7010008B7010008B701000860
:1000A000B7010008B7010008B7010008B701000850
:1000B000B7010008B7010008B7010008FD1D0008DE
:1000C000F11D0008B7010008B7010008B7010008DA
:1000D000B7010008B7010008B7010008C12D0008EA
:1000E000B7010008B7010008B7010008B701000810
:1000F000B7010008B7010008B7010008B701000800
:10010000B7010008B7010008B7010008B7010008EF
:10011000B7010008B7010008B7010008352A000838
:10012000B7010008B7010008B7010008B7010008CF
:10013000B7010008B7010008B7010008B7010008BF
:10014000B7010008B7010008B7010008B7010008AF
:10015000B7010008B7010008B7010008B70100089F
:10016000B7010008B7010008B7010008B70100088F
:10017000B7010008B7010008B7010008000000003F
:10018000B7010008B7010008DFF80CD000F04AFB07
:1001900000480047DD3F0008200600200648804751
:1001A00006480047FEE7FEE7FEE7FEE7FEE7FEE75C
:1001B000FEE7FEE7FEE7FEE7192A000889010008CE
:1001C0002DE9F05F0546002092469B46884606468C
:1001D000814640241BE0284641464746224600F01F
:1001E0003BFA53465A46C01A914110D3114618465D
:1001F000224600F022FA2D1A67EB01084F462246EC
:100200000120002100F019FA17EB00094E41201ED1
:10021000A4F10104DFDC484631462A464346BDE8E6
:10022000F09FD2B201E000F8012B491EFBD27047CB
:100230000022F6E710B513460A4604461946FFF7B2
:10024000F0FF204610BD421C10F8011B0029FBD115
:10025000801A70472DE9FE4F804681EA0300C00FE7
:100260000C46009021F0004123F00045B8EB02005D
:10027000A94105D24046214690461C460B460246FF
:1002800023F00040104347D0270DC7F30A00C3F303
:100290000A510290401A019040286BDAC3F3130010
:1002A00040F4801B0098924620B10023D2EB030A51
:1002B00063EB0B0B01985946C0F14002504600F029
:1002C000BCF906460D4650465946019A00F0D4F94D
:1002D00010EB08006141002487EA115284EAE773B9
:1002E0001A4340D0009A62B3019A012A4FEA07529A
:1002F00015DC001B61EB02014FF0004202EA0752DD
:10030000CDE90042001C41F5801132462B4600F039
:100310000BFA03B0BDE8F08F40462146F9E7001B19
:1003200061EB0201001C41F5801300185B412018AD
:10033000A2F5001747EB030140EAD570B6196D41ED
:1003400011E06D084FEA360645EAC0754FEA0752DC
:10035000001B61EB0201001C41F5801149084FEAC6
:1003600030000019514132462B4603B0BDE8F04F32
:1003700000F0CBB90098012240000023D0EB02022C
:1003800063EBE073009821464FEAE074B8EB00009D
:1003900061EB0401E9E783F000435BE781F0004192
:1003A00058E72DE9FE4F81EA030404F0004421F0F0
:1003B000004100944FF0000B23F0004350EA010489
:1003C0005ED052EA03045BD0C3F30A54C1F30A556A
:1003D0002C44A4F2F3340194A0FB0254C1F31301A2
:1003E00041F48011C3F3130343F4801301FB02446F
:1003F00000FB034E840A970A44EA815447EA835774
:10040000A4FB076802958D0A05FB07854FEA932C2C
:1004100004FB0C542705029D4FEA065847EA16379D
:10042000B5EB08056EEB070C870E920E47EA8117B5
:1004300042EA8312A7FB0201B6EB0B0164EB000456
:100440002B0D43EA0C335E1844EB1C50DA46514640
:10045000E7FB0201C5F313044FEA0B3343EA1453DD
:100460004FEA0432019C43EA0603A4F10C0402940F
:10047000009CCDE900B400F057F903B0BDE8F08F5F
:1004800000200146F9E72DE9F04D81EA030404F06C
:10049000004B21F0004514464FF0000A23F00041C4
:1004A00050EA050220D054EA01021DD0C5F30A57D4
:1004B0000246C5F31303C1F31300C1F30A5640F417
:1004C000801543F48013A7EB0608101BD64608F2EC
:1004D000FD3873EB050002D308F1010801E0921822
:1004E0005B41B8F1000F03DA00200146BDE8F08D52
:1004F00000204FF48011064684460EE0171B73EB74
:10050000050705D3121B63EB050306434CEA010CF8
:1005100049084FEA300092185B4150EA0107EDD1DB
:1005200052EA030012D082EA040083EA050108437C
:1005300005D0101BAB4106D20122002306E00022A9
:100540004FF0004302E06FF0010253101AEB060077
:100550004CEB085110EB0A0041EB0B01BDE8F04DEC
:1005600000F0D3B80EB540F2334102910021CDE93D
:1005700000110A460B4600F0D7F803B000BDC1F3E6
:100580000A5210B5C1F3130140F2FF3341F4801158
:100590009A4201DA002010BD40F233439A42A2F29F
:1005A000334203DC524200F057F810BD904010BDBA
:1005B00000F0004230F000400AD0C10D01F560713A
:1005C000C0F3160042EA0151C208400711437047C8
:1005D00000200146704701F0004330B421F0004193
:1005E00050EA010206D00A0DA2F56072C1F31301B0
:1005F000002A02DC30BC00207047440F44EAC104EA
:10060000C100E01830BC00EBC25000F047B830B574
:100610000B46014600202022012409E021FA02F5C0
:100620009D4205D303FA02F5491B04FA02F528445A
:10063000151EA2F10102F1DC30BD202A04DB203AB4
:1006400000FA02F1002070479140C2F1200320FA25
:1006500003F3194390407047202A04DB203A21FA23
:1006600002F00021704721FA02F3D040C2F12002CB
:100670009140084319467047202A06DBCB17203AE1
:1006800041FA02F043EAE07306E041FA02F3D04097
:10069000C2F1200291400843194670470029A8BFC3
:1006A0007047401C490008BF20F00100704710B49B
:1006B000B0FA80FC00FA0CF050EA010404BF10BC50
:1006C000704749B1CCF1200421FA04F411FA0CF17D
:1006D00018BF012121430843A3EB0C01CB1D4FEAB6
:1006E00000614FEA102042BF002010BC704700EBB1
:1006F000C35010440029A4BF10BC7047401C4900DF
:1007000008BF20F0010010BC704710B5141E73F133
:10071000000408DA401C41F1000192185B411A43C1
:1007200001D120F0010010BD2DE9F04D92469B460D
:1007300011B1B1FA81F202E0B0FA80F220329046B3
:10074000FFF77BFF04460F4640EA0A0041EA0B012F
:1007500053465A46084313D0114653EA010019D0B4
:10076000C8F140025046FFF777FF05460E46504657
:1007700059464246FFF761FF084305D0012004E0D7
:1007800020463946BDE8F08D0020054346EAE07674
:100790002C4337430A986305E40AA0EB08000022C3
:1007A000FD0A44EA47540A3002D500200146E9E731
:1007B000010510196941DDE9084500196941BDE8E5
:1007C000F04DA2E7C1F30A52C1F3130140F2FF3327
:1007D00041F480119A4202DA00200146704740F24B
:1007E00033439A42A2F2334202DC5242FFF734BF53
:1007F000FFF723BF30B5041E71F1000404DB4FF096
:100800000044404264EB0101141E73F1000405DB57
:100810001C464FF00043524263EB0403994208BF69
:10082000904230BD064C074D06E0E06840F0010301
:1008300094E8070098471034AC42F6D3FFF7A8FCC1
:1008400090440008B0440008014890ED030A704746
:1008500030000020014890ED040A7047300000206D
:10086000014890ED050A704730000020FEE7704710
:100870002DE9F04F2DED108BB1B003F06DFCFFF7BB
:10088000E3FF10EE100AFFF793FE41EC1D0BFFF79C
:10089000E1FF10EE100AFFF78BFE41EC1C0BFFF797
:1008A000DFFF10EE100AFFF783FE41EC1B0B02F096
:1008B00049F810EE100AFFF77BFE8946804600F0EB
:1008C000BFF810EE100AFFF773FE41EC1A0B00F0B0
:1008D000BDF810EE100AFFF76BFE41EC190B00F0AB
:1008E000BBF810EE100AFFF763FE41EC180B51EC59
:1008F0001B0BFFF770FE00EE100A51EC1C0B8DED88
:10090000000AFFF768FE0EEE100A51EC1D0BFFF710
:1009100062FE0FEE900A51EC180BFFF75CFE0FEE33
:10092000100A51EC190BFFF756FE0EEE900A51EC2F
:100930001A0BFFF750FE00EE100ADDED002AB0EEB4
:100940004E2AF0EE6F1AB0EE4F1AF0EE6E0A01F07A
:10095000EDFE03F0BDFA10EE100AFFF729FE0F4678
:10096000064603F0BBFA10EE100AFFF721FECDE9B0
:10097000000103F0B9FA10EE100AFFF719FE0D4658
:10098000044603F0B7FA10EE100AFFF711FE8B468B
:10099000824603F04FFA10EE100AFFF709FECDE988
:1009A000160112A8204A80E8300CDDE90001CDE9EB
:1009B0001001CDE90E678DED0C8B8DED0A9B8DED51
:1009C00008ABCDE906898DED04BB8DED02CB8DED35
:1009D00000DB632118A802F041FA18A803F028FAF6
:1009E000124C206018A8FFF72EFC0204120CE280C3
:1009F00003D00F48216802F087F80D4D288820B1F8
:100A00000020A080284602F0E1F995F8200008B106
:100A10006888A0804FF48051064800F075F931B025
:100A2000BDEC108BBDE8F08FA443000858000020F7
:100A3000FC010020000C0240012000F07DB8000005
:100A4000014890ED070A704730000020014890ED02
:100A5000080A704730000020014890ED090A7047ED
:100A60003000002090F83510022903D08021416524
:100A700001207047052180F835100068016821F0D9
:100A8000010101600020704790F8350070470000B8
:100A90000021B0F5807F37D010DC10282CD006DC88
:100AA000022823D0042823D008283CD122E0202883
:100AB00024D0402824D0802835D123E0B0F5805FB1
:100AC0002AD009DCB0F5007F20D0B0F5806F1FD0B0
:100AD000B0F5006F27D11DE0B0F5005F1ED0B0F576
:100AE000804F1DD0B0F5004F1DD11BE001211AE051
:100AF000022118E0032116E0042114E0052112E090
:100B0000062110E007210EE008210CE009210AE08F
:100B10000A2108E00B2106E00C2104E00D2102E08F
:100B20000E2100E00F21034850F82100002800D0DA
:100B30000047704758010020044910B50A68024276
:100B400002D00860FFF7A4FF10BD0000143C014074
:100B50002DE9F84F00224FF0010803254FF00F0E4A
:100B60000B6808FA02F42340A3426ED14E68012EAE
:100B700005D0022E03D0112E01D0122E12D186687C
:100B80004FEA420C05FA0CF7BE43CF6807FA0CF7A0
:100B9000374387604668A6430C79C4F30014944039
:100BA00034434460C668570005FA07FC8C6826EA9F
:100BB0000C06BC403443C4604C68022C01D0122C9B
:100BC00013D1D40800EB8404A346D4F82090540732
:100BD0004FEAD46A0EFA0AF629EA06090E6906FAFD
:100BE0000AF646EA0906CBF8206006680C7926EA80
:100BF0000C0604F00304BC40344304604C68E40079
:100C000065D5364C266846F480462660246822F076
:100C1000030604F480440094314C3444A446D4F8D0
:100C200008489607370F0EFA07F6B4432D4EB04228
:100C300001D1002624E02C4EB04201D101261FE054
:100C40002A4EB04202D102261AE040E0284EB042BD
:100C500001D1032614E0274EB04201D104260FE053
:100C6000254EB04201D105260AE0244EB04201D102
:100C7000062605E0224EB04201D1072600E00826F4
:100C8000BE402643CCF808681E4E34684F689C432B
:100C9000FF0300D51C4334601A4C241D26684F689E
:100CA0009E43BF0300D51E432660164E08363468A7
:100CB0004F689C43FF0200D51C433460114E0C3634
:100CC00034684F689C43BF0200D51C433460521CFB
:100CD000102AFFF445AFBDE8F88F00004438024009
:100CE00000300140000002400004024000080240C1
:100CF000000C0240001002400014024000180240A4
:100D0000001C0240003C0140426931EA020200D16D
:100D10000904816170470AB1816170470904FBE7EA
:100D200001488068704700000C0000207047704741
:100D30002DE9F041016804464A694E6890F83E008A
:100D40000025D743FA0506D4F243D20503D46FF445
:100D5000807201254A61B90508D4F143C90505D45B
:100D600022686FF4007145F002055161790525D4C0
:100D7000F143C90522D4638D94F83D10226B2028DD
:100D800008D13BB9212910D029290ED0282901D119
:100D9000212A0AD022686FF48061516145F0040570
:100DA000102806D0402804D008E0204601F07AFB45
:100DB00004E02068016841F400710160380508D43E
:100DC000F043C00505D421686FF4006045F00805C4
:100DD0004861002D07D0206C284320642046BDE8E0
:100DE000F04101F055B8BDE8F0812DE9F04102680D
:100DF00000245168C56A90F83E3090F83D60102B91
:100E00001CD0402B1AD0036C002B7ED053694FF0BE
:100E10002805DB439F0779D4CF43BF0576D4016C07
:100E200001B1946990F83D3000219D430B467FD07D
:100E3000C91E516180F83C30BDE8F0819469536966
:100E40004FF42A07DB435FEAC37C4FF02A4604D005
:100E5000BD42F1D0B542EFD010E0CD43AD050DD489
:100E6000C16AB94201D1012103E0C16AB14201D195
:100E70000821C162BDE8F04101F098BA1D0716D4FF
:100E8000CD43AD0513D4416CC9B21161416B11B9A9
:100E9000826B002AD0D0C96B19B9816BC96B00294C
:100EA000CAD00068416841F400614160C4E79D0711
:100EB00006D4CD43AD0503D4BDE8F04101F0EAB955
:100EC000E443526864074FEA025215D4002AB3DBA8
:100ED0001A0608D4CA43520505D45A0705D5BDE8F9
:100EE000F04101F07BB95A07A6D4C9438905A3D4C0
:100EF000BDE8F04101F028B9002A9DDB5A060CD468
:100F0000CA43520509D45A0702E00FE023E00FE07C
:100F100005D5BDE8F04101F0CEB85A078CD4C943DD
:100F2000890589D4BDE8F04101F05CB894696DE7AA
:100F3000556825F480655560E243540700D50121CA
:100F4000120601D5828900E0028B80F83C3092B213
:100F5000FFF7EDFE70E7DC0606D4CC43A40503D40E
:100F6000BDE8F04101F0E0BA212E27D0292E25D08E
:100F70005C0655D4CC43640552D45B0752D590F837
:100F80003D10438D002B91D01269436A1A70426A5A
:100F9000521C4262428D521E4285428D002A85D1EA
:100FA0002A29D7D101684A6822F480624A60222146
:100FB000016380F83D5000F057F93DE71C0623D44B
:100FC000CC43640520D45B0720D590F83D10438DB9
:100FD000002BBFD0436A1B781361426A521C4262E5
:100FE000428D521E4285428D002AB3D12929B1D1AA
:100FF00001684A6822F480624A602121016380F816
:101000003D5000F032F917E75B07A3D4C9438905C7
:10101000A0D4418D00299DD0416A097811610AE070
:101020005B0797D4C943890594D4418D002991D099
:101030001169426A1170416A491C4162418D491E21
:101040004185F9E67047000070B5040025D094F89A
:101050003D00002520B984F83C50204600F0BEF841
:10106000242084F83D002068016821F0010101601E
:101070002068016841F4004101602068016821F4A2
:101080000041016000F028FA4D4A6168914201D8A0
:101090004C4900E04C49884201D2012070BD4B49C7
:1010A0002368B0FBF1F15E6826F03F060E435E60F8
:1010B0006368934206D94FF4967359434FF47A7399
:1010C000B1FBF3F12368491C1E6A26F03F06314349
:1010D00019626168914210D84900401EB0FBF1F2DC
:1010E000521CC2F30B02042A01D2042022E0B0FBFE
:1010F000F1F0401CC0F30B001CE0A268F2B301EB5E
:10110000C10303EB0116431EB3FBF6F35B1C43F470
:1011100080431B0549D092B301EBC10202EB0111E0
:10112000401EB0FBF1F0401CC0F30B0040F48040C7
:1011300040F400402168CA694CF6FF739A4310439B
:10114000C861D4E9071001432068026822F0C00298
:1011500011430160D4E9030101432068826848F229
:10116000FF339A4311438160D4E9050108432168A4
:10117000CA6822F0FF021043C86001E00EE016E0EA
:101180002068016841F0010101602564202084F895
:101190003D00256384F83E50002070BD01EB410600
:1011A000431EB3FBF6F35B1CB3E70120C2E701EB80
:1011B0004101401EB0FBF1F0401CC0F30B00B7E74B
:1011C000A086010080841E0000093D0040420F00FF
:1011D00070477047704770477047000010B586B081
:1011E000044614216846FFF723F81C49206888420A
:1011F00031D11B48016841F0020101600068694675
:1012000000F0020005904FF4107000901220019041
:101210000120029003200390042004901148FFF75E
:1012200097FC0F481030016841F40011016000681C
:10123000002200F40010059011461F2000F080F8F5
:101240001F2000F06FF800221146202000F078F8EF
:10125000202000F067F806B010BD000000540040E8
:1012600030380240000402407047704702488168ED
:1012700002781144816070470C0000200B4810B5C3
:10128000016841F400710160016841F4806101600E
:10129000016841F480710160032000F071F80020C2
:1012A00000F006F800F024F8002010BD003C0240D9
:1012B00070B50D4D04464FF47A712878B1FBF0F00B
:1012C0000A490968B1FBF0F000F004FB48B9102CA2
:1012D00007D200222146501E00F032F800206C6038
:1012E00070BD012070BD00000C000020180000201F
:1012F0000B4882B0016841F480410160006800F44D
:10130000804000900648001F016841F08051016054
:10131000006800F080500090072002B000F030B864
:1013200044380240002809DB00F01F0201219140EF
:101330004009800000F1E020C0F800117047000073
:10134000F0B40E4B1B680C46C3F30223C3F1070530
:10135000042D00D90425191D072901D2002300E01E
:10136000DB1E012606FA05F1491E214099409E40E8
:10137000761E16403143F0BC01F0A0BD0CED00E03C
:10138000064900F0070208684FF6FF03184040EADC
:101390000220034A10430860704700000CED00E093
:1013A0000000FA052DE9F0470E46050065D0DFF88C
:1013B0001481D8F80000F7B200F00F00B04207D255
:1013C00088F80070D8F8000000F00F00B04254D147
:1013D00028683D4C810712D5400703D5206840F4AA
:1013E000E05020602878000703D5206840F4604072
:1013F00020602068A96820F0F00008432060287869
:10140000C0072DD0304968680839012812D0022859
:1014100013D0032811D00968890700292DDA216823
:1014200021F0030101432160FFF77AFC814641F27C
:10143000883A0EE009688903EFE709688901ECE75B
:10144000FFF76EFCA0EB0901514502D90320BDE86E
:10145000F0872068696800F00C00B0EB810FEFD1D5
:10146000D8F80010404601F00F01B14207D90770CB
:10147000006800F00F00B04201D00120E7E72878B3
:10148000400705D52068E96820F4E0500843206053
:101490002878000706D52068296920F4604040EAD2
:1014A000C100206000F038F82168084AC1F3031138
:1014B000515CC8400649086006480068FFF7F8FE1E
:1014C0000020C4E7003C024008380240884300087E
:1014D0001800002010000020044805490068096831
:1014E000044AC1F38221515CC840704718000020B3
:1014F0000838024098430008044805490068096814
:10150000044AC1F34231515CC840704718000020C2
:101510000838024098430008154810B5006810F0DC
:101520000C02144813D04110042A0FD0082A0ED1FF
:101530000F4C241F2268236802F03F025B0207D58C
:101540002068C0F38810A0FB010106E0084610BD2A
:101550002168C1F38811A1FB00010023FEF730FED2
:101560002168C1F30141491C4900B0FBF1F010BDF5
:10157000083802400024F4002DE9F84F04006ED032
:101580002078DFF83C93C007A9F104054AD009F19F
:1015900004000168C1F38101012908D00068C0F38B
:1015A000810002280AD1D9F80000400206D5286837
:1015B000800337D560680028E1D033E06068B0F57B
:1015C000803F10D0B0F5A02F286810D020F48030D4
:1015D0002860286820F4802028606068A8B1FFF7A0
:1015E0009FFB06460DE0286840F48030F4E740F4A5
:1015F00080202860F7E700BFFFF792FB801B64287C
:1016000073D828688003F7D50CE0FFF789FB0646FE
:1016100005E000BFFFF784FB801B6428F0D8286832
:101620008003F7D42078DFF89C8280074FF0000A0F
:101630003ED5A348001D016811F00C0F08D00068CA
:10164000C0F3810002280BD1D9F80000400207D472
:101650002868800716D5E068012800D112E02BE148
:10166000E068B8B10120C8F80000FFF759FB064652
:1016700005E000BFFFF754FB801B0228C0D8286894
:101680008007F7D52868216920F0F80040EAC100FA
:1016900028600DE0C8F800A0FFF742FB064604E012
:1016A000FFF73EFB801B02281FD828688007F7D46D
:1016B0002078000722D5824E83486169703671B167
:1016C00001210160FFF72CFB074604E0FFF728FB30
:1016D000C01B022809D830688007F7D50EE0C0F893
:1016E00000A0FFF71DFB074605E082E0FFF718FBAF
:1016F000C01B02287DD830688007F7D420784007C7
:1017000068D5DFF8BCB100270BF13C0BDBF800001B
:10171000C0000BD4DBF8001041F08051CBF8001072
:10172000DBF80000012700F080500090674E306821
:10173000C00510D4306840F480703060FFF7F0FAD4
:10174000009005E0FFF7ECFA0099401A022850D803
:101750003068C005F6D55A4EA0686C3601280FD007
:101760000528306810D020F001003060306820F08B
:1017700004003060A068B8B1FFF7D2FA00900FE023
:10178000306840F00100F4E740F004003060F7E713
:10179000FFF7C6FA0099411A41F28830814266D8B3
:1017A00030688007F4D50EE0FFF7BAFA009007E042
:1017B000FFF7B6FA0099411A41F28830814256D8B3
:1017C00030688007F4D42FB1DBF8001021F080518D
:1017D000CBF80010A069C8B33949091D0968C1F3E5
:1017E000810102294AD00228504607D0C8F860007B
:1017F00000E03CE0FFF794FA04463BE04746C8F8B7
:101800006000FFF78DFA064605E000BFFFF788FA93
:10181000801B02282BD828688001F7D4D4E907015F
:101820000843A16A2A4A490802EB0141626A41EA77
:101830008211084394F82C1040EA0161C9F80010A5
:1018400001203866FFF76CFA044606E036E000BF78
:10185000FFF766FA001B022809D828688001F7D52F
:101860002CE000BFFFF75CFA001B022802D903201E
:10187000BDE8F88F28688001F4D41FE00128F7D074
:10188000D9F80000E26900F48001914214D1226A83
:1018900000F03F0191420FD147F6C071626A0140EA
:1018A000914209D1A26A00F44031914204D1E16A27
:1018B00000F07060884201D00120D9E70020D7E70E
:1018C0000438024000004742800E4742007000404A
:1018D0000000FFFF10B5401EB0F1807F01D3012052
:1018E00010BD4FF0E02460610F21601701F0E6FAAF
:1018F0000020A06107202061002010BD70477047C4
:1019000070B590F83C20012A32D0012480F83C4088
:10191000022280F83D2003685A689D6822F0700614
:101920000A6832435A60134B02689A4214D0B2F1EB
:10193000804F11D0104B9A420ED0104B9A420BD0D0
:101940000F4B9A4208D00F4B9A4205D00E4B9A4249
:1019500002D00E4B9A4204D1496825F08003194306
:10196000916080F83D40002180F83C10084670BD31
:10197000022070BD0000014000040040000800404B
:10198000000C0040000401400040014000180040ED
:1019900010B5040003D094F83D0010B107E0012019
:1019A00010BD002084F83C00204600F00DF8022015
:1019B00084F83D00211D206801F042F8012084F8E0
:1019C0003D00002010BD000008B500680B498842AA
:1019D00012D10B48016841F020010160006800222B
:1019E00000F02000009011463720FFF7A9FCBDE869
:1019F00008403720FFF796BC08BD000000140040E7
:101A000040380240704770B50446006801694FF0E5
:101A10000005C943890715D4C168C943890711D492
:101A2000E91E016101202077206880698007204637
:101A300002D0FFF7E7FF04E000F098F8204600F03E
:101A400096F8257720680169C943490717D4C1680A
:101A5000C943490713D46FF00401016102202077C4
:101A60002068806910F4407F204602D0FFF7CAFF4B
:101A700004E000F07BF8204600F079F82577206834
:101A80000169C943090716D4C168C943090712D4BB
:101A90006FF008010161042020772068C069800789
:101AA000204602D0FFF7AEFF04E000F05FF82046CA
:101AB00000F05DF8257720680169C943C90617D48D
:101AC000C168C943C90613D46FF010010161082031
:101AD00020772068C06910F4407F204602D0FFF7CD
:101AE00091FF04E000F042F8204600F040F825772E
:101AF00020680169C943C90708D1C168C943C9073A
:101B000004D1891E0161204600F032F82068016985
:101B1000C943090609D4C168C943090605D46FF051
:101B2000800101612046FFF7E9FE20680169C94391
:101B3000490609D4C168C943490605D46FF040017C
:101B40000161204600F015F820680169C943890643
:101B50000BD4C168C943890607D46FF02001016125
:101B60002046BDE87040FFF7CABE70BD70477047A1
:101B7000704770477047000070B5026804461068EF
:101B8000D168536910F00F0F52D003F0010501F432
:101B900090762E435FD0C20705D0CA0503D5E26B0D
:101BA00042F00102E263420705D5DA0703D0E26B97
:101BB00042F00202E263820705D5DA0703D0E26B46
:101BC00042F00402E263020707D501F020022A4333
:101BD00003D0E26B42F00802E263E26B002A33D0EA
:101BE000800604D5880602D5204600F0D8FF20687C
:101BF0004069E16BC0F38010090700D428B3204688
:101C000000F0BFFF2068416949061AD5416921F0FB
:101C100040014161606BA0B11B490165606BFEF73B
:101C200021FF002810D0606B016DBDE870400847AF
:101C3000830610D58B060ED52046BDE8704000F017
:101C4000AEBF2046FFF796FF70BD2046FFF792FF1C
:101C50000020E06370BD030606D50B0604D52046C0
:101C6000BDE8704001F07AB84006F3D54806F1D5DA
:101C7000D168204621F04001D160202184F839103C
:101C800000F094F870BD0000732B000870B50400DC
:101C900004D094F83900002510B106E0012070BD91
:101CA00084F83850204600F023F8242084F83900C6
:101CB0002068C16821F40051C160204600F0BAFFDD
:101CC0002068016921F4904101612068416921F097
:101CD0002A0141612068C16841F40051C160E56397
:101CE000202084F8390084F83A00002070BD0000FC
:101CF00010B586B0044614216846FEF799FA1849D3
:101D00002068884229D117480021026842F48022C5
:101D10000260006800F480200590124810380268C4
:101D200042F008020260006800F0080005904FF4DD
:101D3000407000900220CDE90101032003900720AC
:101D4000049069460848FEF703FF00221146272049
:101D5000FFF7F6FA2720FFF7E5FA06B010BD0000FE
:101D60000048004040380240000C0240704790F8A4
:101D70003930202B18D1A9B1A2B190F83830012BFD
:101D800012D001628284C2840021C163212280F8C2
:101D9000392080F838100068C16841F08001C160C6
:101DA0000020704701207047022070470F4A0F49FA
:101DB000121D12680968824211D1012081F82000A9
:101DC0004A88486910444861CA68904201D38868CB
:101DD000486191F8210018B1022081F82100704774
:101DE00008884A88801A0880704700006C0000202C
:101DF0000148FEF79DBF0000740000200148FEF777
:101E0000F4BF00007400002010B5806B90F83D20F6
:101E1000436B002103B1D963836B03B1D9630368BA
:101E20001C6824F480641C604185436B03B1196510
:101E3000836B03B1196503681C6824F001041C60FE
:101E400090F83D402023602C0BD0282434EA020275
:101E50000FD080F83D3080F83E1000BFFFF7F2F859
:101E600010BD80F83D3080F83E100164FEF75EFF43
:101E700010BD0268136843F0010313600268136821
:101E800043F480631360016380F83D40E6E700009F
:101E900070B5044690F83D0094F83E10102906D124
:101EA000222804D121680A6822F400620A602821ED
:101EB00031EA00024FF000054FF0200626D02168DD
:101EC0004968090503D4602801D084F83D60256382
:101ED00084F83E5020684168090537D5416821F4EF
:101EE00000614160606B90F835203C49012A11D0B7
:101EF0000165606BFEF7B6FD38B32068016821F01C
:101F00000101016084F83D60606B1CE0256384F88A
:101F10003D10DFE7A06B0165A06BFEF7A3FDA0B14C
:101F200020684169C943490605D40069616A08709F
:101F3000606A401C60622068016821F00101016054
:101F400084F83D60A06B016D884710E094F83D1067
:101F5000602910D04169C943490605D40069616A06
:101F60000870606A401C60622046FFF76BF8206CC6
:101F7000C1071CD115E084F83D6025644169C9435F
:101F8000490605D40069616A0870606A401C606295
:101F90002068016821F0010101602046FEF7C6FEBD
:101FA000E5E7810703D4410701D4000704D5206881
:101FB000416821F4E061416094F83D00216C4907DB
:101FC0000BD5282809D10648E062256384F83D60D6
:101FD00084F83E502046FFF7FBF870BD091E00084C
:101FE0000000FFFF10B5C26A438D0168042B06D0C4
:101FF000438D032B08D0438D022B1DD012E04A687D
:1020000022F480624A600CE04B6823F480634B60EA
:10201000042A06D0022A04D001680A6822F48062E9
:102020000A6001680969426A1170416A491C41628B
:10203000418D491E418510BD012A30D0102A2ED075
:10204000042A30D0022A2ED00A6842F400720A60B4
:1020500001680969426A1170416A491C4162428DF6
:10206000521E4285026812690A70416A491C416227
:10207000418D491E418501684A6822F440724A60D8
:10208000202180F83D1090F83E200021402A80F861
:102090003E100CD012210163FFF79BF810BD0A68B7
:1020A00022F48062D3E70A6842F48062CFE70163DA
:1020B000FFF791F810BD10B590F83D10222914D10A
:1020C000418D032912D901680969426A1170416A78
:1020D000491C4162418D491E4185418D032904D12E
:1020E0000068416821F48061416010BDC26A022A23
:1020F000FBD0012901D00029F7D101680A6822F438
:1021000080620A6001684A6822F4E0624A600168FD
:102110000969426A1170416A491C4162418D491E38
:102120004185202180F83D1090F83E200021402A72
:1021300080F83E1004D012210163FFF74AF810BD69
:102140000163FFF748F810BD10B5C26A90F83D1062
:10215000212907D090F83E1040290FD1BDE810404A
:1021600000F06AB9418D51B1416A02680978116184
:10217000416A491C4162418D491E418510BD2023A1
:102180000021082A13D0202A11D012F5803F0ED04A
:102190000268546824F4E06454601122026380F8F9
:1021A0003E1080F83D3000BFFFF714F810BD026804
:1021B000546824F4E06454600268146844F40074C1
:1021C0001460016380F83D3090F83E2080F83E10A6
:1021D000402AE9D1FFF700F810BD000010B590F8D3
:1021E0003D1090F83E30C26A048DB4B1212903D06D
:1021F000402B11D122290FD1418DE1B390F83E102F
:10220000402942D0416A026809781161416A491C3B
:102210004162418D491E418510BD2129E8D120230D
:102220000021082A13D0202A11D012F5803F0ED0A9
:102230000268546824F4E06454601122026380F858
:102240003E1080F83D3000BFFEF7C4FF10BD0268AD
:10225000546824F4E06454600268146844F4007420
:102260001460016380F83D3090F83E2080F83E1005
:10227000402AE9D100E002E0FEF7AEFF10BD0068A1
:10228000416821F48061416010BDBDE8104000F05C
:10229000D3B8000078B590F83E50C26A036B90F84E
:1022A0003D6000240168222E7AD1066D0EB9402DC2
:1022B00076D0056D1DB90569B5F5404F09D0458D3E
:1022C00005B3468D384D012E0ED0438D022B3AD0EA
:1022D0005DE04A698A6900920A6842F480720A6085
:1022E000016D491C016578BDAA4213D10A6822F428
:1022F00080620A6001684A68120503D50A6822F400
:10230000806216E04A698A6900920A6842F40072A3
:102310000A6039E0082A10D0202A0ED0122B0AD0E9
:10232000042A03D0022A01D0102AE7D10A6842F415
:1023300080620A6024E0012AE0D00A6822F4806208
:102340000A600168DEE7042A21D0022A1FD0102A81
:102350001DD00B6823F480630B6001680B6843F4A5
:1023600000630B6001684B681B0509D5AA4212D0B7
:10237000012A10D0082A0ED0102A0CD0202A0AD008
:1023800001684A6989690091046578BD08E00B68B5
:1023900043F48063E5E74A6842F480524A60EFE71D
:1023A000486988690090F0E70000FFFF90F83E1050
:1023B000402910D00169B1F5804F19D0016DA9B342
:1023C000016D012910D1416C5FF0F10201F44071FF
:1023D00042EAD11106E0016D0029416C05D0C9B275
:1023E00041F0010100680161704701F0FE01F9E769
:1023F00090F83D102129416C09D0C9B241F001018A
:1024000002681161416B29B1C96B49B902E001F061
:10241000FE01F5E7816B0029E6D0C96B0029E3D006
:102420000068416841F4006141607047FFE7416C1A
:10243000F02201F44071CBE7016DC1B1016D0129BA
:1024400023D0016D022911D190F83D10222923D00B
:1024500090F83D10212909D1416A0268097811617B
:10246000416A491C4162418D491E41857047C16CDA
:102470000129816C02D0C1F3072108E00268C9B2CA
:102480001161016D891C01657047816CC9B20268D8
:102490001161016D491CF6E70068016841F4807123
:1024A000016070472DE9F04190F83D40C26A002379
:1024B00020261C4F01686FF48065082A01D0202A6D
:1024C00001D1282C04D0212C16D04D61BDE8F0811B
:1024D000C7624A6822F4E0624A6001684D6101689F
:1024E0000A6822F480620A60036380F83D6080F825
:1024F0003E30FEF76DFEE9E7C7622122026380F8F5
:102500003D6080F83E304A6822F4E0624A6001682B
:102510004D6101680A6822F480620A60FEF7A5FE38
:10252000D4E700000000FFFFF8B590F83D600446D6
:102530000068416821F4E06141602068002541693C
:102540000091016841F0010101602068016821F4F7
:102550008061016020684168090520D5474F222E1F
:1025600048D02A2E46D0616B096849686185618D23
:1025700019B1216C41F004012164416821F400612A
:102580004160606BFEF780FA012808D0606B076538
:10259000606BFEF767FA10B1606B016D8847608D64
:1025A00008B320684169C943490708D40069616AD2
:1025B0000870606A401C6062608D401E6085206803
:1025C0004169C943490608D40069616A0870606AB4
:1025D000401C6062608D401E6085608D18B1206C6B
:1025E00040F004002064206C00B32046BDE8F840B1
:1025F000FFF74EBCA16B096849686185618D19B10F
:10260000216C41F004012164416821F400614160C2
:10261000A06BFEF739FA0128C1D0A06B0765A06B4B
:10262000FEF720FA0028BAD0A06BB6E72A2E06D112
:102630002563282084F83D002046FEF715FE94F817
:102640003D10202028290DD0216B222901D0222ED7
:1026500007D1256384F83D0084F83E502046FEF7FC
:1026600003FEF8BD0649E162256384F83D0084F865
:102670003E502046FEF7ACFDF8BD0000091E0008E4
:102680000000FFFFF0B587B014216846FDF7D0FDCC
:1026900022480024016841F080010160016801F0D6
:1026A00080010591016841F001010160016801F0BC
:1026B00001010591016841F008010160016801F024
:1026C00008010591016841F0020101600068144FA2
:1026D00000F002004FF47046059000223146384663
:1026E000FEF719FB01250F480095CDE90104694665
:1026F0000D48FEF72DFA0096CDE90154694638469B
:102700000394FEF725FA002211460620FEF718FE74
:102710000620FEF707FE07B0F0BD0000303802408B
:10272000000C0240000011100000024000B5824A77
:10273000F6EE006A2DED0A8BF5EEC01A92ED026AF4
:10274000D2ED035AD2ED043A26EE403A05EEE03AD5
:1027500003EEC13A23EE265A92ED013A23EE004AE7
:1027600005EE814A03EEE04A64EE264A23EE204A53
:1027700006EE414A23EE011A06EE201A03EE804AC5
:1027800005EEC01A24EE264A61EE265AF1EE10FA42
:1027900009D1B5EEC02AF1EE10FA04D1F5EEC02A47
:1027A000F1EE10FA7ED021EEA10A02EE020A02EE4C
:1027B000A20A01F0F7FB61EE800A22EE001A62EE37
:1027C000808AB0EE000AD2ED012AD2ED021A92ED13
:1027D000032A92ED046A62EE809A61EE807A22EE1C
:1027E000008A26EE00AAB1EE000AB2EE003A22EE0E
:1027F00080CA62EE023A21EE83BA22EE039A62EEBA
:10280000A2BA2CEE233A61EEA12A21EE807A66EE7E
:1028100006AA08EE203A6BEE80BA62EE006A2BEE52
:10282000822A0CEE223A27EE2ACA09EEA02A0AEEE4
:1028300060CA07EEC13A06EEAA2A0BEEA1CA0AEE5A
:10284000412A09EEC1CA32EE662A7CEE471A09EE29
:10285000222A4BEE221A62EE802A23EE800A09EE2B
:10286000232A62EE862A4BEE231A47EEE02A06EE72
:10287000A82A47EE281A40EE062A23EE030A01EEA4
:10288000A10A48EE412A02EE020A02EEA20A01F073
:1028900089FB63EE000A21EE803A22EE001A62EE16
:1028A000801A00E009E092ED000A00EE605A40EE66
:1028B000434A00EE414A40EE615A92ED010ADFEDD3
:1028C0001F0A05EE200A82ED010A92ED021A20EE9F
:1028D000000A04EEA01A82ED021AD2ED031A01EEEC
:1028E000010A44EE201AC2ED031A92ED042A01EE09
:1028F000A10A05EEA02A82ED042A02EE020A01F0E6
:1029000051FBD2ED010A60EE800AC2ED010AD2ED60
:10291000020A60EE800AC2ED020AD2ED030A60EEFE
:10292000800AC2ED030AD2ED040A20EE800A82ED8D
:10293000040ABDEC0A8B00BD1C00002083464B3C02
:10294000FEE70000014890ED060A704730000020C5
:1029500070477047401EB0F1807F01D3012070475F
:102960004FF0E0214861054AF02082F8140D002064
:102970008861072008610020704700000FE000E038
:102980000348016811B10168491E0160FEF76EBC81
:102990000800002030B593B030216846FDF748FCB0
:1029A00014210CA8FDF744FC19480025016841F0EA
:1029B00080510160006800F0805011901548016856
:1029C00041F4804101600068022400F480401190CD
:1029D00001200090000401908001CDE90640042010
:1029E0000890A820CDE9090407200B906846FEF75F
:1029F000C3FD0CA90F2081E831004FF4A0500F90C7
:102A0000E002109005210CA8FEF7CCFC13B030BDFD
:102A100040380240007000400548016841F47001F0
:102A2000016003494FF00060803908607047000082
:102A300088ED00E00148FEF7E6BF0000C800002076
:102A4000F0B50268254C264D264E274F274B4FF0F8
:102A5000804CA04209D0604507D0A84205D0B042C2
:102A600003D0B84201D0984204D122F0700E4A68D7
:102A700042EA0E02A0421BD0604519D0A84217D0EE
:102A8000B04215D0B84213D0984211D0184DA84288
:102A90000ED0184DA8420BD0174DA84208D0174DA4
:102AA000A84205D0164DA84202D0164DA84203D127
:102AB00022F44075CA682A434D6922F080022A43F5
:102AC00002608A68C2620A688262A04201D09842AB
:102AD00001D10969016301214161F0BD000001409C
:102AE0000004004000080040000C004000040140C9
:102AF00000400140004401400048014000180040EF
:102B0000001C004000200040F0B500231C4617E0E8
:102B1000D0E90456B54201D106889EB911F8017B6F
:102B20006E1C06612F70D0E904565B1C9BB2B54247
:102B300008D0C668B54201D185680561641CA4B29D
:102B40009442E5D3012180F821100188194489B20B
:102B5000018090F82140022C02D14488091B018099
:102B6000002180F82110934202D28188491C818083
:102B7000F0BD10B5806B0021C185C184FEF7FAFF5E
:102B800010BD0168CA6822F49072CA6001684A697F
:102B900022F001024A61202180F83A10704710B5F6
:102BA00090F83A10222901D0022010BD8168B1F5B9
:102BB000805F11D00169002901681FD0496801F0C8
:102BC0007F03816A4A1C82620B70C18D491E090411
:102BD000090CC18518D02BE00269816A002A0268BD
:102BE000526805D0D2B20A80816A491C8162ECE742
:102BF000C2F308020A80816A891CF7E74A68816A81
:102C00004B1C83620A70E0E70168CA6822F0200268
:102C1000CA600168CA6822F48072CA6001684A69A1
:102C200022F001024A61202180F83A10FFF79EF855
:102C3000002010BD2DE9F041044600680169E268FA
:102C400021F44051114301612169A068E269084300
:102C50006169114308432168CA6849F20C639A43C9
:102C60000243CA6020684169A26921F4407111439E
:102C70004161E069192764253226B0F5004F354AD5
:102C8000354920684FF0000806D0884201D09042B4
:102C900036D1FEF731FC35E0884201D0904202D1B6
:102CA000FEF72AFC01E0FEF717FC61684A18A0FB5A
:102CB000070148EB0803FDF783FA0146B0FBF5F086
:102CC0000201B1FBF5F06FF01803584301EB8000EF
:102CD00006EBC000B0FBF5F000F0F80002EB40029C
:102CE000B1FBF5F0584301EB800006EBC000B0FBF0
:102CF000F5F000F00700216810448860BDE8F0811D
:102D0000FEF7EAFB61688B0F8A00A0FB0701FDF765
:102D100057FA0146B0FBF5F06FF01802504301EB93
:102D2000800006EB0010B0FBF5F000F0F002B1FB04
:102D3000F5F002EB0012B1FBF5F06FF01803584309
:102D400001EB800006EB0010B0FBF5F000F00F0087
:102D5000D1E70000001401400010014090F8391044
:102D6000212901D0022070478168B1F5805F016A96
:102D70000BD04A1C0262026809785160C18C491E5E
:102D80000904090CC1840ED017E009880268C1F358
:102D90000801516001690029016A02D0491C0162E1
:102DA000ECE7891CFBE70168CA6822F08002CA6070
:102DB0000068C16841F04001C16000207047000018
:102DC0000148FEF7D9BE00000801002090F820104D
:102DD000002912D00388002B0FD0002180F820108A
:102DE00082894169521A92B2934202D843801A46AC
:102DF00000E042800148FEF7BABF7047080100209A
:102E0000104800216122018041808180C280A0F1B0
:102E10006402C31EC0E90223026142610A4A826160
:102E20000A4AC261022280F8202080F82110084A54
:102E3000111F098842F82100121D064842F821009E
:102E400070470000FC010020092B0008CD2D000870
:102E50006C00002008010020FEE700000FB41CB544
:102E60000246002007AC00290BD0491ECDE9002105
:102E7000054B6A462146069800F024FC009A002182
:102E800011701CBC5DF814FBF33D000803B40198FD
:102E90004100009850EAC12018BF04204A0D18BF15
:102EA00040F0010040F2FF72B2EB515F08BF40F00A
:102EB0000200012808BF052002B070470907090E6B
:102EC000002804DB00F1E02080F80014704700F0D7
:102ED0000F0000F1E02080F8141D70470000000092
:102EE00070B59B482DED020B2DED068B079D25F04F
:102EF0000044A04218DC9748844202DC0AD10698BC
:102F000040B19DED060BBDEC068B02B0BDE87040F4
:102F100000F0E2BA002DCCBF9FED8F0B9FED900B20
:102F2000BDEC068B02B070BD8F48A04215DD8F4806
:102F3000A042D8BF4FF0FF3458DD9DED060B51EC99
:102F4000100BFFF7A3FF042808BF00F0D9FA9DED8E
:102F5000060BBDEC068B02B070BD9DED060B51EC6F
:102F6000100B00F059FFCDE9060181489FED828BDF
:102F7000A0423CDD8248A0421FDD00249FED82ABD1
:102F80009DED060B53EC1A2B51EC100BFDF762F97B
:102F90009DED060B41EC190B53EC1A2B51EC100B69
:102FA000FDF7FFF953EC182BFDF7F5F953EC192B4E
:102FB000FDF769FACDE9060149E09DED060B012414
:102FC00053EC182B51EC100BFDF744F99DED060B5B
:102FD00041EC190B53EC182B51EC100BFDF7DBF9FE
:102FE00053EC192BFDF74FFACDE906012FE06848A5
:102FF000A0421FDD02249FED689B9DED060B53EC64
:10300000192B51EC100BFDF7CCF953EC182BFDF7F5
:1030100021F99DED060B41EC180B53EC192B51ECEB
:10302000100BFDF7B8F953EC182BFDF72CFACDE98E
:1030300006010CE09DED060B032453EC102B9FEDD5
:10304000580B51EC100BFDF71EFACDE906019DED72
:10305000060B53EC102B51EC100BFDF7A2F941ECD1
:10306000180B53EC182BFDF79CF941EC190B4E484B
:103070000621B0EE490AF0EE690A784400F0B0F992
:1030800053EC182B51EC100BFDF78BF941EC180B9E
:103090004648B0EE490AF0EE690A0521784400F08E
:1030A0009FF953EC192B51EC100BFDF77AF941EC19
:1030B000100B51EC180B53EC102B002C0EDAFDF713
:1030C000C9F89DED061B53EC112BFDF76AF99DED38
:1030D000061B53EC112BFDF761F935E0FDF7BAF84B
:1030E0009DED061B53EC112BFDF75BF941EC100B2A
:1030F0002F48784400EBC40090ED001B51EC100BFE
:1031000053EC112BFDF747F99DED061B53EC112BEA
:10311000FDF741F941EC100B2648784400EBC40060
:1031200090ED001B51EC100B53EC112BFDF736F911
:1031300041EC100B002DA2BFBDEC068B02B070BDA0
:1031400051EC100B81F0004141EC100B01E7000045
:10315000000010440000F07F182D4454FB21F93F7B
:10316000182D4454FB21F9BF0000DC3F0000203E35
:103170000000F33F00000000000000000000F03FEE
:103180000000E63F000000000000000000000040DA
:103190000080034000000000000000000000F83F35
:1031A000000000000000F0BFDA13000090130000E0
:1031B0001A130000D212000070B56B4E2DED040BF7
:1031C0002DED028B82B0DDF81CC0DDE905235C42E9
:1031D0002CF000411C4341EAD474049D22F00040CD
:1031E000B44205D86C422C4340EAD474B4420BD9A3
:1031F0009DED061B9DED040B02B0BDEC028B04B0EF
:10320000BDE8704000F072B9ACF14054A4F17F64A5
:103210001C430BD0022404EAAC7444EAD274054384
:103220009FED538B9FED542B07D015E09DED040BC4
:1032300051EC100B00F0E8FD42E0002C11BF012C16
:103240009DED040B02B0BDEC028B04BF04B070BD59
:10325000022C38D0032C3BD00B439FED491B9FED34
:103260004A0B0AD0B14218D1B04209D121F08041B5
:1032700020F08040079105900FE0002A15DA10E059
:10328000434B7B44002C08BF93ED000B0DD0012C69
:1032900010D0022C17D0032C1AD0B0421DD1002A16
:1032A00003DAB0EE410AF0EE610A02B0BDEC028B27
:1032B00004B070BD93ED000B51EC100B81F0004198
:1032C00041EC100BF1E7B0EE480AF0EE680AECE7CB
:1032D000B0EE420AF0EE620AE7E7401A00153C2819
:1032E000C8BF8DED000B19DCBCF1000FBEBF10F1A3
:1032F0003C0F9FED290B8DED000B0FDB9DED060BB9
:1033000053EC102B9DED040B51EC100BFDF7BBF8AB
:1033100000F082FD00F078FDCDE90001002C08BF2F
:103320009DED000BC1D0012C10D0022C9FED1C0B89
:1033300053EC102B9DED000B51EC100B0DD0FDF755
:103340002AF853EC182BFDF726F8B9E7019880F01E
:10335000004001909DED000BA7E7FDF71CF853EC32
:10336000182BFDF71BF8ABE70000F07F0000000012
:10337000182D4454FB210940182D4454FB2109C049
:10338000182D4454FB21F9BF182D4454FB21F93F5B
:103390000212000000000000000000000000000019
:1033A000075C143326A6A13C0548016841F48071EE
:1033B0000160034814300168C907FCD07047000061
:1033C000005400400548016841F400710160034861
:1033D000183001688907FCD5006870470054004028
:1033E00070B504462DED028B4D1E00EBC500B0EE0E
:1033F000408AF0EE608A90ED000B35F0060017D0A1
:1034000053EC182B51EC100BFCF7CBFF41EC100BDD
:103410006D1E04EBC50090ED001B51EC100B53EC3E
:10342000112BFCF717FF41EC100B35F00600E7D12C
:10343000022D36D0042D1CD0062D1CBFBDEC028BF6
:1034400070BD53EC182B51EC100BFCF7AAFF94ED58
:103450000A1B53EC112BFCF7FDFE53EC182BFCF769
:10346000A0FF94ED081B53EC112BFCF7F3FE41EC8D
:10347000100B53EC182B51EC100BFCF792FF94ED52
:10348000061B53EC112BFCF7E5FE53EC182BFCF755
:1034900088FF94ED040B53EC102BFCF7DBFE41ECA2
:1034A000100B53EC182B51EC100BFCF77AFF94ED3A
:1034B000021B53EC112BFCF7CDFE53EC182BFCF741
:1034C00070FF94ED001B53EC112BFCF7C3FEBDEC19
:1034D000028B41EC100B70BD10B553EC102B51EC6E
:1034E000100BFCF7B7FE41EC100B10BD10B553EC00
:1034F000112B51EC100BFCF7ADFE41EC100B10BD85
:103500009FED050B10B553EC102B51EC100BFCF795
:1035100048FF41EC100B10BD00000000000000103F
:1035200002E008C8121F08C1002AFAD1704770478C
:10353000002001E001C1121F002AFBD170470000EA
:103540002DE9FF5F82B00021DDE90430020DDDF8D6
:1035500040B0034318D044F61050A2F2FF32424369
:103560001514119801281FD0A5EB0B00401C5FEA31
:10357000000A4FF000064E4FDFF83891B046504633
:1035800015D5CAF1000413E0119801244AA30128BB
:1035900001D16FEA0B010298119AC0E90031C0E92C
:1035A000024206B0BDE8F09FCBF10000DFE7044621
:1035B0000021404A491842EB0450CDE9001012E0C6
:1035C000E00707D032463B4640464946FCF7E9FE55
:1035D0008046894632463B4610461946FCF7E1FED6
:1035E00006460F466410002CEAD1DDE90401DDE94E
:1035F0000023BAF1000F06DAFCF7D3FE42464B4631
:10360000FCF7CFFE05E0FCF73EFF42464B46FCF7D9
:103610003AFF04460E460022284BFDF7EBF803D88C
:103620004FF0FF30014607E00022254B204631468F
:10363000FCF710FEFDF7C6F8102409E0002C0ADBA9
:103640000A220023FCF7BCFD039B30321A55641E8E
:1036500050EA0102F2D1641C039AC4F1110314442C
:10366000119A012A03D0012208430DD10AE0084330
:1036700004D000204FF0110B119072E7A3EB0B0563
:103680006D1E0DE05B4504DD4FF0000205F1010504
:1036900004E003DA4FF00002A5F10105002AECD0A6
:1036A00002981199C0E90231C0E9004579E70000AC
:1036B000000014400000F03F300000000000F04324
:1036C0000000E03F2DE9FF4F95B09B468946064636
:1036D00000250FE2252877D100242746F84A01214A
:1036E000059400E0044316F8013F203B01FA03F083
:1036F0001042F7D130782A2811D06FF02F0330789C
:10370000A0F13002092A16D8059A44F0020402EB0F
:10371000820203EB42021044761C0590EFE759F851
:10372000042B0592002A03DA504244F40054059019
:1037300044F00204761C30782E2816D116F8010FBA
:1037400044F004042A280DD06FF02F023078A0F145
:103750003003092B09D807EB870302EB4303C71893
:10376000761CF3E759F8047B761C30786C280FD070
:1037700006DC4C2817D068280DD06A2814D104E044
:10378000742810D07A280FD10DE044F400140AE018
:1037900044F4801401E044F440147278824202D16F
:1037A00004F58014761C761C307866280BD013DC68
:1037B000582877D009DC002875D04528F6D046284F
:1037C000F4D047281AD19DE118E0632835D0642849
:1037D00079D0652812D195E1702873D008DC67286C
:1037E000F1D069286FD06E280DD06F2806D1B5E0D2
:1037F00073282CD0752875D0782874D05A4617991C
:1038000090476D1C75E1C4F30250022809D00328CB
:103810000DD0D9F8001004280DD00D6009F104096D
:1038200067E1D9F80010EA17C1E90052F6E7D9F8C4
:1038300000100D80F2E70D70F0E719F8041B8DF809
:10384000001000208DF80100EA46012003E059F83D
:1038500004AB4FF0FF3061074FF0000102D40DE0E0
:1038600008F101018846B9420FDA8045F8DB1AF801
:1038700008100029F4D108E008F1010188468142CE
:10388000FADB1AF808100029F6D105985B46A0EB80
:10389000080721463846179A00F094FA284400EBAE
:1038A000080507E04DE029E10DE01AF8010B5A4642
:1038B00017999047B8F10108F7D25B462146384680
:1038C000179A13E142E00A220092C4F302524FF029
:1038D000000A022A08D059F804CB032A4FEAEC71F7
:1038E0000AD00DE029E02AE009F1070121F00702E2
:1038F000F2E802C1914609E00FFA8CFC4FEAEC7144
:10390000042A03D14FFA8CFC4FEAEC71002907DA44
:103910000A460021DCF1000C61EB02012D2202E0DD
:10392000220504D52B228DF80420012203E0E207B2
:1039300001D02022F7E7904659E00A2102E0102248
:103940000DE010214FF0000A00910BE010224FF023
:10395000000A44F004040827009203E008224FF014
:10396000000A0092C4F30252022A05D059F804CB8F
:103970000021032A08D009E009F1070121F007021C
:10398000F2E802C1914605E01FFA8CFC042A01D13D
:103990000CF0FF0C4FF00008220728D5702806D045
:1039A000009B83F0100353EA0A0305D00EE0402287
:1039B0008DF80420012208E05CEA010206D03022E2
:1039C0008DF804208DF8050002229046009B83F0BC
:1039D000080353EA0A030AD15CEA010201D1620733
:1039E00005D530228DF804204FF001087F1E58289D
:1039F00004D034A003900EA802900DE036A0F9E7A1
:103A000053466046009AFCF7DBFB84460398825CD1
:103A10000298401E029002705CEA0100F0D1029808
:103A200006A9081A00F1200A600702D524F48034A0
:103A300000E00127574502DDA7EB0A0000E0002067
:103A400000EB0A01009005984144401A0590E003FC
:103A500006D45B462146179A059800F0B3F9054451
:103A6000002706E001A85A46C05D179990476D1CD3
:103A70007F1C4745F6DBE0030CD55B462146179AD1
:103A8000059800F09FF9054404E030205A46179944
:103A900090476D1C0099481E00900029F5DC08E055
:103AA000029802995A460078491C0291179990474A
:103AB0006D1CBAF10001AAF1010AF1DC65E1000018
:103AC00009280100303132333435363738396162F4
:103AD00063646566000000003031323334353637B8
:103AE00038394142434445460000000000F058F98F
:103AF0000544761C307800287FF4ECAD19B02846D8
:103B0000BDE8F08F620700D4062709F1070222F012
:103B1000070CFCE80223E14603F000485FEA080CCA
:103B200002D00FF2702C0DE05FEA045C02D50FF2B8
:103B3000682C07E05FEAC47C02D00FF2602C01E041
:103B4000AFF2700C4FF0FF3823F00043CDF850C0B7
:103B500065280CD006DC452809D046281DD047280A
:103B60003DD13DE0662818D067287ED138E000219D
:103B7000112F01DB112000E0781CCDE9000106A91E
:103B80000EA8FFF7DDFCDDE90F010E9A039100217D
:103B9000009207F1010A04914DE04FF000400097B8
:103BA000CDE9011006A90EA8FFF7CAFCDDE90F0256
:103BB00003920E9B11990022DDF80CA00093049251
:103BC00011B9791C00EB010AB7EB0A0004D4C0F16B
:103BD000FF3007F1010A0490AAEB0700019044E0CE
:103BE000012F00DA01270021112F01DD112000E053
:103BF0003846CDE9000106A90EA8FFF7A1FCDDE9D2
:103C00000F010E9A0391002104910092BA462107F8
:103C10000CD40399514500DA8A46BAF1010F05DD4B
:103C2000009AAAF10101515C302908D0B84202DAA9
:103C300010F1040F06DA0121CDE9011015E0AAF117
:103C40000101E9E7002805DC049901440491AAEB8D
:103C5000000102E0411C514500DD8A460499401AEA
:103C6000401C01904FF000400290200704D40198BE
:103C7000504501DBCDF8048000208DF84F000298FC
:103C80000DF14F07B0F1004F25D02B200E90029878
:103C90004FF0020800280CDA404202902D200E90CE
:103CA00007E00A210298FCF7B2FC3031029007F8D5
:103CB000011DB8F10001A8F10108F2DC029800280A
:103CC000EFD1791E0E980870307800F0200040F097
:103CD000450007F8020D12A8C01B00F10708149850
:103CE000007800B1012000EB0A01019801EBE071BE
:103CF00005984144401A401E0590E00306D45B46F7
:103D00002146179A059800F05DF80544149800784C
:103D100018B15A46179990476D1CE00324D55B46AD
:103D20002146179A059800F04DF805441CE00498C8
:103D3000002807DBDDE90301884203DD0098405CD1
:103D4000179901E0179930205A469047049805F1D9
:103D50000105401C04900198401E019004D12E20C2
:103D60005A46179990476D1CBAF10001AAF1010A51
:103D7000DDDC05E017F8010B5A46179990476D1CDA
:103D8000B8F10001A8F10108F4DC5B462146179A5E
:103D90000598ABE62D0000002B000000200000007D
:103DA0002DE9F041044600251E461746880404D438
:103DB00005E039462020B0476D1C641EF9D5284621
:103DC000BDE8F0812DE9F041044600251E469046ED
:103DD000C80301D5302700E02027880404D505E07A
:103DE00041463846B0476D1C641EF9D52846BDE8EB
:103DF000F0814A68002A06D00A68531C0B601070D4
:103E00004868401E4860704710B541EC100BFFF742
:103E100067F851EC100B10BD82B0CDE9000121F024
:103E2000004001909DED000B02B051EC100B70476B
:103E30007047000010B5214CB7EE000A2DED068B3F
:103E4000F0EE008A94ED02AA94ED038A6AEE0A0A63
:103E500048EE080A00EEE80A10EE100AFCF7A8FB8C
:103E600094ED040AD4ED010A41EC190B20EE080A86
:103E700000EE8A0A20EE280A10EE100AFCF798FBE2
:103E800041EC100BB0EE491AF0EE691AFFF794F905
:103E90009FED0B1B51EC100B53EC112BFCF781FA2F
:103EA0009FED091B53EC112BFCF775FAFCF793FB04
:103EB000BDEC068B00EE100A10BD00001C000020B7
:103EC000000000C0DCA54C400000006066662D408C
:103ED000014890ED010A70471C000020014890ED58
:103EE000020A70471C000020014890ED030A704749
:103EF0001C000020014890ED040A70471C000020BF
:103F00002DE9F0410446FFF74FFA134E134D707838
:103F10004006000E2860281D01688907FCD50F4F58
:103F2000083739682C60016804464907FBD5FFF75C
:103F30003BFA70784006000E401C2860206880071D
:103F4000FCD5386820684006FCD52868C4B2FFF765
:103F500039FA2046BDE8F0813000002010540040BE
:103F600070B50C460546FFF71FFA0C480C4B40781D
:103F70004006000E18601A1D10688007FCD508481E
:103F8000083000681D6010684007FCD51C60106890
:103F90004007FCD5BDE87040FFF714BA30000020A0
:103FA0001054004010EE100AF6EE000A074960EEC9
:103FB000200AA1EB600000EE100A20EE801AF7EE56
:103FC000080A41EE400A20EE800A7047DF59375F49
:103FD000014890F900007047300000202DED028B61
:103FE00084B0FDF74BF9FEF7D5FCFEF74BFB4F48CD
:103FF0004D49002401604FF41651C0E901140C2111
:10400000C460C0E904418461C461FDF73FFE4748D4
:104010004749943801604749C0E901144FF4804191
:10402000C0E9034144618461C4610462FDF70CF896
:104030003E480094403840490194C0E9001484602F
:10404000C4608461FDF7A4FC384800946946403898
:104050000194FDF755FC394D2868FCF783FA9FED74
:10406000388B53EC182BFCF70EFAFCF788FAFEF7A6
:1040700071FC354F012640B37E604FF08078286890
:10408000FCF770FA894605467868401C786049EC70
:10409000105B53EC182B51EC100BFCF7F4F9FCF708
:1040A0006EFA7968B0FBF1F04045EDD249EC105B57
:1040B00053EC182B51EC100BFCF7E5F9FCF75FFA09
:1040C0007968B0FBF1F0FEF745FC7868B8601E4DEA
:1040D00000202C54401C0228FBDB00F011F9DFF813
:1040E0006C80B8680028FCD17868B860287818B16E
:1040F000D8F8000016A101602E7002A800F0F4F8B4
:10410000002000F015F92C709DF809000028E8D077
:10411000687818B1D8F800000DA1016030466E70C3
:1041200000F006F96C70DCE7004800400801002050
:1041300000540040801A06000014004018000020BF
:104140000000000000408F4000000020A043000855
:104150004F76657272756E002DE9F0414D4C002569
:1041600005F13B00C0B2FFF7CBFE60556D1C0E2D74
:10417000F6DB208840BA0FFA80FE608840BA07B2AA
:10418000A08840BA06B2E08840BA05B2208940BA99
:1041900003B2608940BA02B2A08940BA01B23E4877
:1041A0008468642C03D2641C8460BDE8F081C82C50
:1041B00009D245882B44438083881A448280C28870
:1041C0001144C180EFE716D1B0F902C04FF064048A
:1041D0009CFBF4FCA0F802C0B0F904C09CFBF4FC0A
:1041E000A0F804C0B0F906C09CFBF4F4C4804FF002
:1041F000C90484600BE04488A3EB040384881BB2E9
:10420000A2EB0402C48812B2A1EB040109B200EED1
:1042100010EA9FED231AF8EEC00A9FED200A60EE27
:10422000800AC0ED030A00EE907AF8EEE00A60EE34
:10423000800AC0ED040A00EE906AF8EEE00A20EE73
:10424000800A80ED050A00EE105AB8EEC00AC0EEF2
:10425000010A9FED140A30EE800A80ED060A00EE96
:10426000103AF8EEC00A9FED100A80EE801A00EEB8
:10427000902AF8EEE00A80ED071A80EE801A00EE30
:10428000901AF8EEE00A80ED081A80EE801A80EDB0
:10429000091A8AE748010020300000200000003998
:1042A0000000AA43B81E1242A6E96A44014901204F
:1042B000087070473000002010B500216B20FFF718
:1042C0004FFE18211B20FFF74BFE08211C20FFF793
:1042D00047FE63211920FFF743FE0121BDE810408E
:1042E0003820FFF73DBE000004490968C98811B1B4
:1042F0000021417070470121FBE70000A043000846
:10430000074810B50168002008604860054908604A
:104310004860FEF775FD05490348086010BD0000C0
:10432000A043000858000020710800085801002030
:1043300018B1012803D100F013B800F001B870479C
:10434000064801680268C988491C89B2D180B1F564
:104350007A7F02D300680021C1807047A043000823
:1043600010B5FFF735FE00280AD1FFF79FFFFFF7D2
:10437000A3FFBDE810404FF400510248FCF7C4BC55
:1043800010BD0000000C0240000000000000000012
:1043900001020304060708090000000001020304EB
:1043A0006000002025372E33662C25372E33662CEF
:1043B00025372E33662C25372E33662C25372E33A2
:1043C000662C25372E33662C25372E33662C253761
:1043D0002E33662C25372E33662C25372E33662C4C
:1043E00025372E33662C25372E33660D0A00000044
:1043F0004FBB610567ACDD3F182D4454FB21E93FFD
:104400009BF681D20B73EF3F182D4454FB21F93FEB
:10441000E2652F227F2B7A3C075C143326A6813C71
:10442000BDCBF07A8807703C075C143326A6913C1C
:10443000C4EB98999999C9BF711623FEC671BCBF88
:104440006D9A74AFF2B0B3BF9AFDDE522DDEADBFF0
:104450002F6C6A2C44B4A2BF0D5555555555D53F08
:10446000FF8300922449C23F6E204CC5CD45B73F23
:10447000513DD0A0660DB13FEB0D76244B7BA93F9B
:1044800011DA22E33AAD903F000000000000000086
:10449000B04400080000002074000000203500082F
:1044A0002445000874000020AC05000030350008E9
:1044B00000000000010000000100000001000000F9
:1044C00010000000000000000024F400CDCCCC3D22
:1044D0000000803F0000000000000000000000001D
:1044E0000068000000000000000000000000000064
:1044F00000000000000000000000000000000000BC
:1045000000000000000000000000000000000000AB
:10451000000000000000000000000000000000009B
:044520000000000097
:040000050800018965
:00000001FF
